:020000040800F2
:1000000000500020E55200082D5300082D53000831
:100010002D5300082D5300082D5300080000000048
:100020000000000000000000000000002D53000848
:100030002D530008000000002D530008D1330008A4
:100040002D5300082D5300082D5300082D53000890
:100050002D5300082D530008E5330008EB3300084A
:10006000F1330008F7330008FD3300082D53000872
:100070002D5300082D5300082D5300082D53000860
:100080002D5300082D5300082D5300082D53000850
:100090002D5300082D5300082D5300080334000889
:1000A0002D530008753300082D53000889330008CC
:1000B0008D330008A1330008B53300082D53000824
:1000C0002D5300082D5300082D5300082D53000810
:1000D0002D5300088D340008A9340008C9340008E5
:1000E0002B3400082D5300082D5300080000000099
:1000F0000000000000000000000000000000000000
:0C01000000000000000000005FF808F1A3
:10010C00024670B5014441F221054FF6FF700824F8
:10011C0012F8013B80EA032006B2430098B2002E8D
:10012C0004F1FF33B8BF684013F0FF04F4D19142DF
:10013C00EDD170BD30B541F221040A44914200D199
:10014C0030BD11F8013B80EA0320082305B24000C2
:10015C00002D80B203F1FF33B8BF604013F0FF03F2
:10016C00F4D1EBE770B50A4A0A480B4D0B4C04234B
:10017C001168CEB2013B704013F0FF0305FB00F099
:10018C004FEA1121F5D10432A242F0D170BD00BF6B
:10019C00E8F7FF1FC59D1C8193010001F4F7FF1FB9
:1001AC000138072807D8DFE800F004080606060621
:1001BC000408012070470020704702207047104946
:1001CC00104AB1F81900137A78B903F0BF0313720F
:1001DC00B1F81B0092F8283070B1B1F81F1059B16A
:1001EC0043F0400382F828307047B1F81D00002816
:1001FC00EBD043F04003EAE703F0BF03F2E700BFA4
:10020C00400100200000002008B54FF48062024934
:10021C00024805F0B5F808BD00FC0108700100208B
:10022C00002313B5019303689A68D10702D5002007
:10023C0002B010BD9A68144942F001029A60134A48
:10024C00126CB2FBF1F20192019AD2B91049D1F8B9
:10025C0030449A68D207EAD4D1F83024121B022A0F
:10026C00F7D99A6812F00102F3D1836A80F824203E
:10027C0043F010038362C36A43F00103C36201209D
:10028C00D6E7019A013ADEE740420F000000002059
:10029C0040010020036810B59A68D10701D40020F2
:1002AC0010BD9A680D4922F001029A60D1F83044D1
:1002BC009A68D207F3D5D1F83024121B022AF7D949
:1002CC009A68D207F4D5836A43F010038362C36A39
:1002DC0043F00103C3620120E2E700BF40010020AC
:1002EC00002807DB01234109034A00F01F0083406B
:1002FC0042F82130704700BF00E100E000280CDB21
:10030C0001220649430900F01F008240203341F8C6
:10031C002320BFF34F8FBFF36F8F704700E100E0D6
:10032C00154B30B5DC68C4F30224C4F10703251D5A
:10033C00042B28BF0423062D4FF0FF3594BF002457
:10034C00033C05FA03F321EA0303A54022EA050264
:10035C00A340002843EA0203ACBF00F16040074A07
:10036C004FEA0313DBB2ABBF00F5614000F00F00A6
:10037C0080F80033135430BD00ED00E014ED00E0C4
:10038C00044B054A5B68C3F30223D35C034A106C2D
:10039C00D8407047001002408C5600080000002026
:1003AC00044B054A5B68C3F3C223D35C034A106C4D
:1003BC00D8407047001002408C5600080000002006
:1003CC0010B504460168C2680B6923F4405313430B
:1003DC000B6183680069CA680343606922F4B052F8
:1003EC0022F00C0203431343CB604B69A26923F444
:1003FC00407313434B610D4B994214D1FFF7D0FF5F
:10040C0019235843636864229B00B0FBF3F0B0FBE4
:10041C00F2F402FB14031B013233B3FBF2F303EBD4
:10042C0004138B6010BDFFF7ABFFE9E70038014008
:10043C0030B50469226812F0010207D1CB6890F83C
:10044C004C5013F0010302D1012D17D130BDCB68F4
:10045C00012D23F00103CB6008D0022380F84D302E
:10046C000123636180F84D3080F84C206FF001035C
:10047C000B61CB6843F00103CB60E7E7022280F805
:10048C004D200122626180F84D2080F84C30DDE770
:10049C000B4B98420BD0B0F1804F0AD0A3F594339C
:1004AC00984208D003F58063984206D0FEE70020FE
:1004BC00704701207047022070470320704700BF2F
:1004CC00002C014008B5184B5A685A6859685A688C
:1004DC0003F580531B680369581C21D013488342D1
:1004EC0009D007D823F48062B2F1804F13D0104AA0
:1004FC00934210D0FEE7D20802F4E061FFF750FF00
:10050C00B1F5C06F05D00CD821F48071B1F5806FB6
:10051C0000D1400008BD01F4E061FFF731FFEFE7C7
:10052C00FEE7B1F5E06FF3E700100240002C01404C
:10053C00000800407B4B82B09A69013842F00102FE
:10054C009A619B6903F001030193019B23282CD82A
:10055C00DFE810F024002D0034003B004000470081
:10056C004C00530058005F0068006D0074007D0063
:10057C008200890092009B00A000A700B000B5008B
:10058C00BC002B002B002B00C100C8002B002B0043
:10059C002B002B00CD00D200D900E000624A53683A
:1005AC0043F0E06343F00103536002B070475E4ACE
:1005BC00536823F0010343F0E063F5E75A4A5368AC
:1005CC0043F0E06343F00203EEE7574A536823F02D
:1005DC000203F0E7544A536843F0E06343F004032A
:1005EC00E2E7514A536823F00403E4E74E4A5368A8
:1005FC0043F0E06343F00803D6E74B4A536823F01B
:10060C000803D8E7484A536843F0E06343F03003EB
:10061C00CAE7454A536823F0300343F0E06343F0E4
:10062C001003C1E7404A536823F03003C3E73E4A46
:10063C00536843F0E06343F0C003B5E73A4A5368AC
:10064C0023F0C00343F0E06343F04003ACE7364AC9
:10065C00536823F0C003AEE7334A536843F0E063BA
:10066C0043F44073A0E7304A536823F4407343F0DB
:10067C00E06343F4007397E72B4A536823F4407309
:10068C0043F0E06343F480738EE7274A536823F406
:10069C00407390E7244A536843F0E06343F44063AB
:1006AC0082E7214A536823F4406343F0E06343F448
:1006BC00006379E71C4A536823F440637BE71A4ACA
:1006CC00536843F0E06343F480536DE7164A536874
:1006DC0023F480536FE7144A536843F0E06343F408
:1006EC00004361E7104A536823F4004363E70E4A62
:1006FC00536823F0E06357E70B4A536823F0E06339
:10070C0043F0807350E7084A536823F0E06343F0EA
:10071C00007349E7044A536823F0E06343F08063B5
:10072C0042E700BF0010024000000140431C02D110
:10073C00002070470C310B685A1CF9D09842F9D143
:10074C004868704703460868421C00D170478342D2
:10075C0001D1886870470C31F5E703468B42084697
:10076C0004D01BB100290CBF184600207047036849
:10077C001D4A84B093420BD11C4B9A6942F400621F
:10078C009A619B6903F400630093009B04B070476B
:10079C00B3F1804F0BD103F50433DA6942F0010257
:1007AC00DA61DB6903F001030193019BEEE7104A68
:1007BC0093420AD10D4BDA6942F00202DA61DB692D
:1007CC0003F002030293029BE0E70A4A9342DDD155
:1007DC00064BDA6942F00402DA61DB6903F00403C8
:1007EC000393039BD2E700BF002C01400010024092
:1007FC000004004000080040431C10D00C4B9842F1
:10080C0010D007D8B0F1804F0ED0A3F5806398427A
:10081C000CD0FEE7074B9842FBD1192070476FF0C4
:10082C000D0070471E2070471C2070471D2070471C
:10083C0000080040002C0140431C10D00C4B984287
:10084C0010D007D8B0F1804F0ED0A3F5806398423A
:10085C000CD0FEE7074B9842FBD11B2070476FF082
:10086C000D0070471E2070471C2070471D207047DC
:10087C0000080040002C014090F86520084B03EB69
:10088C008203D3F8343493F8410093F84230184380
:10089C0000F02200A0F1220358425841704700BFDB
:1008AC0040010020B0F80831B0F80421981A00F08B
:1008BC003F007047B0F80831B0F804219BB2934266
:1008CC001ABFD0F8FC30985C4FF0FF30704790F8AE
:1008DC000631B0F80A01C0B2834227BFC3F13F030F
:1008EC00C018C01A00F1FF30704707B503688DF8C7
:1008FC00071001225B680DF10701984703B05DF802
:10090C0004FBD0F8EC3010B50133044626D1036853
:10091C00DB68984794F8111101BB012384F811315D
:10092C00D4F8EC30013319D194F8F9200C4B03EBCB
:10093C008203D3F8343493F84020012A0ED02422B9
:10094C00186883F84120C26822F00C0242F00402BD
:10095C00C260202283F8401083F8412010BD00BFF4
:10096C004001002010B50446FFF7CBFFB4F8082176
:10097C00B4F8043192B29A4217BFD4F8FC204FF06D
:10098C00FF30D05C01331CBF03F03F03A4F80431EB
:10099C0010BD38B504460A4DD5F83034C360236811
:1009AC0020465B699847002808DAE268D5F83034AD
:1009BC009B1AA2689342F2D34FF0FF3038BD00BFB0
:1009CC0040010020F8B507460D460C468E18B4427F
:1009DC0001D1601BF8BD3846FFF7DBFF431CF8D094
:1009EC0004F8010BF3E72DE9F0410746884616465B
:1009FC001D4673B100243846FFF7CBFF431C05D0CE
:100A0C00404503D030550134A542F4D12046BDE811
:100A1C00F0811C46FAE791420FD008D90123891ABC
:100A2C008B40984208D30130C8400138704720B140
:100A3C000130521A9040F8E700207047C3B2242BC3
:100A4C001ED8184A02EB83039B6800F4E06018433D
:100A5C00431C26D0C0F30312124B042A00F00F00E3
:100A6C0098BF03EB820203EB8003D3F8D8308CBF22
:100A7C000022D2F8C420C3F30F2389B1136170474D
:100A8C0000F0C002C02A0CD1C92B0AD8054B00F0CB
:100A9C003F0203EB8202D2F89C2003EB8203D3E7E4
:100AAC00536170478C560008C3B2242B20D81B4AC4
:100ABC0002EB83039B6800F4E0601843431C27D0CF
:100ACC00C0F30313042B25D8144A00F00F0002EBDB
:100ADC008303D3F8C43002EB80029B68D2F8D82091
:100AEC00D84300EA122080B2B0FA80F04009704777
:100AFC0000F0C002C02A0BD1C92B09D8074B00F05B
:100B0C003F0203EB8202D2F89C2003EB8203D1E775
:100B1C000020704700239B68FFDE00BF8C56000846
:100B2C0000212DE9F0410C464FF001080C4E0D4F01
:100B3C0056F8040BB7F84A54FFF7B6FFCD4005F052
:100B4C000105A84204BF08FA01F31C4301F101019D
:100B5C0008BFE4B20329EBD12046BDE8F08100BF09
:100B6C00A457000840010020044AD2F83014D2F8EF
:100B7C0030345B1A8342FAD3704700BF4001002027
:100B8C0038B50D46044658B3164B036590F964000E
:100B9C00FFF7B4FB94F86520134BB4F8761003EB15
:100BAC008203D3F8343489B293F84120202A11D12E
:100BBC00E26E52180ED0ADB265B11A620022DD841D
:100BCC005A64212283F841201A689D84D36843F02B
:100BDC008003D36094F96400BDE83840FFF780BB14
:100BEC0038BD00BFF90B000840010020B0F87610AA
:100BFC00826F10B50A4402F03F02A0F87620B0F8DC
:100C0C007620B0F8721092B2914219D0B0F87640BA
:100C1C004031A4B2B0F87620091B4C4292B204F0D9
:100C2C003F0401F03F01C2F1400258BF61429142C2
:100C3C0028BF11468167FFF7A3FF4FF0FF3010BDAF
:100C4C000020FCE7094AD2F85034D2F830149968E5
:100C5C008907FCD518739968C907FCD5187BD2F89D
:100C6C003024C0B29A681206FCD4704740010020B0
:100C7C0010B54CF25034224B224AD3F83004D168D0
:100C8C00C90736D4D1688C0644BF2021D160D16805
:100C9C00C80606D4D169C90703D4D06810F0040083
:100CAC0026D01849CA6812F010021FBFD3F8E424EA
:100CBC0042F00202C3F8E4241022C9684C0741BF79
:100CCC00D3F8E41442F0040241F00101C3F8E41437
:100CDC000C49C869C00709D5D3F8E40440F00400F6
:100CEC00C3F8E404CB6923F00103CB610120CA6093
:100CFC0010BDD3F83014091AA142C0D90320F7E76C
:100D0C00400100200020024043222DE9F04F624BAD
:100D1C0093B01A7046225A7047229A703122DA70B8
:100D2C0002221D461A7103F1280607AA14461868F8
:100D3C005968083303C4B3422246F7D119889B780B
:100D4C0007A8A370002321802B21544F8DF8453028
:100D5C008DF84630FFF7D4F92B23B9460093504C4D
:100D6C00A7F13003A5F829000193019B13F8015B4F
:100D7C000193FFF749FA19F8013B9D4219D009F884
:100D8C00015C23691A060CD440F21513424EE36041
:100D9C0096F8E034012B13D1236943F080032361CF
:100DAC0007E0404B636003F18833636023691B06E3
:100DBC00EAD5009B013B0093D7D113B0BDE8F08F6F
:100DCC00012586F8E054FFF753FF834600285AD1DB
:100DDC00C6F8E4042369DFF8D08043F002032361F2
:100DEC00C4F81480236943F040032361FFF740FFEC
:100DFC002269824622F00202226186F8E0B40028C1
:100E0C00CAD1BB468DF81350DBF800300BF1080B40
:100E1C0003935BF8043C02939DF8133086F8E0349E
:100E2C00FFF726FF054670BB4146039BC5F1200E1C
:100E3C0023FA05F0029BC6F8E4A403FA0EFEA5F112
:100E4C00200C23FA0CFC40EA0E00236940EA0C004B
:100E5C0043F0010380B2236108800591FFF708FF7E
:100E6C00236923F00103236190B905991035402DB6
:100E7C0001F10201D9D10D4908F10808884586F81D
:100E8C00E004C1D188E70022034B83F8E02483E718
:100E9C0086F8E0A480E700BF40010020700100202C
:100EAC00002002402301674500FC010800000208F5
:100EBC0090F84230202B18D1002301220363C28505
:100ECC00436422238285026980F842308162036880
:100EDC001AB1DA6842F48072DA605A6942F001029F
:100EEC005A61DA6842F02002DA60704730B5044685
:100EFC0050F8043985B01D6815F0010510D000229A
:100F0C0000921A6800925B680093009BFFF7B4FC98
:100F1C0030BB204604F1620105B0BDE83040C7E7A4
:100F2C00196811F0020106D001951A6801925B68EC
:100F3C000193019BEAE71A6812F0040206D00291B1
:100F4C001A6802925B680293029BDFE71968090733
:100F5C00DCD503921A6803925B680393039BD5E775
:100F6C0005B030BD0023406AC385C384BEE738B5E5
:100F7C000446F0B1FFF780FCD8B9214694F86520FF
:100F8C000C4B11F8665F03EB8203D3F83404FFF7C4
:100F9C008FFFB4F87430B4F87020013303F03F03C2
:100FAC00934206D0B4F87420A16E92B28D54A4F87A
:100FBC00743038BD40010020F8B500F160050446DE
:100FCC002B46002200F1B006C3E90022C3E902223D
:100FDC001033B342F8D10846FFF75AFA524B04F1DA
:100FEC00100703EB800304F10C00C3F8E8040E2394
:100FFC003846C4E90C22C4E90E22C4E91022C4E923
:10100C001632216184F82C20A26484F84C2084F8D8
:10101C004D20E460FFF7ABFBAB6833B103222946EC
:10102C00284698470023C5E902331035B542F3D161
:10103C0000234FF6FF72C4E90033C4E90632C4E959
:10104C000833A36063618023A36294F84D3003F0EE
:10105C00FF020BBB384684F84C20FFF788FB206955
:10106C00FFF7CAFBD4E916120546FFF759F92846D3
:10107C00FFF736F922691046FFF7DEFB05461046EE
:10108C00FFF7BAFB854207D0D4E916122846FFF7C2
:10109C0047F92846FFF724F90223244984F84D30F8
:1010AC0023698B421A680AD0B3F1804F07D0A1F59F
:1010BC0094318B4203D001F580618B4207D1A16939
:1010CC0022F070020A43216A22F440720A43A16A98
:1010DC0022F080020A431A60E269DA6262699A625B
:1010EC00124A934204BF626A1A6301225A61196957
:1010FC00C90742BF196921F00101196184F8562012
:10110C0084F84E2084F84F2084F8502084F8512025
:10111C0084F8522084F8532084F8542084F8552005
:10112C0084F84D20F8BD00BF40010020002C014088
:10113C00836801460BB103221847704790F8423080
:10114C0082B0222B3ED181680268B1F5805F836A40
:10115C003AD1016900293AD15268C2F3080223F846
:10116C00022B8362C38D013B9BB2C38553BB0268C8
:10117C00D16821F02001D160D16821F48071D16057
:10118C00516921F001015161202280F84220436312
:10119C00026B012A026824D1036302F10C0353E8A9
:1011AC00003F23F0100302F10C0040E8003100294D
:1011BC00F3D11368DB0605D50191136801935368CD
:1011CC000193019B02B0704739B9016929B9526882
:1011DC00D2B21A70836A0133C3E7526802F07F02FD
:1011EC00F7E7836C043802B01847036837B51A6800
:1011FC00044612F00F0FD9685D6909D1950640F1CC
:10120C00CF808D0640F1CC8003B0BDE8304095E72F
:10121C0005F0010001F49075054300F0C180D5077D
:10122C0005D5CB0542BF636C43F0010363645507DE
:10123C0004D518B1636C43F002036364930704D5BF
:10124C0018B1636C43F004036364150707D501F010
:10125C00200303431EBF636C43F008036364636C99
:10126C00002B00F09B80900604D5890602D5204601
:10127C00FFF764FF23685A69616C02F0400201F0C9
:10128C00080152EA010500F0858003F10C0252E8D6
:10129C00002F22F4907203F10C0040E80021002989
:1012AC00F3D103F1140252E8002F22F0010203F1F2
:1012BC00140040E800210029F3D1226B012A0CD044
:1012CC00202284F84220002222635A69520611D44B
:1012DC00204603B0BDE8304008E603F10C0252E8AA
:1012EC00002F22F0100203F10C0040E8002100292D
:1012FC00F3D1E5E703F1140252E8002F22F040028B
:10130C0003F1140040E800210029F3D1E06B002820
:10131C00DED0964B436390F82130022B05D004238A
:10132C00836303B0BDE830401CE603681A6822F002
:10133C000E021A601A6822F001021A608C4A93425B
:10134C001BD0143293421AD01432934219D0143257
:10135C00934219D01432934219D01432934214BFD1
:10136C004FF080734FF48013824A5360012380F84E
:10137C002130002380F82030D3E70123F4E7102339
:10138C00F2E74FF48073EFE74FF48053ECE74FF440
:10139C008033E9E72046FFF7A9FD656403B030BD53
:1013AC00206B012840F0A380D50640F1A080C80630
:1013BC0040F19D80002201921A6801925A680192B4
:1013CC00019A5A6955065ED5E26B1168496889B273
:1013DC000029E3D0A08D8842E0D9E18591692029CC
:1013EC003BD003F10C0151E8001F21F4807103F193
:1013FC000C0545E800100028F3D103F1140151E865
:10140C00001F21F0010103F1140545E8001000282C
:10141C00F3D103F1140151E8001F21F0400103F155
:10142C00140545E800100028F3D1202184F842105F
:10143C00206303F10C0151E8001F21F0100103F1AE
:10144C000C0545E800100028F3D192F82130022B4E
:10145C0007D00423936382F8200002236363E38D97
:10146C009CE71368D56B196821F00E011960196897
:10147C0021F0010119600121136C01FA03F36B6077
:10148C0082F82110E7E7E28DE18D92B289B2002952
:10149C0084D0A18D914281D003F10C0252E8002F2F
:1014AC0022F4907203F10C0040E800210029F3D1E2
:1014BC0003F1140252E8002F22F0010203F1140090
:1014CC0040E800210029F3D1202284F84220216336
:1014DC0003F10C0252E8002F22F0100203F10C0071
:1014EC0040E800210029F3D10223636356E710067C
:1014FC0028D50D0626D594F84120212A7FF44EAF2D
:10150C00A168226AB1F5805F17D12169A9B932F8B7
:10151C00021BC1F3080159602262E28C013A92B2BB
:10152C00E284002A7FF43AAFDA6822F08002DA60B3
:10153C00DA6842F04002DA6030E7511C216212781E
:10154C005A60EAE750067FF529AF4A067FF526AFC9
:10155C00DA68201F22F04002DA60202384F8413040
:10156C00E36C03B0BDE83040184700BF710F0008B2
:10157C00080002400000024021B990F84230012BD3
:10158C0013D07047042904D190F84330012B36D086
:10159C007047082904D190F84430012B33D07047A0
:1015AC0090F84530012B32D07047022380F842303E
:1015BC000422036802FA01F11A6A22EA01021A6291
:1015CC001A6A114319625A6C42F400425A64124A64
:1015DC0093420AD0B3F1804F07D0A2F594329342D4
:1015EC0003D002F58062934204D19A6802F007029C
:1015FC00062A03D01A6842F001021A6070470223CF
:10160C0080F84330D4E7022380F84430D0E702233B
:10161C0080F84530CCE700BF002C0140002932D1C6
:10162C0090F83E2090F84230D2B2012ADBB229D198
:10163C00012B27D1022300293BD180F83E3080F8C2
:10164C004230012203688A40196A21EA02011962B8
:10165C00196A0A431A62204A93420AD0B3F1804FA6
:10166C0007D0A2F59432934203D002F580629342E4
:10167C0004D19A6802F00702062A03D01A6842F0D5
:10168C0001021A607047042905D190F83F2090F8A8
:10169C004330D2B2C9E708290BBF90F8402090F82C
:1016AC00412090F8443090F845300CBFD2B2D2B201
:1016BC00BBE7042904D180F83F3080F84330C0E701
:1016CC0008290BBF80F8403080F8413080F8443056
:1016DC0080F84530B5E700BF002C014021B990F8E7
:1016EC003E30012B19D07047042904D190F83F30BB
:1016FC00012B2CD07047082907D190F84030012BD2
:10170C0024D1022380F840300AE090F84130012BBC
:10171C001CD1022380F8413002E0022380F83E30D5
:10172C000122036802FA01F11A6A22EA01021A6222
:10173C001A6A1143104A196293420CD0B3F1804FCC
:10174C000ED19A6802F00702062A10D170470223C4
:10175C0080F83F30E4E75A6C42F400425A64F0E7F8
:10176C00064A9342EDD002F580629342E9D01A68A2
:10177C0042F001021A60E9E7002C0140000400402D
:10178C0090F83D30012B1AD102230D4A80F83D30E0
:10179C00036893420AD0B3F1804F07D0A2F594327C
:1017AC00934203D002F58062934204D19A6802F00E
:1017BC000702062A03D01A6842F001021A60704729
:1017CC00002C0140F7B51E46A5239DF820708DF81E
:1017DC000510054603210DF105008DF804308DF838
:1017EC0006708DF80720FEF78BFC04462EB127B14E
:1017FC003A463146FEF79EFC0446042228680DEB5F
:10180C00020103685B68984736B12FB128683A46E5
:10181C00036831465B6898472868C4F3072103685E
:10182C001B6898472868E1B203681B68984703B0A7
:10183C00F0BDF0B500252C2785B0134C8DF80800B1
:10184C008DF80910ADF80A20E379227A04F2FC46EF
:10185C0043EA0223ADF80C3094F84734E8B28342E3
:10186C0001D805B0F0BD231893F8F82402210132F9
:10187C00D2B283F8F824062307FB0060009302AB76
:10188C00FFF7A0FF0135E7E740010020F7B5002482
:10189C002C270D4D05F2FC4695F84734E0B28342F7
:1018AC0001D803B0F0BD2B1893F8F82406210132AF
:1018BC00D2B283F8F824002307FB00600093FFF7F3
:1018CC0081FF0134E8E700BF400100201C21F0B586
:1018DC000446194B8BB001FB003103AE01F5B0622D
:1018EC0001F5B365374610685168083203C7AA4240
:1018FC003E46F7D11068621C3860B3F84A14D2B275
:10190C0002EB420241FA02F2234402F007028DF884
:10191C00262093F8F8242C250132D2B283F8F8242F
:10192C001C2306480093042105FB040003ABFFF7BE
:10193C0049FF0BB0F0BD00BF400100203C06002069
:10194C002DE9F04F04460E46174698464FF0030A11
:10195C0085B000F10909206803681B6998470028C5
:10196C0061D0206803685B6998472379C5B2062B60
:10197C00F1D8DFE803F004090C17202B2F00A52D5C
:10198C00E9D101232371E6E702236571FAE7202DE3
:10199C00A57104D90023636023726385DBE784F8A7
:1019AC0004A0D8E700232372A379E571002B14BFA0
:1019BC0004230523E6E7227A531CDBB2224423726C
:1019CC005572A2799A42C6D80523DBE72D0206236D
:1019DC006585D7E7638DA2791D4394F805B0E3794B
:1019EC000321658503A88DF80D2001928DF80E302A
:1019FC008DF80CB0FEF784FB4946019AFEF79AFB72
:101A0C008542C7D186F800B0E3793B70A2790E9B72
:101A1C001A701AB14946404603F0B2FC002301206B
:101A2C0063602372638505B0BDE8F08F2DE9F84340
:101A3C00036804469B680F4690469847012323741D
:101A4C00D4F8EC30B4F8066101338146C6F1400697
:101A5C001FD194F81131E3B1002294F8F9103A4BEC
:101A6C0084F8112103EB8103D3F8343493F840103C
:101A7C0001290ED02421186883F84110C16821F087
:101A8C000C0141F00801C160202183F8402083F84B
:101A9C004110236820469B6898470028F9D045469A
:101AAC00B5422FD84D452DD8B4F80661D4F80001B5
:101ABC007319402B30443AD82A46394603F060FC5F
:101ACC002E46B4F8063194F8F9201D441E4B05F04F
:101ADC003F0503EB8203D3F83424A4F8065192F8A3
:101AEC00413092F84220134303F02103212B06D0FE
:101AFC003146C4F80C6104F19400FFF741F84046FC
:101B0C00BDE8F8834E4528BF4E4623683246394619
:101B1C005B6820469847236820469B689847AD1B16
:101B2C003744B4F806618146C6F14006B8E7C6F101
:101B3C0040063246394603F023FCD4F80001AA1BB8
:101B4C00B91903F01DFCBCE740010020B0F5006F93
:101B5C00024630B522D2124B986844011AD40301C4
:101B6C001AD410F0805014D0022308251B014868A9
:101B7C000C6803F1804101F5C841C1F88451C1F8EA
:101B8C008841C1F88C010120520542F00102C1F8D4
:101B9C00802130BD0023E8E70123E6E70020F8E7C9
:101BAC0000640040072307B58DF80730104BD3F8BD
:101BBC00D425009293F8D8258DF8042092B193F88F
:101BCC0045148DF8051093F8D9158DF806105AB1F7
:101BDC0093F8450400F5E8606946FFF7B7FF03B0DA
:101BEC005DF804FBFF21ECE740F27F70F4E700BFE7
:101BFC004001002091FAA1F3B3FA83F370B50D0EF6
:101C0C000F2691FAA1F1B1FA81F144599B0006FA21
:101C1C0003F3890024EA03048A402243425170BD35
:101C2C0038B50B0E0C4691FAA1F1B1FA81F1C558F9
:101C3C000F2389008B4094FAA4F1B1FA81F12B4067
:101C4C008900012A23FA01F308D0022A19D0082BA3
:101C5C0016D12146BDE838400422CBE7042B03D132
:101C6C0008222146FFF7C6FF230A93FAA3F3B3FA1F
:101C7C0083F20123C168934021EA14210B43C36012
:101C8C0038BD042B03D108222146FFF7B3FFC368EC
:101C9C0023EA1423F3E791FAA1F3B3FA83F370B5B3
:101CAC000D0E042691FAA1F1B1FA81F144599B0071
:101CBC0006FA03F3890024EA03048A4022434251C2
:101CCC0070BD2DE9F041431C04460F4686B000D18F
:101CDC00FEE7604B00F00F0203EB8203D3F8D860F1
:101CEC00C0F30313042B5CD8DFE803F0032B37435A
:101CFC004F00594B594D9A6942F004029A619B6905
:101D0C0003F004030493049B07F00708B8F1010FD8
:101D1C0049D1330EE85896FAA6F3B3FA83F30322AB
:101D2C009B0002FA03F320EA030096FAA6F3B3FA37
:101D3C0083F39B009A4005EB166102430A60012273
:101D4C0046E0454B464D9A6942F008029A619B6900
:101D5C0003F008030393039BD6E73F4B414D9A696D
:101D6C0042F010029A619B6903F010030293029BEC
:101D7C00CAE7394B3C4D9A6942F020029A619B6943
:101D8C0003F020030193019BBEE7334B374D9A6957
:101D9C0042F040029A619B6903F040030093009B60
:101DAC00B2E70025B0E7C7F30620B8F1030F0BD854
:101DBC0001A353F828F000BFD71D00084B1D0008E5
:101DCC00391E0008451E0008FEE7FEF7B3FB08228B
:101DDC003146284608F1FF38FFF70CFFB8F1010F28
:101DEC0006D817F0080218BF04223146FFF753FF3C
:101DFC00C7F3011231462846FFF712FF164B9A69BA
:101E0C0042F001029A619B6903F001030593059B63
:101E1C00A4F10D03012B11D8154A536823F0E0638C
:101E2C0043F08063536006B0BDE8F0817F2801D099
:101E3C00FEF780FB0922CBE70022C9E70F2C02D06A
:101E4C00133C012CEFD80A4A536823F0E06343F0AB
:101E5C000073E7E78C5600080010024000080140B0
:101E6C00000C01400010014000140140001801401A
:101E7C0000000140431C05D17047984201D189688C
:101E8C001FE70C310B685A1CF7D1FEE72DE9F04F18
:101E9C00B74C87B0D4F8B09406460D464846B549C1
:101EAC0098469346FEF742FCB3490390D4F8AC0431
:101EBC00FEF73CFCB1490290D4F8B404FEF736FCB2
:101ECC00D4F8B8A40746AE495046FEF72FFC039B46
:101EDC000190002B00F01381029A002A00F00F8170
:101EEC00002F00F00C8111461846FEF736FC0199C4
:101EFC0002463846FEF731FC01461046FEF72DFC33
:101F0C000746C4F8A804002A00F0F980002900F064
:101F1C00F680002800F0F380BAF1FF3F0CBF4FF4BD
:101F2C0000734FF48023B8F1000FC4F8683414BF69
:101F3C0000234FF48273C4F85434924BC4F8500409
:101F4C00984240F0DF80FEF72BFAB6EB500F80F092
:101F5C00E280B6EB900F80F0E080B6EBD00F80F013
:101F6C00DE80B6EB101F80F0DC80B6EB501F80F0EB
:101F7C00DA80B6EB901F80F0D880B6EBD01F2CBF68
:101F8C0030233823C4F86C34002D00F0D080022D9F
:101F9C0000F0CF80013D18BF012501236D00C4F86E
:101FAC0064340723C4F87C34BBFA8BF300265B093A
:101FBC00DB0148466F49C4F87034C4F85864C4F85F
:101FCC006054C4F87864C4F85C64C4F87464FFF7B3
:101FDC0051FF6949D4F8AC04FFF74CFF6749D4F8BA
:101FEC00B404FFF747FFD4F86034D4F8B414B34208
:101FFC00C1F30310644B14BF0122022201F00F0144
:10200C00042898BF03EB800003EB81038CBF3046A0
:10201C00D0F8C400D3F8D810FFF702FE5849D4F812
:10202C00B804FFF727FF574B9F4240F0848003F51D
:10203C0060439A6942F480529A619A6902F4805220
:10204C000592059ADA6842F48052DA60DA6822F472
:10205C008052DA60D4F87434D4F85414002B40F065
:10206C008180B1F5827F01D0C4F86C340023C4F8B0
:10207C00783494F8A13403F0FF020BB984F8A0244F
:10208C00022384F8A1343B6801F4827123F04003ED
:10209C003B60D4F85834D4F8682403F404430B435D
:1020AC00D4F85C1401F400610B43D4F8601401F013
:1020BC0002010B43D4F8641401F001010B4302F448
:1020CC0000710B43D4F86C14120C01F038010B4363
:1020DC00D4F8701402F0040201F080010B433B6051
:1020EC007A60FB6923F40063FB610023C4F8A43419
:1020FC00012384F8A1343B6843F040033B6007B0F4
:10210C00BDE8F08F214B984202D0214B186C1CE794
:10211C00FEF736F919E7002334E7082332E71023DA
:10212C0030E718232EE720232CE728232AE72B4619
:10213C0035E7002333E7154B9F428BD103F5EC3386
:10214C00DA6942F48042DA61DA6902F4804204927C
:10215C00049A1A6942F480421A611A6922F4804284
:10216C001A6177E70023C4F86034C4F864347DE75F
:10217C0040010020B0570008E05700081058000834
:10218C0040580008003001408C56000800380040D0
:10219C0000000020114B82B0CDE90001D3F8BC0443
:1021AC000F496A46884206D1D3F8C01401984140C1
:1021BC0031F07F410FD092E803000A0CC3F8BC0445
:1021CC00A3F8C01483F8C224002301220448C1F3ED
:1021DC00072102B05AE602B0704700BF4001002050
:1021EC0040420F002DE9F04F0B46044615464FF0C8
:1021FC0001094FF0000A87B004F03F02C2F140021F
:10220C00AA4228BF2A46904601933A4BADF8149047
:10221C0004938DF816A004AFDFF8DCB097E8030048
:10222C00FFF7B8FFDBF8DC6500213046FEF706FC53
:10223C000620FEF707FD01213046FEF7FFFB2D4B74
:10224C00ADF8149004938DF816A097E80300FFF7EF
:10225C00A1FF00213046FEF7F1FB0220FEF7F2FC55
:10226C00200AFEF7EFFCE0B2FEF7ECFC019B03EB5F
:10227C000802019213F8010B0293FEF7E3FCDDE96F
:10228C0001239A42F6D101213046FEF7D7FBDBF849
:10229C003024184BADF8149004938DF816A097E8E1
:1022AC0003000392FFF776FF00213046FEF7C6FBD2
:1022BC000520FEF7C7FCFF20FEF7C4FC01210290AD
:1022CC003046FEF7BBFB029B039A13F0010F09D1BA
:1022DC004444B5EB0805019BA4B28DD1084607B068
:1022EC00BDE8F08FDBF830349B1A142BD1D90020C9
:1022FC00F5E700BF40420F00400100202DE9F341FB
:10230C00174B0027009301230646ADF804308DF8D7
:10231C00067002ABDFF84C800C4613E9030015463F
:10232C00FFF738FF3946D8F8DC05FEF787FB0320AA
:10233C00FEF788FC3846FEF785FCF0B2FEF782FC0F
:10234C002544FF20FEF77EFC04F8010BAC42F8D1CB
:10235C000121D8F8DC0502B0BDE8F041FEF76EBBF8
:10236C0040420F004001002070B504460E22014689
:10237C000020FFF7C3FF22680D4B9A4216D1237938
:10238C00012B13D163793F2B10D8E379032B0DD894
:10239C000023A6890E21237363732046FDF7B0FE3C
:1023AC00B5B22B1A5842A681584170BD0020FCE7EB
:1023BC0057494E31F7B5154B0027009340F20133C6
:1023CC0005460C46ADF80430114E02AB8DF8067084
:1023DC0013E90300FFF7DEFE3946D6F8E005FEF7F9
:1023EC002DFB7D20FEF72EFC2846FEF72BFC7E20D5
:1023FC00FEF728FC2046FEF725FC0121D6F8E00567
:10240C0003B0BDE8F040FEF719BB00BF40420F001F
:10241C004001002073B5154B0026009340F20133A8
:10242C000446ADF80430124D02AB8DF8066013E98A
:10243C000300FFF7AFFE3146D5F8E005FEF7FEFAD4
:10244C007D20FEF7FFFB2046FEF7FCFB7F20FEF70E
:10245C00F9FB7F20FEF7F6FB04460121D5F8E005D9
:10246C00FEF7ECFA204602B070BD00BF40420F00F0
:10247C004001002008B50020FFF7CCFFBDE8084064
:10248C0000F0FE01002095E710B50446014621201E
:10249C00FFF790FF21462720FFF78CFF1CB1214648
:1024AC002620FFF787FFBDE81040E3E72DE9F04F4A
:1024BC00D0F854A0044689B0894650468749CDE9E6
:1024CC000023FEF733F9A26D85498046104603922E
:1024DC00FEF72CF9E36D8349064618460293FEF786
:1024EC0025F9D4F860B005467F495846FEF71EF929
:1024FC00DDE902320746B8F1000F03D1002009B024
:10250C00BDE8F08F013201D0002EF7D0013301D09D
:10251C00002DF3D0BBF1FF3F01D0002FEED03146A0
:10252C004046FEF71AF92946FEF717F93946FEF729
:10253C0014F9804620600028E0D06C4B98427ED184
:10254C0003F55843DA6842F48042DA60DA6822F420
:10255C008042DA609A6942F480429A619B69002257
:10256C0003F480430793079B252350465B4984F86B
:10257C00652084F86430FFF77DFC1EB15849A06DCE
:10258C00FFF778FC2DB15749E06DFFF773FC4FF462
:10259C0080752FB15449206E45F40075FFF76AFC25
:1025AC0094F86520524B271D03EB8203C3F8347457
:1025BC00009B0022E360129B01212361019BC4E973
:1025CC00018963610C2394F96400C4E90635226225
:1025DC00FDF7A6FE94F84530002E63D10BB984F8B4
:1025EC004460242384F84530D8F80C30384623F462
:1025FC000053C8F80C30FDF7E3FED8F8103023F484
:10260C009043C8F81030D8F8143023F02203C8F8DF
:10261C001430D8F8143043F00803C8F81430D8F844
:10262C000C30202243F40053C8F80C300023012056
:10263C00A36484F8452084F84620A3635FE72D4B00
:10264C00984215D103F5E6331A6942F400321A6147
:10265C001A6922F400321A61DA6942F40032DA6142
:10266C00DB69012203F400330693069B26237CE7E7
:10267C00214B98427FF442AF03F5E4331A6942F4DC
:10268C0080221A611A6922F480221A61DA6942F4F2
:10269C008022DA61DB69022203F480230593059B17
:1026AC00272362E703F0FF020BB984F844202423AC
:1026BC0084F84530D8F80C30384623F40053C8F869
:1026CC000C30FDF77DFED8F8103023F49043C8F899
:1026DC001030D8F8143023F02A039EE77058000805
:1026EC00AC580008E858000824590008003801408C
:1026FC00400100200044004000480040062373B510
:10270C0004681A4984F81231002304F19406C4F8C1
:10271C00141105461A4630460093FFF7C7FE84F89D
:10272C001001E0B12046FEF7ECF83046FEF7A4F8B5
:10273C00A8B90F4B94F9F800C4F8E030FDF7DEFDB2
:10274C0094F8F9200B4B04F1FA0103EB8203D3F854
:10275C003404FEF7ADFB94F9F800FDF7C1FD00233E
:10276C006B602B726B8502B070BD00BF90D0030004
:10277C007B0F000840010020826810B50AB902F0F6
:10278C006FFFC368BDE8104018470B4B5A690242F3
:10279C0011D058610023012803F1010208D1142241
:1027AC000648DBB202FB0300C36804301BB1E3E74D
:1027BC0013464008EFE77047000401402C07002047
:1027CC00037F013B072B14D8DFE803F00411130D32
:1027DC001313130F012350F8040C063300EB0310F2
:1027EC00836833B1C8E70323F5E70423F3E7022337
:1027FC00F1E77047036870B5DD681E690446B207DF
:10280C000BD5A90709D56FF002021A6101220277D4
:10281C009B69FFF7D5FF0023237772070DD56B0754
:10282C000BD56FF00402236820461A61022222772E
:10283C009B69FFF7C5FF0023237730070DD52907C8
:10284C000BD56FF00802236820461A610422227708
:10285C00DB69FFF7B5FF00232377F2060DD5EB06F6
:10286C000BD56FF01002236820461A6108222277DC
:10287C00DB69FFF7A5FF00232377F0070CD5E907E9
:10288C000AD56FF00102236854F8040C1A61836EA8
:10289C0013B16030FFF770FF320605D52B0642BF2F
:1028AC006FF0800223681A61700605D5690642BF75
:1028BC006FF0400223681A61B20605D5AB0642BF21
:1028CC006FF0200223681A6170BD037C4BB1054B7D
:1028DC00B0F80621D3F83034B0F80A319BB29A42E2
:1028EC00FAD17047400100202DE9F84FC3B2242BD8
:1028FC000D461AD8554A02EB83039B6800F4E0643A
:10290C001C43661C00F09F80514FC4F303134FEA25
:10291C00830907EB8303D3F82C3704F00F0823FA51
:10292C0008F3D80723D54B4B14E000F0C002C02AA3
:10293C0040F08980C92B00F28680444B00F03F02A6
:10294C0003EB8202D2F89C2003EB8203D5E794427E
:10295C003DD00C331A68511CF9D10122B944D9F875
:10296C002C3702FA08F223EA0203C9F82C37022D9D
:10297C0027D0032D27D0012D27D000212046BDE8DC
:10298C00F84FFFF79EB9B2F1804F06D102F5043231
:10299C00D36923F00103D36143E02F4B9A4204D156
:1029AC002E4AD36923F00203F5E72D4B9A4238D116
:1029BC002A4AD36923F00403EDE7304602F0FCFD0C
:1029CC00CBE71021DAE72021D8E72946D6E72046C5
:1029DC002049FDF7ABFEFDF75BFD07EB8006D6F853
:1029EC00E8347BB9B02002F0DFFD1A49824620465C
:1029FC00FDF79CFE01465046FEF7DEFAD6F8E834A9
:102A0C00C3F800A01E68002EA7D032691046FDF74F
:102A1C003FFD144B9A42B6D1104A936923F40063DC
:102A2C009361002307EB8000C0F8E834F36006F1F3
:102A3C00B00A06F1600BD345BFD0AAF1100A50467C
:102A4C00FEF776FBF7E7BDE8F88F00BF8C56000861
:102A5C0040010020605900080004004000100240B2
:102A6C0000080040002C014070B500240A4D0B4EAC
:102A7C0096F8D83555F8040B5BB1B6F84A14E1401A
:102A8C0001F0010102310134FFF72EFF032CEFD1CD
:102A9C0070BD0221F7E700BFA457000840010020D9
:102AAC002DE9F04FC3B2242B0446884685B00BD8D1
:102ABC00B14A02EB83039B6804F4E0651D43681C78
:102ACC0000F05C82AD4B15E000F0C002C02A40F073
:102ADC005582C92B00F25282A74B00F03F0203EB48
:102AEC008202D2F89C2003EB8203E4E7954200F0CB
:102AFC00F1810C331A68511CF8D101212046FFF7E3
:102B0C00F3FE9F4B08224046996CFDF784FF7F280B
:102B1C0040F2D9810121D7E1FEE75A6B94F84C10B1
:102B2C00012930D00121082F84F84C1061D000F21B
:102B3C008680196A186A002F3AD120F001001862B9
:102B4C00D3F804E0DFF83CB298695B4520F07300E1
:102B5C0040F0600012BF21F0020121F00E012EF4B2
:102B6C00407EC3F804E098615A6319629A6942F096
:102B7C0008029A619A6922F004029A619A699A6130
:102B8C00002384F84C3004232846ACF802307B49EF
:102B9C00FDF7D8FDC0F3C430431E032B70D8B6EB41
:102BAC00800F6ED0FEE70C2E0CBFDA6B1A6CB5E7FB
:102BBC0020F010001862D3F804E0DFF8C8B198696F
:102BCC005B4520F4E64040F4C04012BF21F02001E8
:102BDC0021F0E0012EF4406EC3F804E098619A6392
:102BEC0019629A6942F400629A619A6922F48062CD
:102BFC00C3E7196A186ADFF88CB120F48070186288
:102C0C00D3F804E0D8695B4520F0730040F0600015
:102C1C0012BF21F4007121F460612EF4405EC3F800
:102C2C0004E0D861DA631962DA6942F00802DA6109
:102C3C00DA6922F00402DA61DA69DA61A0E7186A6B
:102C4C00196ADFF840B121F480511962D3F804E01D
:102C5C00D9695B4521F4E64141F4C04120F40050B0
:102C6C0008BF2EF4804EC3F804E0D9611A641862D0
:102C7C00DA6942F40062DA61DA6922F48062DAE736
:102C8C00FEE728463D49FFF7F5F828463B49FDF796
:102C9C0059FD10F4801F0CBF0122102214F80A30C9
:102CAC00134304F80A302046FDF70CFC039B2669FD
:102CBC00B0FBF3F0020C531C984228BFB0FBF3F0AE
:102CCC00B26228BF00F1FF3ADDE90121404638BF6E
:102CDC004FF0000AFDF79FFEC6F82CA005463146C2
:102CEC002046C4F81CA0FDF7A3FBB36A03F101084E
:102CFC009DF80430822B5DD053D8102B46D8002B76
:102D0C005DD14FF6FF72F36A934203D1B5F5803F64
:102D1C0008BF1D46002F5BD1756331462046FDF779
:102D2C0087FBB9F1040F00F0298127460025012209
:102D3C00DFF8548004F1020A08F104093AF8023F62
:102D4C00002B5AD004F1780252F825B0BBF1000FD9
:102D5C0006D099F80010CA433261F2680A43F26057
:102D6C00013B0A2B48D8DFE803F03C3C3C3C3C3CA4
:102D7C003CA8A8A86E0000BF8C560008605900083B
:102D8C0000000020002C0140645B0008812BB8D1AE
:102D9C00FDF798FB7B4BB0FBF3F06843B0FBF8F509
:102DAC00AFE7832BADD1F36A03FB05536425B3FB6B
:102DBC00F5F5A6E7FDF786FB08FB05F8EEE7F26AEA
:102DCC0002FB055201259D40013DB2FBF5F598E74C
:102DDC00042F01D1B563A0E7082F0CBFF563356450
:102DEC009BE73B78DA0604D5294604F11000FEF780
:102DFC00C3FB3B78DB0720D400220435102D07F1F0
:102E0C00010708F1010809F1010997D1A36E33B14B
:102E1C006FF001033361F36843F00103F360002AA0
:102E2C0000F0AC803368D90700F1A88004F11000E1
:102E3C0005B0BDE8F04FFEF7A3BC294604F1100025
:102E4C00FEF74CFCD8E7294604F11000FEF7E6FB30
:102E5C0098F80020013AA15C11F0100306D0022A68
:102E6C0029D8494B03EB4203B3F8E034C80707D524
:102E7C00032A20D8DFE802F00216191C43F00103E4
:102E8C00316A0B433362BBF1000FB5D0032A13D860
:102E9C003D4B134493F8DC24D3433361F368134361
:102EAC00F360A9E743F01003EAE743F48073E7E724
:102EBC0043F48053E4E7FEE7FEE7294604F11000F3
:102ECC00FEF7ACFB98E70021204605B0BDE8F04FBB
:102EDC00FDF7B4BD2D4FC5F3031307EB8303D3F8F4
:102EEC002C0705F00F0120FA01F2D20704D40122BD
:102EFC008A400243C3F82C27254B28469A6C254957
:102F0C000292DA6C1B6D01920393FDF70FFCFDF737
:102F1C00BFFA07EB8007D7F8E84474B9B02002F089
:102F2C0043FB1C4906462846FDF700FC014630468B
:102F3C00FEF742F8D7F8E844266028461549FDF715
:102F4C0001FCC0F3C43606F1FF3ABAF1030F3FF6A9
:102F5C00E3AD246804EB460CBCF80290B600B9F162
:102F6C00040FA6F104073FF49EAE042E23693FF430
:102F7C00D4AD082E7FF417AE9A6BCFE505B0BDE843
:102F8C00F08F00BF40420F008C560008400100201B
:102F9C000000002060590008F8B50F4D044605EB01
:102FAC0080050021D5F8E804FFF77AFD00210B4ECF
:102FBC00D5F8F004670106EB4414E180FDF73EFD03
:102FCC00D5F8F804FDF73AFD237AF15523F0030305
:102FDC0023722177F8BD00BF8C560008000000203A
:102FEC0008B50020FFF7D8FFBDE808400120D3E763
:102FFC0070B50B4C06460D46FFF7F2FF94F8D93529
:10300C000BB9FEF743FC074B84F8405783F8546028
:10301C00052384F84137002384F8423770BD00BF84
:10302C00400100200000002008B5FFF7D9FF0D4A31
:10303C0092F8D8359BB992F8D935B3FA83F35B097A
:10304C00094981F8543000218B4214BF0523012318
:10305C0082F8401782F8413782F8421708BD0023E6
:10306C00EEE700BF40010020000000202DE9F04FEA
:10307C00BA4C87B00393D4F830340D2805460F466C
:10308C009046C4F844371FD194F8D925002A40F053
:10309C00A680B4F8073084F806800133A4F8073012
:1030AC00FDF732FE94F848372BB194F8E83513B19C
:1030BC00A079FFF7E9F994F84927A379134084F82C
:1030CC00493707B0BDE8F08F021F082A00F287804D
:1030DC00DFE802F005711385858585852100FFF7F2
:1030EC007FFF94F8D9350BB9FEF7D0FB002384F899
:1030FC004237022384F84137E3E7FFF795FF94F852
:10310C00D935002BDDD142463946062007B0BDE843
:10311C00F04FFEF78EBBFFF763FF00236FF017062F
:10312C000325C4F81930C4F81D30B4F807306674A0
:10313C000133A5746675A575E6742575E675257657
:10314C00A4F80730FDF7E0FD94F8D995B9F1000F1C
:10315C001FD14B461C2094F847C4DAB2944518D9B9
:10316C0000FB0342B2F8801582F88A65013182F8BF
:10317C008B5582F88E6582F88F5582F88C6582F8B3
:10318C008D5582F8906582F89155A2F8801501331F
:10319C00E3E7FDF714F8002384F84237022384F8A0
:1031AC004137B9F1000F8CD1039B002B89D14246DA
:1031BC0039460C20AAE703F57A73C4F84C3794F817
:1031CC004137012B04BF022384F8413794F8D935D9
:1031DC00002B7FF476AF42463946052096E7D4F8AB
:1031EC004C27D21A002A02DCFE077FF56AAF5C4B33
:1031FC0093F85430002B7FF464AF94F8D93523B98D
:10320C0094F8D835002B3FF45CAF2846FCF7C8FF88
:10321C00064600283FF455AF94F84237AB4205D12F
:10322C0094F84137033B012B7FF64BAFA5F1070B0D
:10323C005FFA8BF3012B00938CBF032304234FF015
:10324C00000A1A1F84F8413753425341711E84F807
:10325C0051374B424B41B01EDFF808B10593434246
:10326C00434104930BF1080384F8425784F85057F8
:10327C0002933B4C0BF11003384A0193009B5FFA0D
:10328C008AF0012B67D90AF10801012E02EB4101EA
:10329C000CBFB1F80190B1F80590FFF77DFE1E2030
:1032AC00FDF762FC029B059953F8040B0293FDF7A2
:1032BC00C5FB019B049953F8040B0193FDF7BEFB6E
:1032CC00264A4FF00103D2F830142670E160002139
:1032DC00C4E90411A1616177052121720AF10C0185
:1032EC00237702EB4101B1F8010020B1B1F80510D0
:1032FC0009B145212172012E08BF217A04F1200465
:10330C0004BF41F0020104F8181CB9F57A7F28BFFC
:10331C004FF47A794FF47A71C9EB8920B0FBF1F153
:10332C005BF8040BFFF7BCFB0AF10101022924F83E
:10333C001A9C4FF0010A094AA0D192F8D935002BFA
:10334C007FF4BFAE039B002B7FF4BBAE42462846F6
:10335C0047EA0A01DAE64FF47A799EE74001002049
:10336C0000000020745B0008034BD3F8E80410B194
:10337C000430FFF73FBA704740010020FFF7F4BF5D
:10338C00034BD3F8EC0410B10430FFF733BA704799
:10339C0040010020034BD3F8F00410B10430FFF7C8
:1033AC0029BA704740010020034BD3F8F40410B144
:1033BC000430FFF71FBA70474001002002F0FCB840
:1033CC0002F0FAB8034AD2F830340133C2F8303480
:1033DC00704700BF400100200120FFF7D6B9022042
:1033EC00FFF7D3B90420FFF7D0B90820FFF7CDB908
:1033FC001020FFF7CAB908B52020FFF7C6F9402006
:10340C00FFF7C3F98020FFF7C0F94FF48070FFF786
:10341C00BCF9BDE808404FF40070FFF7B6B938B5F9
:10342C0006244FF48065A8B2FFF7AFF9013C4FEAD0
:10343C004505F8D138BD0F4B1A6842F001021A60ED
:10344C0059680D4A0A405A601A6822F0847222F4B4
:10345C0080321A601A6822F480221A605A6822F4A8
:10346C00FE025A604FF41F029A604FF00062034B49
:10347C009A607047001002400000FFF800ED00E079
:10348C002022044BC3F88421034BD3F83404FDF7FA
:10349C00ACBE00BF00E100E0400100204022054B23
:1034AC00C3F88421044BD3F8380408B1FDF79DBE52
:1034BC00704700BF00E100E0400100208022054B76
:1034CC00C3F88421044BD3F83C0408B1FDF78DBE3E
:1034DC00704700BF00E100E04001002003460A49AC
:1034EC0010B5886D0344EFF30882934205D90C2282
:1034FC004FF0FF30054B1A6010BD054A054C121BEE
:10350C009342F4D28B65F7E700000020A80D002051
:10351C0000500020000400004FF0FF3070474FF4C3
:10352C00005300204B60704701207047002070470B
:10353C0000207047FEE71622024B4FF0FF301A6056
:10354C00704700BFA80D0020012070472DE9F74FF0
:10355C000E461746002867D0441E012C00F29F80AF
:10356C00DFF84481514C98F8D530D4F83054022B04
:10357C003AD898F8D53004EB8303D3F8343493F865
:10358C00612004EB8202D2F8341491F8412091F8B6
:10359C004200024302F02102212A59D093F8412023
:1035AC00202A41D1002E3FD0BAB2002A3CD00025AF
:1035BC0021215D6483F84110D4F830049A84DA84B4
:1035CC009A68B2F5805F03D11A690AB93546164676
:1035DC001968DA8C92B2002A48D10A68520656D57C
:1035EC00202283F841201FE002203149FDF79EF88C
:1035FC00D0B14FF0000904F2344AB9F1030F88F846
:10360C00D59015D102202A49FDF790F860B102231C
:10361C00C8F8C43000234FF416511A4625480093BD
:10362C00FEF744FF0028A4D1384603B0BDE8F08F64
:10363C005AF804BBBBF1000F07D002201C49FDF760
:10364C0075F8DBF80030834293D009F10109D4E717
:10365C00D4F83024521BB2F57A7F96D3E4E7D4F831
:10366C003024121AB2F57A7FBAD8CA680A681206E0
:10367C00F5D54EB935F8022BC2F308024A60DA8C44
:10368C00013A92B2DA84A4E716F8012BF6E7D4F8E3
:10369C003024121AB2F57A7FA2D8CA689DE7036863
:1036AC005B689847C0E700BF000000204001002085
:1036BC00705800087000002010B5054C237833B901
:1036CC00044B13B10448AFF300800123237010BDE9
:1036DC00540C0020000000007456000808B5034B81
:1036EC001BB103490348AFF3008008BD0000000084
:1036FC00580C0020745600080023C0E90033C0E9C0
:10370C00023370474FF47A7210B50F4C0146236C9C
:10371C00B3FBF2F3013BB3F1807F13D24FF0E02007
:10372C00F0224361094B0F2983F823204FF000024C
:10373C004FF007038261036104D84FF0FF30FCF7B0
:10374C00EFFD616410BD00BF0000002000ED00E043
:10375C0038B5002504460160057145718571C57148
:10376C00057220222946093001F0DBFD658538BD44
:10377C001FB5924B9249DA68924C22F4E062120423
:10378C00120C0A43DA60E269002042F08052E261D6
:10379C00E26902F080520392039AA26942F001029C
:1037AC00A261A26902F001020292029A626942F0DD
:1037BC0040026261626902F040020192019AD3F800
:1037CC00FC20D2015EBFD3F8FC2042F08072C3F81B
:1037DC00FC207D4B58601A6842F001021A6000BF51
:1037EC0000BF00BF794A5B68136843F01003136095
:1037FC00724AD36823F4E0631B041B0C0B43D360A5
:10380C00FFF780FF636813F00C0F07D0636803F0B9
:10381C000C03082B3AD16368DB0337D42368236885
:10382C0023F0F80343F080032360636803F00C0378
:10383C00082B46D00022664B1A66664AD2F8301422
:10384C0023689B0131D40121636823F4741343F47E
:10385C00601363605E4B1966D2F8301423689801CC
:10386C0029D55A4A136813F0060F33D0636843F412
:10387C00E0636360636843F460536360636823F0E0
:10388C00F00363602368980130D4FEE70122504BAB
:10389C001A60504AD2F8301423689807BFD4D2F873
:1038AC0030345B1A022BF7D9FEE7D2F830345B1AAE
:1038BC00022BC5D9F8E7D2F830345B1A022BCDD9DC
:1038CC00F2E76368DA03EFD403F47013B3F5601F07
:1038DC00C7D0E9E7136823F0070343F00203136032
:1038EC00136803F00703022BCFD1BFE741F28830F6
:1038FC006368384A23F0030343F002036360D2F891
:10390C003014636803F00C03082B2ED12F4A136874
:10391C0003F00703022B2ED863682F4A23F4E063CD
:10392C0043F480636360636823F46053636061688D
:10393C0001F00C03082B2BD0284B6168284CC1F3E9
:10394C0003110A4492F81225606CD3402364FFF7EC
:10395C00D9FE94F8613003F0FF020BB984F86020B3
:10396C00012384F8613004B010BDD2F830345B1AF6
:10397C008342C6D989E7136823F0070343F0020397
:10398C001360136803F00703022B7FF47EAFC3E7C9
:10399C00C1F383431344C90393F800350AD5616816
:1039AC000E48C1F340414343114491F81015B3FB49
:1039BC00F1F3C2E70B494B43BFE700BF00ED00E05A
:1039CC000003FA0500100240001000E00020024045
:1039DC0000004242400100208C56000800127A0080
:1039EC000000002000093D002DE98048A9B0AFF38C
:1039FC0000804FF0E022E54CDFF894B3D4F83004AB
:103A0C0093692B260A93D4F83054916985424FF46C
:103A1C007A700B91516914BF0B9A0A9A01318A1A68
:103A2C004243B2FBF1F200FB0525FCF79BFB85EA58
:103A3C00000384F85237FCF795FB0221C4F8D40537
:103A4C001220FEF751FF02210720FEF74DFF022046
:103A5C00FDF78AF81220FDF727F801460720FDF73D
:103A6C0023F80C23CBE919330A23CBE9123344F6A0
:103A7C00206380F0010081F0010141EA400184F8EB
:103A8C00D91508200121CBF85030FEF72DFF01216C
:103A9C001E20FEF729FF01211F20FEF725FF022122
:103AAC001520FEF721FF0020FFF776FA01210920EF
:103ABC00FEF71AFF01211320FEF716FF0121142037
:103ACC00FEF712FF02211C20FEF70EFF0120FFF76C
:103ADC0063FAB04DA5F13007FCF796FB15F8013BE6
:103AEC00013E07F8013BF7D12268AB4BAB4D9A4234
:103AFC000DF1700900F0068212220021A84801F095
:103B0C0010FC43222270462262704722A27031229E
:103B1C00E270022222710122E27162710722A2710B
:103B2C000322A274A275227522766FF0230284F808
:103B3C002120052284F822206FF0050284F823202E
:103B4C006FF0370284F825206FF0500200236FF0DD
:103B5C0017014FF0400C1F27642084F826204A469A
:103B6C002372A373237484F8243084F8273084F8E8
:103B7C0009C0A77260736174617584F80BC02773F8
:103B8C00E073E174E17584F82830804B17461868AF
:103B9C005968083303C7AB423A46F7D119889B786A
:103BAC0048463980BB702B21FCF7AAFAA4F82900EF
:103BBC0094F8D955002D40F0778202211D20FEF794
:103BCC0093FE0121D4F8DC05FEF78EFE0121D4F81A
:103BDC00DC05FCF733FF73480A462B46A4F8C014E7
:103BEC002946C4F8BC0484F8A15484F8C254FEF7E6
:103BFC004DF96D48FEF7B8FB122284F8D8056B49D5
:103C0C004020FEF77BFBD4F85327694B9A4240F0D7
:103C1C009B8194F85D37012B40F09681122163480B
:103C2C00B4F85B7784F85B5784F85C57FCF768FA58
:103C3C001FFA87F88045A4F85B7740F0858194F8EB
:103C4C005E37003B18BF012384F86537FEF70CFF85
:103C5C000121D4F8E00594F80680FEF745FE012119
:103C6C00D4F8E005FCF7EAFED4F8E405FEF73CFED8
:103C7C00D4F8E45501212846FCF7E0FE0220FCF7BD
:103C8C0073FF0127284600250021FCF7D7FE1420DE
:103C9C00FCF76AFF43483A462B462946C4F8BC0455
:103CAC0084F8A154A4F8C07484F8C254FEF7EEF85A
:103CBC00404B8DF876501C9340F20133ADF87430C4
:103CCC0099E80300FEF766FA2946D4F8E005FCF7FC
:103CDC00B5FE7A20FCF7B6FF7A20FCF7B3FF394625
:103CEC00D4F8E005FCF7AAFEFD20FEF793FB502864
:103CFC000CBF3B462B4684F8E83503D14046FEF713
:103D0C00C3FB3D460023227A8DF88B30E3794FF0CC
:103D1C001C0C43EA0223ADF8703094F8222094F87E
:103D2C00213084F8485743EA0223ADF8823094F8E6
:103D3C00242094F82330204F43EA0223ADF884303A
:103D4C00D4F82530A27ACDF88630B4F84A340DF187
:103D5C00880E03F007038DF88A30637A43EA022356
:103D6C00ADF87230A27B637B43EA0223ADF8763068
:103D7C00A27C637C43EA0223ADF87A30A27D637D9A
:103D8C0043EA0223ADF87E30227B17E0400100208D
:103D9C0000000020700100204346473168010020DC
:103DAC005901002000093D008005002093080020E7
:103DBC005057523140420F00C0060020E37A43EACC
:103DCC000223ADF87430227CE37B43EA0223ADF886
:103DDC007830227DE37C43EA0223ADF87C30227EEE
:103DEC00E37D43EA0223ADF880304D460CFB0673AD
:103DFC002A4603CA724518605960154603F1080338
:103E0C00F6D110680136032E1860EED1AC48FEF7DF
:103E1C0075FCAC48FEF772FCAB48FEF76FFCAB4B85
:103E2C009A6942F005029A61DA6942F00072DA612D
:103E3C00A3F584335A6822F47F225A605A6842F4FC
:103E4C0038225A60DA6842F40062DA60A04A536899
:103E5C0023F4C043536045229E4B1A60D4F83014AF
:103E6C009D4AD2F80434DB0774D5FCF789FA9B49D8
:103E7C00B0FBF1F2531EB3F5806F70D24A439042FF
:103E8C006DD143F47012934BDA61D3F8002242F0F7
:103E9C000102C3F80022D3F81C2222F00102C3F85D
:103EAC001C22D3F8042222F00102C3F80422D3F816
:103EBC000C2242F00102C3F80C22D3F8142222F097
:103ECC000102C3F814220022C3F84022C3F8442292
:103EDC00D3F81C2242F00102C3F81C22D3F80022B2
:103EEC0022F00102C3F800221A6822F001021A60C3
:103EFC00D4F83014784AD2F80434DF0700F1C180CA
:103F0C0001232DE02379022B7FF4F6AD4B46B4F858
:103F1C002980A5F128021F4610685168083203C792
:103F2C00AA423B46F7D100232988AA784846398013
:103F3C00BA702B218DF899308DF89A30FCF7E0F897
:103F4C0080457FF4D9AD33E612220021644801F09C
:103F5C00E8F97BE6D4F830345B1A132B81D90023B3
:103F6C0084F86637FFF760F894F8D815002940F00C
:103F7C008F800120FFF73CF8544A536A43F0010349
:103F8C005362524B5B6A9E07FBD54CF6CC42554BA9
:103F9C001A60012284F8672745F255521A600322F1
:103FAC005A6040F6A5629A60DA689507FCD14AF629
:103FBC00AA221A6094F86737D4F830A41BB14AF6D9
:103FCC00AA22484B1A6094F8D935002B40F08E8009
:103FDC0094F86837002B50D10121CDE91E3394F8A9
:103FEC005F57ADF88030D4F830340D44039384F827
:103FFC00681794F841A794F842879BF8547094F88A
:10400C004067FEF7EDFFFDF741FC01210420FCF7B2
:10401C0015FD354B12211C93039B48461D9340F212
:10402C000113EDB2ADF87A308DF87C508DF87DA08F
:10403C008DF87E808DF87F708DF88060FCF760F8CD
:10404C001222ADF8780049464020FEF7CBF880B13B
:10405C004D46234B20AE2A4603CAB2421860596023
:10406C00154603F10803F6D112881A80012384F84F
:10407C00653700210920FEF7BBFF0120FCF774FD1A
:10408C0098E7D4F830345B1A132B7FF634AF66E71D
:10409C0094F8481700297FF46FAF94F84634002B3E
:1040AC003FF46AAF0D2065E70548FEF727FB0123B7
:1040BC0084F8D835FEF7D8FCFEF7B6FF5CE700BFF6
:1040CC003C060020680600209406002000100240E8
:1040DC000000014000640040006000404054890032
:1040EC0093080020003000405057523100252E46D6
:1040FC002F4620220021484601F013F98DF8255057
:10410C008DF844500DF125030093A2484B4611AA9B
:10411C0013A98DF870708DF87160ADF87250FDF7C1
:10412C000FFC9DF870709DF87160BDF8725088BBE3
:10413C00D4F86C37AAEB0303092B40F20182964B9F
:10414C00C4F86CA70593954BCDE90330059A52F84A
:10415C00043B0592DAB2092A00F2B180904800EBD8
:10416C008201D1F89C1003F4E0660E43C9B22429F5
:10417C0040F2B38006F0C000C02802D1C92940F239
:10418C00D580CA2B00F0F480CB2B40F01E8441F27A
:10419C000206ABE09DF84C30062B06D10022012321
:1041AC0011460420FEF762FFACE7022B08D19DF804
:1041BC002530062BA6D101232A4631463846F1E795
:1041CC00042B9FD19DF825301C2B9BD1CE460DF195
:1041DC00540CBEE80F00ACE80F009EE807008CE81A
:1041EC0007009DF88A20BDF87030BDF88200BDF83C
:1041FC00841002F00702A4F84A24DDF886800593A7
:10420C0004900391FEF730FC059B0498A4F807304A
:10421C00DDF856300399C4F80930DDF85A30A4F8AB
:10422C002100C4F80D30BDF85E30A4F82310B3F5AE
:10423C007A7F28BF4FF47A73B3F5167F38BF4FF4EB
:10424C001673A4F81130BDF86230C4F82580B3F5AC
:10425C007A7F28BF4FF47A73B3F5167F38BF4FF4CB
:10426C001673A4F81530BDF86030B3F57A7F28BF0B
:10427C004FF47A73B3F5167F38BF4FF41673A4F866
:10428C001330BDF86430B3F57A7F28BF4FF47A73DE
:10429C00B3F5167F38BF4FF41673A4F81730FCF73C
:1042AC0033FD022300933F4B05219DF8442003F27C
:1042BC00F540FDF787FA25E71023049346E703F052
:1042CC00C001C0297FF45DAFC92A3FF65AAF34480C
:1042DC0003F03F0100EB810143E700EB81029268A0
:1042EC0006F4E0661643701C3FF44BAFDBF8683005
:1042FC00302200214846069301F013F80023CDE943
:10430C0015331793ADF8263016F48053079332D03B
:10431C0041F202039E422ED8234A1C9241F2010222
:10432C00964245D09E4200F0B680FEE71C4906F04E
:10433C003F0601EB8606D6F89C00092A01EB8000AB
:10434C00866807D801EB8202D2F89C201A4302F44B
:10435C00E062C7E703F0C002C02A06D103F03F02B7
:10436C0001EB8201D1F89C20F0E74FF4E062B9E751
:10437C0041F20106BAE70D493046FCF7D7F90B4973
:10438C001C903046FCF7DEF9C0F3C437112F40F215
:10439C008480FEE73C060020B05B00080000002093
:1043AC008C5600084701002000240140B85B00082F
:1043BC0010274FF007081C9D002D00F08980012369
:1043CC0020934FF46023239300232693269BCBF852
:1043DC006C609BB92793704B9D4261D16F4A936976
:1043EC0043F400739361936903F400730D930D9B75
:1043FC00079B1BB930466A49FDF73CFD4846FBF765
:10440C0049FF269B13F0100F269B40F0A981002832
:10441C0040F0A68123F4885323F0020343F00203F7
:10442C0026936B6823F469436B60AA685D4B134059
:10443C0043F46023AB60EB6A23F47003EB62AA686D
:10444C00594B1340B3F5602F38D12790269B092F79
:10445C0023F0030343F0010326934FF001030E9066
:10446C008DF89430CDE916386B6B4FF0070223F0C2
:10447C001F0343EA07036B63159707EB470300F22F
:10448C009B8029699A4021EA020208FA03F842EA61
:10449C0008022A619EE011278BE74FF002088AE799
:1044AC00424B9D42A4D13D4A936943F4806393618E
:1044BC00936903F480630C930C9B99E7269B23F080
:1044CC00120343F010032693279B43F00103279319
:1044DC000020DBF864200699FCF79DFA142380B2C7
:1044EC0058434FF6FF73984228BF1846039B82B27D
:1044FC005A809B8823B1C3EBC3030344C3F3CF029D
:10450C00039B9A8020330393049B002B3FF4D4AE7F
:10451C0094F8D955002D40F0B182FCF701FB94F8CA
:10452C00D825034684F87007002A40F0508203F027
:10453C000302032A40F09C8200210820FEF758FD5C
:10454C00D4F8C037AAEB0303042B40F2AD8300264A
:10455C00174DC4F8C0A72B7F002B00F0E682154B3B
:10456C00F7B253F82600FCF79FFA01282B7A06F1D4
:10457C00010140F0888243F004022A72321D04EBE0
:10458C004200B5F804C0B0F801006045C0F092825A
:10459C000020286194E200BF00240140001002407A
:1045AC00B85B0008FDF7E1FFFE0E1FFF002801407D
:1045BC0000000020B45C0008E9681E3B9A4021EA28
:1045CC00020208FA03F31343EB60A7F11003012B6B
:1045DC0040F2988000230F93012348468DF89430C5
:1045EC00FBF758FE4846FBF71BFE00287FF470AF24
:1045FC00269BDBF8406023F4885323F0020343F03E
:10460C0002032693FBF7CCFE854B5B68C3F3813327
:10461C0001335B00B0FBF3F0B6FBF0F040000F9001
:10462C000F9B002B40F08B80AB6843F00803AB6012
:10463C00D4F83024AB681F0700F18580AB6879494A
:10464C0043F00403AB60D4F83024AB685B0700F193
:10465C008B80269B484623F0030343F001032693EB
:10466C0001238DF89430FBF7DBFD00287FF430AF8D
:10467C00269B23F4407323F0010343F480732693A9
:10468C00694B9D4204D1694A536813F4702F76D15B
:10469C00269B23F4801326936B685F0541BF269BF2
:1046AC0023F4405343F480532693269B13F48053F6
:1046BC001CBF279B23F00603279300238DF894300F
:1046CC006FF002032B60AB6803F46023B3F5602F2B
:1046DC005BD1554B9D4205D1A3F580635B6813F408
:1046EC00702F52D1AB6843F4A003AB6000234D4A4A
:1046FC001093D2F83014AB68D8054AD5269B43F0FA
:10470C0020032FE0494B9D42F8D1AB681A023FF5CC
:10471C0061AFAB68102F43F40003AB607FF45AAF6A
:10472C00434ADBF84030B3FBF2F30A2253430E93B7
:10473C000E9B002B3FF44EAF0E9B013BF7E70F9BFC
:10474C00013B0F936CE7D4F830349B1A0A2B7FF69D
:10475C0071AFAB681B077FF56DAF269B23F012037F
:10476C0043F010032693B3E6D1F830349B1A0A2B8E
:10477C007FF66BAFAB6858077FF567AFEDE7269B0D
:10478C0043F480132693536887E7AB6843F4801394
:10479C00ABE76B68DB0503D4EB6A13F4700F4FD0F7
:1047AC00FBF7FEFD1E4B5B682A69C3F381330133B3
:1047BC005B00B0FBF3F01F4BB6FBF0F01A421E4B44
:1047CC0040F0D780EE681D4A164240F0D2802A692C
:1047DC001A4240F0DF80EA6803F16E431A420CBFC4
:1047EC001423292358430F4A109B98422BD9D2F8F3
:1047FC0030345B1A0A2B02D9109B98420BD8109BB1
:10480C0001331093F0E7D2F830345B1A0A2B17D926
:10481C002B689F0714D4269B43F00403A2E700BF28
:10482C0000100240400100200028014000240140FB
:10483C0040420F00244992249224491224499200A8
:10484C002B689E07DFD56FF012032B60269B43F479
:10485C0000732693AB6803F46023B3F5602F0AD181
:10486C00269B23F480732693269BD8045EBF269B3D
:10487C0043F001032693269B1CA8990542BFEB6CC1
:10488C009BB2ADF8263001238DF89430FBF702FD76
:10489C0000287FF41DAE269B8DF8940023F48853DA
:1048AC0023F0010343F001032693269B1CA843F03D
:1048BC0002032693FBF7EEFC00287FF409AE6FF0A1
:1048CC001F032B606A68734B13406B60AA68724BB2
:1048DC001340AB60EB6803F07F43EB602B6903F094
:1048EC0040432B616A696D4B1A406A61AA691A4090
:1048FC00AA61EA691A40EA612A6A1A402A626A6A5B
:10490C001A406A62AA6A1340AB62EB6A644A03F00B
:10491C007F43EB62EB6A03F07F43EB622B6B03F09C
:10492C0040432B636B6B03F040436B63AB6B1340E7
:10493C00AB63AB6B1340AB635A4B9D4230D103F569
:10494C006C43DA6842F40072DA60DA6822F40072BE
:10495C00DA609A6922F400729A610023514A279313
:10496C002693936823F400039360BDF8260080B26D
:10497C00AFE52A691A4203D1EA684B4B1A420BD0B5
:10498C002A694A4B1A4209D1EA681A420CBF5423CD
:10499C00FC2327E7292325E7542323E7FC2321E7DE
:1049AC00434B9D42D9D103F56843DA6842F48062E7
:1049BC00DA60DA6822F48062DA609A6922F4806242
:1049CC009A619A6922F48062C6E7002086E594F821
:1049DC004624022A7FF4ABAD94F847248AB1D4F86C
:1049EC003024D4F87417521AB2F5C87F9FBF94F8CC
:1049FC008627D20002F0380213439CBFDBB284F846
:104A0C00703703F00302032A03F018013FF494AD4E
:104A1C0018293FF491AD03F00902092A22D1012390
:104A2C0084F8BC3794F8483763B194F8E8352BB167
:104A3C000320FDF7EFFC0546FDF71CFDA3791D4097
:104A4C0084F8495794F849374BB194F84207FBF76F
:104A5C00A7FB022803D100210720FEF7C9FA002189
:104A6C0009206BE503F01203122B05D00323D7E7C3
:104A7C00DA07D4D49B07F9D50223D1E7FCF750F819
:104A8C0084F870075CE5062023F004032B72FEF714
:104A9C00AFFA4AE000003FFFF00601FF00F0FFFF15
:104AAC000000C0FF002401409224490049922400D8
:104ABC00002801402869002840F09B80C5F810A010
:104ACC0004EB4202B2F805E0E868F445AAEB0000FA
:104ADC0000F299806A690AB9C5F814A0B4F82120CB
:104AEC009042C0F0CF826A69002A00F09780B4F837
:104AFC0023C0AAEB02026245C0F090804FF6FF7211
:104B0C00824228BF0246297892B201297FD104EB58
:104B1C004601A1F8192043F00C032B72FBF74FFB55
:104B2C00012338466B77FEF737FA731C022B4FF0D4
:104B3C00010605F120057FF40EAD9BF81C30002B0F
:104B4C0040F082809BF83C70002F7DD19BF81D308B
:104B5C00002B79D09BF83D30002B75D094F8D935CB
:104B6C0043B91946C24A94F84764A2F10C05C8B27D
:104B7C00B04259D394F851E7BEF1000F7FD0002B0F
:104B8C007DD194F84227ADF87030072A15BFB4F8E0
:104B9C001D30B4F81930B749B74903B91CA9072A15
:104BAC000D8815BFB4F81F00B4F81B00B349B44905
:104BBC008542ADF8705028BF1CA90988002608460C
:104BCC0094F847C4AF4DADF870105FFA86F8C44541
:104BDC004BD9142707FB0658B8F89277B8F890878A
:104BEC000136474538BF4746B84238BF3846774646
:104BFC00EBE7AAEB00003B287FF662AF43F014030F
:104C0C0003202B7243E70022C5E9052266E702293F
:104C1C0004BF04EB4601A1F81D207CE7D4F8253035
:104C2C00984282D3052032E7D4F8300455F804CBEF
:104C3C00A0EB0C00B0F5C87F06D8507801310338D2
:104C4C00012802F1140292D894F84137033B012B4E
:104C5C002AD8D4F84437AAEB0303B3F5967F23D9AB
:104C6C0000210220FEF7C4F91EE017B10146ADF891
:104C7C007000002940F00A810B20FEF7B9F90023DF
:104C8C009BF8542084F85137002ADDD194F8420760
:104C9C00FBF786FA012818BF0220022384F8BC0710
:104CAC0084F8422784F8413794F84107D4F8C43784
:104CBC00C11EC9B201298CBF4FF47A726422AAEBCF
:104CCC0003039342FFF476A994F8D955C4F8C4A70A
:104CDC00002D40F07A8194F8D835002B3FF46AA966
:104CEC0094F86637002B3FF465A92A462E464FF000
:104CFC00010A94F840379BF854C0039394F8473456
:104D0C00DFF884810493049B5FFA82FE9E45C0F019
:104D1C004481012794F852278DF846008DF84520E0
:104D2C0094F8422794F84504039B8DF8472094F897
:104D3C00BC2711A900F5C0708DF84A308DF844706D
:104D4C008DF848208DF849C08DF84B60FCF7FEFEBD
:104D5C000023ADF8503094F870378DF84C708DF806
:104D6C004D3094F849378DF84E3094F848376BB184
:104D7C0094F8E8351BB10A20FDF74CFB0546A379E6
:104D8C002B40003B18BF01239D0001232B438DF8C2
:104D9C004F30D4F8303494F84554B3F17A7F36BFA1
:104DAC004FF47A724FF6FF73B3FBF2F313A905F5C8
:104DBC000070ADF85230FCF7C9FEBBF80430A035DA
:104DCC00ADF85430BBF80630AD009B088DF8583068
:104DDC009BF8083028468DF85A30BBF8243015A9BA
:104DEC00ADF85630BBF8263000269B088DF85930AC
:104DFC009BF8283014278DF85B30FCF7A7FE0135A3
:104E0C0094F84734F0B283427FF6D4A804EB8002C6
:104E1C00D4F83034D2F874279B1AB3F5C87F25D850
:104E2C0007FB004393F8891793F88827284442EA34
:104E3C000122ADF8702093F88C278DF8742093F82C
:104E4C008E278DF8762093F88B1793F88A2742EAF1
:104E5C000122ADF8722093F88D2793F88F374946CD
:104E6C008DF875208DF87730FCF770FE0136C7E7AA
:104E7C00C00800205D010020590100205F010020C6
:104E8C005B01002040010020B40800204FF47A7030
:104E9C004343B3FBF1F39BB2834228BF0346B3F504
:104EAC00167F38BF4FF416734FF47A70072A15BF6C
:104EBC00A5F81530A5F81130B5F81F30B5F81B3032
:104ECC0014274343B3FBF1F39BB2834228BF034641
:104EDC00B3F5167F38BF4FF4167300204FF47A7E6B
:104EEC001C26072A0CBFA5F81330A5F81730C3B23F
:104EFC0063453ED207FB0053B3F8903706FB0058CE
:104F0C000EFB03F3B3FBF1F39BB2B3F57A7F28BF2F
:104F1C004FF47A73B3F5167F38BF4FF41673072A24
:104F2C0014BFA8F88E35A8F88A3507FB0053B3F8E0
:104F3C00923706FB00580EFB03F3B3FBF1F39BB265
:104F4C00B3F57A7F28BF4FF47A73B3F5167F38BF69
:104F5C004FF41673072A14BFA8F89035A8F88C35AF
:104F6C0006FB0058B8F8803501300133A8F88035BD
:104F7C00BDE7B5F8073000260133A5F80730FBF77D
:104F8C00C3FEFBF71CF995F84734F0B283427FF669
:104F9C0076AEFCF79BFC0136F5E7D4F8307458F884
:104FAC00043BFF1AB7F5C87F05D80AFA02F7374356
:104FBC00FEB20132A7E60129FBD84FEA4E030333B8
:104FCC00DBB24FF00A0C0393F3E700238DF8773034
:104FDC0094F842378DF871008DF872309BF854308C
:104FEC0094F850078DF8733094F840378DF8705062
:104FFC008DF8743094F8523703218DF8753094F88D
:10500C00703703F007038DF87630FBF7C9F8BBF85F
:10501C0004300228ADF87830BBF8063094F8C82775
:10502C004FEA93038DF87C309BF8083002F10102B3
:10503C008DF87E3014BFB4F81930B4F81D30022846
:10504C00ADF88030BBF82430D2B2ADF87A30BBF872
:10505C00263018484FEA93038DF87D309BF82830A2
:10506C0084F8C8278DF87F300CBFB4F81F30B4F823
:10507C001B30ADF88230142300934B46FCF7A2FB97
:10508C00FEF798BFB0F52F7FFFF4C8ADF4453FF69F
:10509C00C5ADAA6912B95246C5F818A0B4F8237068
:1050AC00AAEB0202BA42FFF4B9AD43F02403042088
:1050BC002B72ECE43C060020F8B5062707257C4C47
:1050CC00172604F5BE6084F8EC75FEF715FB04F2A8
:1050DC00046084F80056FEF70FFB082304F5C36048
:1050EC0084F81436FEF708FB092304F22C6084F8CC
:1050FC002836FEF701FB0A23282204F5C86084F841
:10510C003C36FEF7F9FA04F2546084F85066FEF768
:10511C00F3FA04F5CD6084F86466FEF7EDFA04F258
:10512C007C6084F87866FEF7E7FA04F5D26084F8C0
:10513C008C66FEF7E1FA04F2A46084F8A066FEF730
:10514C00DBFA04F5D76084F8B426FEF7D5FA04F23E
:10515C00CC6084F8C826FEF7CFFA04F5DC6084F83E
:10516C00DC26FEF7C9FA04F2F46084F8F026FEF7A8
:10517C00C3FA04F5E16084F80427FEF7BDFA04F2E3
:10518C001C7084F81827FEF7B7FA4A4B5C22C4F857
:10519C00BC340123002104F58A60C4F8C03400F04B
:1051AC00C0F81620C4F8B40804F5FC60C4F8C808AC
:1051BC0004F50260404AC4F8CC0803200523C4F867
:1051CC00CC27C4F8E428C4F8FC291B22C4F8D00965
:1051DC0002204FF47A71C4F8B054C4F8B4340025EA
:1051EC004FF0FF33C4F8E82A1A22C4F8CC0904F6AD
:1051FC00F800C4F8E00904F63810A4F8D458C4F840
:10520C00B834A4F8D658C4F8D417C4F8BC38C4F8C9
:10521C00C038C4F8EC18C4F8D439C4F8D839A4F898
:10522C00EC59C4F8E409C4F8041AC4F8AC74C4F812
:10523C00D057C4F8B868C4F8D058C4F8E858C4F8C3
:10524C00E859A4F8EE59C4F8005AC4F8E42AC4F892
:10525C00EC3AC4F8F03A04F52163C4F8F83A04F2D5
:10526C00CC7104F5256304F2FC40C4F8FC3AA4F8B4
:10527C00045BC4F8005BA4F8065BFEF769FA04F65D
:10528C00E40104F5A560FEF763FA04F6FC1104F2E0
:10529C005450FEF75DFA0423C4F8E0351923C4F822
:1052AC00E4350F2384F8E855C4F8DC35F8BD00BFAD
:1052BC004001002000093D00C45C000838B5054CD5
:1052CC00A4F5A075143C201DFBF732FFAC42F9D1BC
:1052DC0038BD00BF6C080020FEF7ADF80B480C4938
:1052EC000C4A002302E0D458C4500433C4188C4236
:1052FC00F9D3094A094C002301E013600432A2429D
:10530C00FBD300F017F8FEF76FFB7047000000208E
:10531C003C010020FC5C000840010020B80D00207E
:10532C00FEE703460244934200D1704703F8011B89
:10533C00F9E7000070B500260C4D0D4B5B1B9C1063
:10534C00A64209D1002600F08FF90A4D0A4B5B1BCF
:10535C009C10A64205D170BD55F8043B9847013608
:10536C00EEE755F8043B98470136F2E7E85C000895
:10537C00E85C0008E85C0008F45C000870477047C3
:10538C000A44914200F1FF3300D1704710B511F877
:10539C00014B914203F8014FF9D110BD38B50546C8
:1053AC00002940D051F8043C0C1F002BB8BFE41866
:1053BC0000F0DEF81C4A136833B9636014602846A9
:1053CC00BDE8384000F0DAB8A34208D920682118AB
:1053DC008B4201BF19685B6809182160EDE71A461A
:1053EC005B680BB1A342FAD911685018A0420BD1DB
:1053FC0020680144501883421160E0D118685B6842
:10540C00084410605360DAE702D90C232B60D6E70E
:10541C00206821188B4201BF19685B68091821604C
:10542C0063605460CBE738BDB40D002070B50F4EEF
:10543C000C463168054611B900F0A6F830602146DB
:10544C00284600F0A1F8431C03D14FF0FF3420464E
:10545C0070BDC41C24F00304A042F8D0211A2846C5
:10546C0000F092F80130F2D1EFE700BFB00D002050
:10547C002DE9F843CD1C25F0030508350C2D38BF5C
:10548C000C25002D064601DBA94204D90C23336000
:10549C000020BDE8F883DFF8D48000F069F8D8F874
:1054AC0000301C4644BB29463046FFF7BFFF431C67
:1054BC00044658D1D8F800402746002F43D1002C81
:1054CC004BD023683946304604EB030900F05CF8F6
:1054DC00814542D1216830466D1A2946FFF7A6FF57
:1054EC0001303AD023682B442360D8F800305A6836
:1054FC0062BBC8F800700FE02268521B20D40B2A44
:10550C0017D96119A342256018BF5960636808BF99
:10551C00C8F8001062514B60304600F02FF804F1CF
:10552C000B00231D20F00700C21A1CBF1B1AA3502E
:10553C00AFE76268A3420CBFC8F800205A60EBE7E3
:10554C0023466468AEE73C467F68B6E71A465B685C
:10555C00A342FBD100235360DEE70C2330463360BB
:10556C0000F00CF894E70560D6E700BFB40D0020FE
:10557C000148FFF703BF00BFAC0D00200148FFF747
:10558C00FEBE00BFAC0D002038B50023054D04460F
:10559C0008462B60FDF7A2FF431C02D12B6803B118
:1055AC00236038BDA80D0020024B01461868FFF798
:1055BC005FBF00BFEC000020024B01461868FFF7EC
:1055CC00EDBE00BFEC000020062008B500F02CF862
:1055DC000120FDF7AFFF1F2938B505460C4604D94D
:1055EC00162303604FF0FF3038BDC26B12B152F876
:1055FC0021304BB9284600F031F8224601462846A6
:10560C00BDE8384000F018B8012B0AD0591C03D162
:10561C00162303600120E7E70021204642F82410FE
:10562C0098470020E0E70000024B01461868FFF79E
:10563C00D2BF00BFEC00002038B50023064D044655
:10564C00084611462B60FDF776FF431C02D12B68F0
:10565C0003B1236038BD00BFA80D0020FDF774BF57
:10566C0008B5FFF7B1FF0000F8B500BFF8BC08BCE7
:10567C009E467047F8B500BFF8BC08BC9E46704704
:10568C000000000001020304000000000100000003
:10569C0002000000030000000400000005000000F0
:1056AC0006000000070000000800000009000000D0
:1056BC000A0000000B0000000C0000000D000000B0
:1056CC000E0000000F000000100000001100000090
:1056DC001200000013000000140000001500000070
:1056EC001600000017000000180000001900000050
:1056FC001A0000001B0000001C0000001D00000030
:10570C001E0000001F0000002D0000002E000000F5
:10571C002F000000300000003100000000000000ED
:10572C000100000002000000030000000400000063
:10573C00050000000600000007000000100000003B
:10574C001100000000080140000C01400010014055
:10575C000014014000180140010100000202000089
:10576C0004040000080800001010000020200000B5
:10577C00404000008080000001000104020002048F
:10578C000400040408000804100010042000200485
:10579C004000400480008004100000001100000054
:1057AC001800000007000000003001401202000049
:1057BC001500000000300140120100001F00000025
:1057CC000038004012000000FFFFFFFF0000000047
:1057DC000000000006000000003001401202000032
:1057EC001400000000300140120100001E000000F7
:1057FC000038004012000000FFFFFFFF0000000017
:10580C000000000005000000003001401202000002
:10581C001300000000300140120100001D000000C8
:10582C000038004012000000FFFFFFFF00000000E6
:10583C0000000000040000000030014012020000D3
:10584C000F00000000300140120100001C0000009D
:10585C000038004012000000FFFFFFFF00000000B6
:10586C00000000000200000000440040120800008C
:10587C00090000000038014012060000160000006C
:10588C0000380140120500001A00000000480040DA
:10589C0012000000FFFFFFFF0000000000000000EE
:1058AC000300000000440040100800000A00000043
:1058BC0000380140100600001700000000380140BD
:1058CC00100500001B000000004800401000000004
:1058DC00FFFFFFFF000000000000000001000000BF
:1058EC0000440040120800000C0000000038014089
:1058FC00120000001E0000000048004012000000D2
:10590C001E01000000480040120A0000FFFFFFFFCC
:10591C0000000000000000000000000000440040F7
:10592C00120000000B0000000038014012000000C3
:10593C001D00000000480040120B00001D0100007B
:10594C0000480040120A0000FFFFFFFF00000000AB
:10595C000000000000000000000000401280000069
:10596C000001000000000040129000000100000047
:10597C000000004012120100010100000000004074
:10598C001210010002000000000000401292010001
:10599C000201000000000040129101000300000011
:1059AC000000004012120200030100000000004041
:1059BC0012110200060000000004004012950000C5
:1059CC0007000000002C0140128D100007010000A0
:1059DC00000400401215010008000000002C0140DA
:1059EC00128E000008010000002C0140128D0000F6
:1059FC0009000000002C0140120E010009010000FA
:105A0C00002C0140120D01000A000000002C014086
:105A1C00128E01000A010000002C0140128D0100C1
:105A2C000B000000002C0140120E02000B010000C4
:105A3C00002C0140120D02000F000000000000407D
:105A4C00129100000F01000000000040128F0000B6
:105A5C0010000000002C0140120D1100100100007C
:105A6C0000040040129501001002000000040040E8
:105A7C001294010011000000002C0140128D110045
:105A8C001101000000040040121502001102000078
:105A9C00000400401214020013000000000000403B
:105AAC00121101001301000000000040120F010050
:105ABC0014000000000400401294000015000000C7
:105ACC000004004012140100160000000008004001
