:020000040800F2
:1000000000C00020E55000082D5100082D510008C7
:100010002D5100082D5100082D510008000000004E
:100020000000000000000000000000002D5100084A
:100030002D510008000000002D510008592F000824
:100040002D5100082D5100082D5100082D51000898
:100050002D5100082D5100086D2F0008732F000846
:10006000792F00087F2F0008852F00082D510008E8
:100070002D5100082D5100082D5100082D51000868
:100080002D5100082D5100082D5100082D51000858
:100090002D5100082D5100082D5100088B2F00080C
:1000A0002D510008A92E00082D510008BD2E000872
:1000B000C12E0008D52E0008E92E00082D51000899
:1000C0002D5100082D5100082D5100082D51000818
:1000D0002D5100081530000831300008513000085B
:1000E000B32F00082D5100082D5100082D51000894
:1000F000392F00082D5100084D2F00082D51000800
:100100002D5100082D510008FD2E00082D5100082A
:10011000713000088D300008112F0008252F0008CD
:100120002D5100082D5100082D5100082D510008B7
:1001300000000000000000000000000000000000BF
:1001400000000000000000000000000000000000AF
:10015000000000000000000000000000000000009F
:10016000000000000000000000000000000000008F
:10017000000000000000000000000000000000007F
:10018000000000000000000000000000000000006F
:10019000000000000000000000000000000000005F
:1001A000000000000000000000000000000000004F
:1001B000000000000000000000000000000000003F
:1001C000000000000000000000000000000000002F
:1001D000000000000000000000000000000000001F
:0401E0005FF8E0F1F3
:1001E400024670B5014441F221054FF6FF70082420
:1001F40012F8013B80EA032006B2430098B2002EB5
:1002040004F1FF33B8BF684013F0FF04F4D1914206
:10021400EDD170BD70B50A4A0A480B4D0B4C04234E
:100224001168CEB2013B704013F0FF0305FB00F0F0
:100234004FEA1121F5D10432A242F0D170BD00BFC2
:10024400E8F7FF1FC59D1C8193010001F4F7FF1F10
:100254000138072807D8DFE800F004080606060678
:1002640004080120704700207047022070470023D3
:1002740010B50E490E4C03F1140004EB4000B0F825
:1002840001000A7A78B103F1180004EB4000B0F8D9
:10029400010040B142F040020133042B0A7201F123
:1002A4002001E8D110BD02F0BF02F5E700000020F4
:1002B4008001002008B54FF400620249024805F0AD
:1002C40089F808BD00F80708C8010020002313B509
:1002D400019303689A68D10702D5002002B010BDCB
:1002E4009A68154942F001029A60144AD2F88020B3
:1002F400B2FBF1F20192019AD2B91149D1F84848FE
:100304009A68D207E9D4D1F84828121B022AF7D9EF
:100314009A6812F00102F3D1836A80F8242043F032
:1003240010038362C36A43F00103C3620120D5E76B
:10033400019A013ADEE700BF40420F0000000020AE
:1003440080010020036810B59A68D10701D4002009
:1003540010BD9A680D4922F001029A60D1F848480C
:100364009A68D207F3D5D1F84828121B022AF7D984
:100374009A68D207F4D5836A43F010038362C36A90
:1003840043F00103C3620120E2E700BF80010020C3
:10039400002807DB01234109034A00F01F008340C2
:1003A40042F82130704700BF00E100E0154B30B542
:1003B400DC68C4F30224C4F10703251D042B28BF01
:1003C4000423062D4FF0FF3594BF0024033C05FAA7
:1003D40003F321EA0303A54022EA0502A34000280F
:1003E40043EA0203ACBF00F16040074A4FEA03133B
:1003F400DBB2ABBF00F5614000F00F0080F80033C2
:10040400135430BD00ED00E014ED00E0054B064A46
:100414005B68C3F30223D35C044AD2F88000D8405B
:10042400704700BF00100240A854000800000020DC
:10043400054B064A5B68C3F3C223D35C044AD2F873
:100444008000D840704700BF00100240A854000844
:100454000000002030B50469226812F0010207D1BF
:10046400CB6890F84C5013F0010302D1012D17D141
:1004740030BDCB68012D23F00103CB6008D00223EB
:1004840080F84D300123636180F84D3080F84C20B2
:100494006FF001030B61CB6843F00103CB60E7E726
:1004A400022280F84D200122626180F84D2080F8FC
:1004B4004C30DDE71B4B984221D0B0F1804F20D067
:1004C400A3F5943398421ED003F5806398421CD060
:1004D40003F5806398421AD003F58063984218D0DC
:1004E40003F58063984216D003F59033984214D0F4
:1004F4004FF6FF734FF6FF72934210D1FEE70023CD
:10050400F8E7012070470220704703207047042059
:100514007047052070470620704707207047002069
:10052400704700BF002C014008B5204B5A685A6838
:1005340059685A6803F580531B680369581C31D005
:100544001B48834229D011D81A4A934225D005D892
:1005540023F48063B3F1804F1FD0FEE7164A934221
:100564001BD002F58062934217D0F6E713498B4201
:1005740003D001F500618B42EFD1D20802F4E061AF
:10058400FFF756FFB1F5C06F05D00CD821F4807188
:10059400B1F5806F00D1400008BD01F4E061FFF7C0
:1005A40035FFEFE7FEE7B1F5E06FF3E70010024037
:1005B4000014004000080040000C0040002C0140E2
:1005C400A04B82B09A69013842F001029A619B699A
:1005D40003F001030193019B2B2834D8DFE810F0CA
:1005E4002C0035003C00430048004F0054005B00E1
:1005F40060006700700075007C0085008A0091002F
:100604009A00A300A800AF00B800BD00C4003300E6
:1006140033003300C900D000D500DC00E100E8005D
:10062400ED00F400F900FE00030108010D011201C0
:100634001901200127012D01834A536843F0E06327
:1006440043F00103536002B070477F4A536823F0BC
:10065400010343F0E063F5E77B4A536843F0E0634A
:1006640043F00203EEE7784A536823F00203F0E70D
:10067400754A536843F0E06343F00403E2E7724AC7
:10068400536823F00403E4E76F4A536843F0E063DC
:1006940043F00803D6E76C4A536823F00803D8E70D
:1006A400694A536843F0E06343F03003CAE7664A9B
:1006B400536823F0300343F0E06343F01003C1E7D1
:1006C400614A536823F03003C3E75F4A536843F039
:1006D400E06343F0C003B5E75B4A536823F0C0030B
:1006E40043F0E06343F04003ACE7574A536823F018
:1006F400C003AEE7544A536843F0E06343F44073E5
:10070400A0E7514A536823F4407343F0E06343F491
:10071400007397E74C4A536823F4407343F0E06353
:1007240043F480738EE7484A536823F4407390E798
:10073400454A536843F0E06343F4406382E7424A26
:10074400536823F4406343F0E06343F4006379E7C0
:100754003D4A536823F440637BE73B4A536843F0C4
:10076400E06343F480536DE7374A536823F48053BE
:100774006FE7354A536843F0E06343F4004361E7AD
:10078400314A536823F4004363E72F4A536843F024
:10079400E06343F4803355E72B4A536823F48033F2
:1007A40057E7294A536843F0E06343F4003349E7C9
:1007B400254A536823F400334BE7234A536843F034
:1007C400E06343F480233DE71F4A536823F4802306
:1007D4003FE71D4A536843F0E16333E71A4A53681D
:1007E40023F4002335E7184A536843F0E26329E70A
:1007F400154A536823F480132BE7134A536823F0F4
:10080400E0631FE7104A536823F0E06343F080730A
:1008140018E70D4A536823F0E06343F0007311E7CF
:10082400094A536823F0E06343F080630AE7064A09
:10083400D36943F48063D36105E7034AD36923F49E
:100844008063F8E700100240000001400C3151F8C9
:100854000C3C5A1C01D100207047984201F10C0154
:10086400F5D101207047431C02D1002070470C31A0
:100874000B685A1CF9D09842F9D14868704703466E
:100884000868421C00D17047834201D188687047D0
:100894000C31F5E708B50749FFF7F1FFC0F3C430A1
:1008A400012802D0022802D0FEE7002008BD102053
:1008B400FCE700BFB054000803468B42084604D04E
:1008C4001BB100290CBF1846002070470368384A42
:1008D40088B0934218D102F56442916941F40061F1
:1008E4009161926902F400620092009A314A934243
:1008F40017D1314BDA6942F01002DA61DB6903F097
:1009040010030593059B43E0B3F1804F17D12A4AA6
:10091400D16941F00101D161D26902F00102019271
:10092400019A264A934218D1234BDA6942F02002F5
:10093400DA61DB6903F020030693069B28E0204A72
:10094400934218D102F50332D16941F00201D16119
:10095400D26902F002020292029A1A4A934217D111
:10096400154B9A6942F400529A619B6903F400534F
:100974000793079B0CE0144A93420BD10E4BDA69A0
:1009840042F00402DA61DB6903F004030393039B7E
:1009940008B070470D4A9342A8D1074BDA6942F078
:1009A4000802DA61DB6903F008030493049BEFE7B0
:1009B400002C0140001000400010024000140040D0
:1009C400000400400034014000080040000C0040D6
:1009D400431C21D0194B984221D010D8A3F50063B1
:1009E40098421ED007D8B0F1804F1CD0A3F5806385
:1009F40098421AD0FEE7124B984218D0FAE7114BEE
:100A0400984216D003F50063984214D0A3F59033AE
:100A14009842EFD1372070476FF00D0070473620B1
:100A240070471E2070471C2070471D2070473220DD
:100A34007047192070472C20704700BF00100040F9
:100A4400000C0040002C0140431C21D0194B98425B
:100A540021D010D8A3F5006398421ED007D8B0F176
:100A6400804F1CD0A3F5806398421AD0FEE7124B46
:100A7400984218D0FAE7114B984216D003F5006358
:100A8400984214D0A3F590339842EFD137207047A1
:100A94006FF00D007047362070471E2070471C20F1
:100AA40070471D207047322070471B2070472E204E
:100AB400704700BF00100040000C0040002C0140B3
:100AC4001FB503681C6814F0010436D0002200929C
:100AD4001A6800925A680092009A90F86110274AA6
:100AE40002EB8102D2F84C1891F8412091F842109F
:100AF4000A4302F02202222A1DD090F84220202A22
:100B040019D100F162010022816201210263C185D1
:100B14004264222280F84220026981851AB1DA688F
:100B240042F48072DA605A6942F001025A61DA686A
:100B340042F02002DA6004B010BD196811F002011D
:100B440006D001941A6801925A680192019AC4E786
:100B54001A6812F0040206D002911A6802925A68C6
:100B64000292029AB9E719680907B6D503921A687E
:100B740003925A680392039AAFE700BF80010020F2
:100B84000023406AC385C3849AE791420FD008D9F1
:100B94000123891A8B40984208D30130C840013898
:100BA400704720B10130521A9040F8E70020704796
:100BB400C3B2322B1ED8184A02EB8303DB6A00F45B
:100BC400E0601843431C26D0C0F30312124B062ADC
:100BD40000F00F0098BF03EB820203EB8003D3F80D
:100BE40054318CBF0022D2F83821C3F30F2389B1CA
:100BF4001361704700F0C002C02A0CD1CF2B0AD871
:100C0400054B00F03F0203EB8202D2F8F82003EB1D
:100C14008203D3E753617047A8540008C3B2322B50
:100C240020D81B4A02EB8303DB6A00F4E06018431C
:100C3400431C27D0C0F30313062B25D8144A00F015
:100C44000F0002EB8303D3F8383102EB80029B6878
:100C5400D2F85421D84300EA122080B2B0FA80F0CE
:100C64004009704700F0C002C02A0BD1CF2B09D82D
:100C7400074B00F03F0203EB8202D2F8F82003EBAB
:100C84008203D1E70020704700239B68FFDE00BF8A
:100C9400A8540008044AD2F84818D2F848385B1A15
:100CA4008342FAD3704700BF8001002010B51E4C68
:100CB400D4F88810D4F894200B69D4F8980023F45D
:100CC400405313430B61D4F89030CA680343D4F8FB
:100CD4009C0022F4B05222F00C0203431343CB6075
:100CE4004B69D4F8A02023F4407313434B610F4B9A
:100CF400994215D1FFF79CFB19235843D4F88C3043
:100D040064229B00B0FBF3F0B0FBF2F402FB14038B
:100D14001B013233B3FBF2F303EB04138B6010BDFE
:100D2400FFF774FBE8E700BF000000200038014033
:100D3400094AD2F86038D2F8481899688907FCD56E
:100D440018739968C907FCD5187BD2F84828C0B233
:100D54009A681206FCD470478001002010B54CF24A
:100D64005034224B224AD3F84808D168C90736D4F4
:100D7400D1688C0644BF2021D160D168C80606D44E
:100D8400D169C90703D4D06810F0040026D01849EB
:100D9400CA6812F010021FBFD3F8F42842F002020E
:100DA400C3F8F4281022C9684C0741BFD3F8F418DB
:100DB40042F0040241F00101C3F8F4180C49C86977
:100DC400C00709D5D3F8F40840F00400C3F8F408C8
:100DD400CB6923F00103CB610120CA6010BDD3F8B5
:100DE4004818091AA142C0D90320F7E7800100205E
:100DF4000020024046232DE9F04F5B4D99B06B7003
:100E04004723AB7031234324EB700323002622468F
:100E1400294607A82C702B7104F0DCFA214607A898
:100E24008DF85D608DF85E6005F1480AFFF7D8F92A
:100E3400D146CDE900454D4CA5F84100019B13F87E
:100E4400016B0193FFF736FA19F8013B9E4219D062
:100E540009F8016C23691A060CD440F21513424FA9
:100E6400E36097F8F038012B13D1236943F0800332
:100E7400236107E03E4B636003F1883363602369B9
:100E84001B06EAD5009B013B0093D7D119B0BDE8FE
:100E9400F08F012687F8F068FFF760FF0546002809
:100EA4005AD1C7F8F4082369DFF8C88043F0020375
:100EB4002361C4F81480236943F040032361FFF7DE
:100EC4004DFF226922F00202226187F8F05805469C
:100ED4000028CAD1D3468DF81360DBF800300BF13B
:100EE400080B03935BF8043C02939DF8133087F8D6
:100EF400F038FFF733FF064670BB4146039BC6F14B
:100F0400200E23FA06F0029BC7F8F45803FA0EFEEB
:100F1400A6F1200C23FA0CFC40EA0E00236940EAF7
:100F24000C0043F0010380B2236108800591FFF7B0
:100F340015FF236923F00103236190B90599103645
:100F4400402E01F10201D9D10B4908F10808884566
:100F540087F8F008C1D188E70022034B83F8F02812
:100F640083E787F8F05880E78001002000200240E2
:100F74002301674500F8070800000808F8B500F1E8
:100F8400600604463346002500F1B007C3E9005566
:100F9400C3E902551033BB42F8D10846FFF78AFA79
:100FA400584B04F10C0203EB8003C3F8F8280E231A
:100FB400C4E90C55C4E90E55C4E91055C4E9163505
:100FC40084F82C50A56484F84C5084F84D5004F1F6
:100FD400100528462161E460FFF778FCB36833B15B
:100FE40003223146304698470023C6E902331036BF
:100FF400BE42F3D100234FF6FF72C4E90033C4E9C3
:101004000632C4E90833A36063618023A36294F8C1
:101014004D3003F0FF020BBB284684F84C20FFF749
:1010240055FC2069FFF7D4FCD4E916120546FFF7F6
:10103400BDF92846FFF7ACF922691046FFF704FD15
:1010440005461046FFF7C4FC854207D0D4E91612C2
:101054002846FFF7ABF92846FFF79AF902232A49F5
:1010640084F84D3023698B421A6812D001F500616F
:101074008B420ED0B3F1804F0BD0A1F598318B4247
:1010840007D001F580618B4203D001F580618B426A
:1010940007D1A16922F070020A43216A22F4407246
:1010A4000A43A16A22F080020A431A60E269DA6202
:1010B40062699A62144A934203D002F50062934231
:1010C40001D1626A1A6301225A611969C90742BFD0
:1010D400196921F00101196184F8562084F84E2021
:1010E40084F84F2084F8502084F8512084F852204A
:1010F40084F8532084F8542084F8552084F84D2033
:10110400F8BD00BF80010020002C01408368014627
:101114000BB103221847704790F8423082B0222B5B
:101124003ED181680268B1F5805F836A3AD1016972
:1011340000293AD15268C2F3080223F8022B8362D1
:10114400C38D013B9BB2C38553BB0268D16821F0B8
:101154002001D160D16821F48071D160516921F0FE
:1011640001015161202280F842204363026B012A6D
:10117400026824D1036302F10C0353E8003F23F017
:10118400100302F10C0040E800310029F3D1136888
:10119400DB0605D501911368019353680193019B04
:1011A40002B0704739B9016929B95268D2B21A70CC
:1011B400836A0133C3E7526802F07F02F7E7836C66
:1011C400043802B01847036837B51A68044612F0A9
:1011D4000F0FD9685D6909D1950640F1F1808D063C
:1011E40040F1EE8003B0BDE8304095E705F0010022
:1011F40001F49075054300F0E380D50705D5CB05D0
:1012040042BF636C43F001036364550704D518B10E
:10121400636C43F002036364930704D518B1636CF1
:1012240043F004036364150707D501F02003034367
:101234001EBF636C43F008036364636C002B00F00F
:10124400BD80900604D5890602D52046FFF764FFC9
:1012540023685A69616C02F0400201F0080152EA05
:10126400010500F0A78003F10C0252E8002F22F4DC
:10127400907203F10C0040E800210029F3D103F13E
:10128400140252E8002F22F0010203F1140040E896
:1012940000210029F3D1226B012A0CD0202284F8EA
:1012A4004220002222635A69520611D4204603B018
:1012B400BDE8304004E403F10C0252E8002F22F0B0
:1012C400100203F10C0040E800210029F3D1E5E706
:1012D40003F1140252E8002F22F0400203F114003B
:1012E40040E800210029F3D1E06B0028DED0A74BB1
:1012F400436390F82130022B05D00423836303B0A9
:10130400BDE830403CE403681A6822F00E021A601B
:101314001A6822F001021A609D4A934220D902F50C
:101324006272934215D01432934214D01432934211
:1013340013D01432934214BF4FF480334FF48053CC
:10134400944A5360012380F82130002380F8203030
:10135400D5E70123F4E71023F2E74FF48073EFE7B6
:101364008D498B4216D014318B4215D014318B42E7
:1013740014D014318B4214D014318B4214D0143154
:101384008B4214D0934214BF4FF480334FF08073D8
:10139400824AD6E70123FBE71023F9E74FF4807371
:1013A400F6E74FF48053F3E74FF48033F0E74FF45C
:1013B4008013EDE72046FFF783FB656403B030BD7F
:1013C400206B012840F0A380D50640F1A080C80618
:1013D40040F19D80002201921A6801925A6801929C
:1013E400019A5A6955065ED5E26B1168496889B25B
:1013F4000029E3D0A08D8842E0D9E18591692029B4
:101404003BD003F10C0151E8001F21F4807103F17A
:101414000C0545E800100028F3D103F1140151E84C
:10142400001F21F0010103F1140545E80010002814
:10143400F3D103F1140151E8001F21F0400103F13D
:10144400140545E800100028F3D1202184F8421047
:10145400206303F10C0151E8001F21F0100103F196
:101464000C0545E800100028F3D192F82130022B36
:1014740007D00423936382F8200002236363E38D7F
:101484009CE71368D56B196821F00E01196019687F
:1014940021F0010119600121136C01FA03F36B605F
:1014A40082F82110E7E7E28DE18D92B289B200293A
:1014B40084D0A18D914281D003F10C0252E8002F17
:1014C40022F4907203F10C0040E800210029F3D1CA
:1014D40003F1140252E8002F22F0010203F1140078
:1014E40040E800210029F3D1202284F8422021631E
:1014F40003F10C0252E8002F22F0100203F10C0059
:1015040040E800210029F3D10223636356E7100663
:1015140028D50D0626D594F84120212A7FF44EAF14
:10152400A168226AB1F5805F17D12169A9B932F89F
:10153400021BC1F3080159602262E28C013A92B2A3
:10154400E284002A7FF43AAFDA6822F08002DA609B
:10155400DA6842F04002DA6030E7511C2162127806
:101564005A60EAE750067FF529AF4A067FF526AFB1
:10157400DA68201F22F04002DA60202384F8413028
:10158400E36C03B0BDE83040184700BF850B00088A
:1015940080000240000402400800024000000240B3
:1015A40021B990F84230012B19D07047042904D195
:1015B40090F84330012B44D07047082907D190F8A4
:1015C4004430012B3CD1022380F844300AE090F8E7
:1015D4004530012B34D1022380F8453002E0022348
:1015E40080F842300422036802FA01F11A6A22EAFE
:1015F40001021A621A6A114319625A6C42F40042D7
:101604005A64124A934212D002F5006293420ED0F9
:10161400B3F1804F0BD0A2F59832934207D002F574
:101624008062934203D002F58062934204D19A68A7
:1016340002F00702062A03D01A6842F001021A6077
:101644007047022380F84330CCE700BF002C0140F0
:1016540000293AD190F83E2090F84230D2B2012AC3
:10166400DBB231D1012B2FD10223002943D180F8E1
:101674003E3080F84230012203688A40196A21EA28
:1016840002011962196A0A431A62244A934212D067
:1016940002F5006293420ED0B3F1804F0BD0A2F555
:1016A4009832934207D002F58062934203D002F548
:1016B4008062934204D19A6802F00702062A03D09A
:1016C4001A6842F001021A607047042905D190F8A3
:1016D4003F2090F84330D2B2C1E708290BBF90F8FD
:1016E400402090F8412090F8443090F845300CBFE9
:1016F400D2B2D2B2B3E7042904D180F83F3080F8E3
:101704004330B8E708290BBF80F8403080F84130F7
:1017140080F8443080F84530ADE700BF002C01402C
:1017240021B990F83E30012B12D07047042904D11E
:1017340090F83F30012B29D0704708290CBF90F84E
:10174400403090F84130013B18BF012313B3704778
:10175400022380F83E30012203688A40196A21EA94
:1017640002011962196A0A431A62184A934203D0A1
:1017740002F50062934215D15A6C42F400425A6455
:101784009A6802F00702062A1AD1E0E7022380F8D9
:101794003F30E0E7022308290CBF80F8403080F88E
:1017A4004130D8E7B3F1804FEAD0094A9342E7D0F9
:1017B40002F580629342E3D002F580629342DFD067
:1017C4001A6842F001021A60704700BF002C014001
:1017D4000004004090F83D30012B22D10223114A2D
:1017E40080F83D300368934212D002F500629342C0
:1017F4000ED0B3F1804F0BD0A2F59832934207D0AC
:1018040002F58062934203D002F58062934204D1D0
:101814009A6802F00702062A03D01A6842F001020D
:101824001A607047002C01404FF47A7210B5104CC6
:101834000146D4F88030B3FBF2F3013BB3F1807F6F
:1018440014D24FF0E020F02243610A4B0F2983F8B1
:1018540023204FF000024FF007038261036105D893
:101864004FF0FF30FEF7A2FDC4F8001110BD00BF19
:101874000000002000ED00E091FAA1F3B3FA83F335
:1018840070B50D0E0F2691FAA1F1B1FA81F1445908
:101894009B0006FA03F3890024EA03048A402243E6
:1018A400425170BD38B50B0E0C4691FAA1F1B1FA54
:1018B40081F1C5580F2389008B4094FAA4F1B1FA41
:1018C40081F12B408900012A23FA01F308D0022A6E
:1018D40019D0082B16D12146BDE838400422CBE7A5
:1018E400042B03D108222146FFF7C6FF230A93FAEB
:1018F400A3F3B3FA83F20123C168934021EA1421CC
:101904000B43C36038BD042B03D108222146FFF7E3
:10191400B3FFC36823EA1423F3E791FAA1F3B3FAFC
:1019240083F370B50D0E042691FAA1F1B1FA81F199
:1019340044599B0006FA03F3890024EA03048A400D
:101944002243425170BD2DE9F041431C05460F4628
:1019540088B000D1FEE76C4B00F00F0203EB82036A
:10196400D3F85461C0F30313062B75D8DFE803F0F2
:10197400042C3844505C6800644B654C9A6942F00E
:1019840004029A619B6903F004030693069B07F023
:101994000708B8F1010F61D1330EE05896FAA6F3A7
:1019A400B3FA83F303229B0002FA03F320EA030051
:1019B40096FAA6F3B3FA83F39B009A4004EB1661FC
:1019C40002430A6001225DE0504B524C9A6942F096
:1019D40008029A619B6903F008030593059BD6E707
:1019E4004A4B4D4C9A6942F010029A619B6903F08C
:1019F40010030493049BCAE7444B484C9A6942F091
:101A040020029A619B6903F020030393039BBEE7C2
:101A14003E4B434C9A6942F040029A619B6903F041
:101A240040030293029BB2E7384B3E4C9A6942F062
:101A340080029A619B6903F080030193019BA6E7EE
:101A4400324B394C9A6942F480729A619B6903F46F
:101A540080730093009B9AE7002498E7C7F306205D
:101A6400B8F1030F0AD801A353F828F0831A000829
:101A7400C9190008E51A0008F11A0008FEE7FEF784
:101A84009FFD08223146204608F1FF38FFF7F4FE97
:101A9400B8F1010F06D817F0080218BF0422314626
:101AA400FFF73BFFC7F3011231462046FFF7FAFE6A
:101AB400164B9A6942F001029A619B6903F0010393
:101AC4000793079BA5F10D03012B11D8174A5368FF
:101AD40023F0E06343F08063536008B0BDE8F08115
:101AE4007F2801D0FEF76CFD0922CBE70022C9E76D
:101AF4000F2D02D0133D012DEFD80C4A536823F06B
:101B0400E06343F00073E7E7A854000800100240C4
:101B140000080140000C0140001001400014014085
:101B240000180140001C0140002001400000014059
:101B3400431C05D17047984201D1896803E70C31F1
:101B44000B685A1CF7D1FEE72DE9F04FC54C89B05C
:101B5400D4F8C09806460D464846C349984693466D
:101B6400FEF781FEC1490390D4F8BC08FEF77BFE62
:101B7400BF490290D4F8C408FEF775FED4F8C8A88B
:101B84000746BC495046FEF76EFE039B0190002BAE
:101B940000F01381029A002A00F00F81002F00F058
:101BA4000C8111461846FEF787FE01990246384615
:101BB400FEF782FE01461046FEF77EFE0746C4F895
:101BC400B808002A00F0F980002900F0F680002807
:101BD40000F0F380BAF1FF3F0CBF4FF400734FF4F1
:101BE4008023B8F1000FC4F8783814BF00234FF4F1
:101BF4008273C4F86438A04BC4F86008984240F07B
:101C0400DF80FEF715FCB6EB500F80F0E680B6EBF4
:101C1400900F80F0E480B6EBD00F80F0E280B6EB5A
:101C2400101F80F0E080B6EB501F80F0DE80B6EB32
:101C3400901F80F0DC80B6EBD01F2CBF30233823FC
:101C4400C4F87C38002D00F0D480022D00F0D3803D
:101C5400013D18BF012501236D00C4F87438072322
:101C6400C4F88C38BBFA8BF300265B09DB014846C9
:101C74007D49C4F88038C4F86868C4F87058C4F85A
:101C84008868C4F86C68C4F88468FFF751FF774922
:101C9400D4F8BC08FFF74CFF7549D4F8C408FFF723
:101CA40047FFD4F87038D4F8C418B342C1F3031012
:101CB400724B14BF0122022201F00F01062898BFC3
:101CC40003EB800003EB81038CBF3046D0F838016E
:101CD400D3F85411FFF7E6FD6649D4F8C808FFF7B6
:101CE40027FF654B9F4240F0888003F560439A6963
:101CF40042F480529A619A6902F480520792079AD8
:101D0400DA6842F48052DA60DA6822F48052DA60E7
:101D1400D4F88438D4F86418002B40F09C80B1F5D2
:101D2400827F01D0C4F87C380023C4F8883894F842
:101D3400B13803F0FF020BB984F8B028022384F809
:101D4400B1383B6801F4827123F040033B60D4F85E
:101D54006838D4F8782803F404430B43D4F86C1897
:101D640001F400610B43D4F8701801F002010B4335
:101D7400D4F8741801F001010B4302F400710B4311
:101D8400D4F87C18120C01F038010B43D4F88018F5
:101D940002F0040201F080010B433B607A60FB69AE
:101DA40023F40063FB610023C4F8B438012384F8EE
:101DB400B1383B6843F040033B6009B0BDE8F08FA5
:101DC4002F4B984202D1FEF721FB1CE72D4B984282
:101DD400F9D02D4BD3F8800015E7002330E7082312
:101DE4002EE710232CE718232AE7202328E72823AB
:101DF40026E72B4631E700232FE7214B9F4213D1DF
:101E040003F5EC33DA6942F48042DA61DA6902F408
:101E140080420692069A1A6942F480421A611A694B
:101E240022F480421A6173E7164B9F427FF470AF2D
:101E340003F5EA33DA6942F40042DA61DA6902F45A
:101E440000420592059A1A6942F400421A611A691D
:101E540022F40042E6E70023C4F87038C4F874386A
:101E640062E700BF800100203C5600087856000855
:101E7400B4560008F056000800300140A854000889
:101E840000380040003C004000000020114B82B0AC
:101E9400CDE90001D3F8CC080F496A46884206D13F
:101EA400D3F8D0180198414031F07F410FD092E827
:101EB40003000A0CC3F8CC08A3F8D01883F8D2287E
:101EC400002301220448C1F3072102B03CE602B01A
:101ED400704700BF8001002040420F002DE9F04F01
:101EE4000B46044615464FF001094FF0000A87B02F
:101EF40004F03F02C2F14002AA4228BF2A4690469B
:101F040001933A4BADF8149004938DF816A004AFE6
:101F1400DFF8DCB097E80300FFF7B8FFDBF81869D7
:101F240000213046FEF744FE0620FEF701FF0121A2
:101F34003046FEF73DFE2D4BADF8149004938DF81A
:101F440016A097E80300FFF7A1FF00213046FEF733
:101F54002FFE0220FEF7ECFE200AFEF7E9FEE0B2B7
:101F6400FEF7E6FE019B03EB0802019213F8010B56
:101F74000293FEF7DDFEDDE901239A42F6D1012149
:101F84003046FEF715FEDBF84828184BADF81490E0
:101F940004938DF816A097E803000392FFF776FFE9
:101FA40000213046FEF704FE0520FEF7C1FEFF20A7
:101FB400FEF7BEFE012102903046FEF7F9FD029BBA
:101FC400039A13F0010F09D14444B5EB0805019BB2
:101FD400A4B28DD1084607B0BDE8F08FDBF84838CD
:101FE4009B1A142BD1D90020F5E700BF40420F0003
:101FF400800100202DE9F341174B002700930123B2
:102004000646ADF804308DF8067002ABDFF84C805C
:102014000C4613E903001546FFF738FF3946D8F894
:102024001809FEF7C5FD0320FEF782FE3846FEF7C9
:102034007FFEF0B2FEF77CFE2544FF20FEF778FE1B
:1020440004F8010BAC42F8D10121D8F8180902B008
:10205400BDE8F041FEF7ACBD40420F008001002016
:1020640070B50C460E22FFF7C5FF22680D4B9A424D
:1020740016D12379012B13D163793F2B10D8E3793F
:10208400032B0DD80023A6890E21237363732046E6
:10209400FEF7A6F8B5B22B1A5842A681584170BD76
:1020A4000020FCE757494E3130B589B00E2200219B
:1020B40004AC684603F039F80E220021204603F0F0
:1020C40034F869460020FFF7CBFF0546214620205F
:1020D400FFF7C6FF8DB910B323461D4A06AD1C4653
:1020E40003CCAC4210605160234602F10802F6D1E1
:1020F400186810609B88938010E090B96A46144B6E
:1021040002AD144603CCAC4218605960224603F178
:102114000803F6D120681860A2889A80012009B0CB
:1021240030BDBDF80830BDF81820D21A6B4612B283
:10213400002AC8BF2346064A03F108051C4603CCFF
:10214400AC4210605160234602F10802F6D1CFE799
:102154009C0A0020F7B5154B0027009340F2013389
:1021640005460C46ADF80430114E02AB8DF80670EE
:1021740013E90300FFF78AFE3946D6F82C09FEF767
:1021840017FD7D20FEF7D4FD2846FEF7D1FD7E2005
:10219400FEF7CEFD2046FEF7CBFD0121D6F82C0933
:1021A40003B0BDE8F040FEF703BD00BF40420F009E
:1021B4008001002073B5154B0026009340F20133D3
:1021C4000446ADF80430124D02AB8DF8066013E9F5
:1021D4000300FFF75BFE3146D5F82C09FEF7E8FC57
:1021E4007D20FEF7A5FD2046FEF7A2FD7F20FEF729
:1021F4009FFD7F20FEF79CFD04460121D5F82C09A4
:10220400FEF7D6FC204602B070BD00BF40420F006E
:102214008001002008B50020FFF7CCFFBDE808408E
:1022240000F0FE01002095E710B504460146212088
:10223400FFF790FF21462720FFF78CFF1CB12146B2
:102244002620FFF787FFBDE81040E3E7826810B55A
:102254000AB903F0CDF8C368BDE8104018470B4B2A
:102264005A69024211D058610023012803F1010286
:1022740008D114220648DBB202FB0300C368043011
:102284001BB1E3E713464008EFE770470004014041
:10229400B80A0020037F013B072B14D8DFE803F0C2
:1022A4000411130D1313130F012350F8040C0633F8
:1022B40000EB0310836833B1C8E70323F5E7042375
:1022C400F3E70223F1E77047036870B5DD681E6920
:1022D4000446B2070BD5A90709D56FF002021A61AB
:1022E400012202779B69FFF7D5FF0023237772074A
:1022F4000DD56B070BD56FF00402236820461A61D5
:10230400022222779B69FFF7C5FF0023237730075A
:102314000DD529070BD56FF00802236820461A61F2
:1023240004222277DB69FFF7B5FF00232377F20647
:102334000DD5EB060BD56FF01002236820461A6109
:1023440008222277DB69FFF7A5FF00232377F00734
:102354000CD5E9070AD56FF00102236854F8040C80
:102364001A61836E13B16030FFF770FF320605D532
:102374002B0642BF6FF0800223681A61700605D5F0
:10238400690642BF6FF0400223681A61B20605D5A0
:10239400AB0642BF6FF0200223681A6170BD2DE9BD
:1023A400F04FC3B2322B0F4687B062D87F4A02EB9C
:1023B4008303DB6A00F4E0641C43621C00F0F280D7
:1023C4007B4EC4F303134FEA830A06EB8303D3F86B
:1023D400783A04F00F0923FA09F3DB0739D52046CC
:1023E4007449FEF733FA002855D020467149FEF7A8
:1023F4003AFA054618B32046FEF74CFA01222B6838
:1024040002FA00F023EA00032B6002238DF808206F
:102414008DF80830684B9D420DD103F5CE331A690F
:1024240042F000521A611A6922F000521A61DA6904
:1024340022F00052DA61002305938DF8083001225E
:102444005644D6F8783A02FA09F223EA0203C6F8A7
:10245400783A022F00F0A080032F00F09F80012F14
:1024640000F09E800021204607B0BDE8F04FFFF742
:102474006ABA00F0C002C02A40F09480CF2B00F268
:1024840091804A4B00F03F0203EB8202D2F8F8201D
:1024940003EB82038DE720464849FEF7D7F900286D
:1024A400CDD020464549FEF7DEF9FEF703F806EBEA
:1024B4008008D8F8F83873B9B02002F06BFF3F49B0
:1024C40005462046FEF7CFF901462846FEF756FD9D
:1024D400D8F8F8381D60D3F80080B8F1000FAED0FA
:1024E400D8F810502846FDF7E5FF354B9D420CD136
:1024F400344A936923F400639361334B9D420CD1B6
:10250400304AD36923F0100327E0B5F1804F0CD192
:102514002C4AD36923F00103D3612C4B9D420CD187
:10252400284AD36923F0200317E0294B9D420DD19B
:10253400244AD36923F00203D361264B9D4201BF91
:10254400204A936923F40053936107E0224B9D4290
:1025540016D11C4AD36923F00403D361002306EB8C
:102564008000C0F8F838C8F80C3008F1B00508F15C
:10257400600B5D450CD0103D2846FEF7C7FDF8E71B
:10258400164B9D42B9D10F4AD36923F00803E4E7FF
:10259400404602F007FF52E7102164E7202162E77A
:1025A400394660E707B0BDE8F08F00BFA8540008C3
:1025B40080010020B0540008007400402C5700082B
:1025C400002C0140001002400010004000140040A4
:1025D400000400400034014000080040000C0040AA
:1025E40070B500240A4D0B4E96F8943A55F8040B36
:1025F4005BB1B6F82619E14001F001010231013462
:10260400FFF7CDFE032CEFD170BD0221F7E700BF29
:10261400E4590008800100202DE9F04FC3B2322BA9
:10262400054688468DB000F29680B04A02EB8303DB
:10263400DB6A05F4E0641C43661C00F089802046D4
:10264400AB49FEF703F9AB4E002800F09F80AA4A7D
:10265400C4F3031302EB8302D2F8781A04F00F03D5
:1026640021FA03F0C0075FBF4FF0010909FA03F331
:102674000B43C2F8783A4FF000014FF0100208A85B
:1026840048BF4FF00009D6F804A102F04EFD2046E1
:102694009749FEF7E8F80546002859D02046FEF78A
:1026A400F9F80746B9F1000F2FD09DF82030C6F88D
:1026B40008418BB9914B9D420AD103F5CE33DA69B7
:1026C40042F00052DA61DB6903F000530593059B85
:1026D40020468749FFF72CFA0223002201218DF8B6
:1026E40020300B9240F6FE728DF820108DF82030C9
:1026F4002B68BA4023EA0203C0222B602B68BA403D
:1027040023EA02032B608DF820100023069306951C
:10271400069B87BB08330C22514640460693FEF7BE
:1027240034FA0223069C20608DF8203001232A68A5
:10273400BB4013432B602B68FFB903F03C033C2BD5
:1027440003D16B6843F001036B6001238DF82030E3
:102754000DB0BDE8F08F00F0C002C02AF8D1CF2B35
:10276400F6D8624B00F03F0203EB8202D2F8F82065
:1027740003EB82035CE71433CDE703F47013B3F582
:10278400701FE2D16B6843F00203DDE720465C4929
:10279400FEF75CF80746002800F05382564DC4F358
:1027A400031305EB8303D3F8781A04F00F0021FA1E
:1027B40000F2D2075FBF012282400A43C3F8782A9D
:1027C400D6F8043120460293D6F80C314C490093D4
:1027D400D6F810310393FEF746F8FDF76BFE05EBD0
:1027E4008009D9F8F85875B9B02002F0D3FD4449EE
:1027F40006462046FEF737F801463046FEF7BEFB94
:10280400D9F8F8582E6020463D49FEF738F8C0F351
:10281400C43606F1FF3ABAF1030F12D82D6805EB5E
:10282400460CBCF80230B600042B0193A6F104094F
:1028340000F0F380042E2B6904D0082E4CD19A6B3F
:1028440001E0FEE75A6B95F84C10012932D00121C2
:10285400B9F1080F85F84C107CD000F2A680196AF3
:10286400186AB9F1000F4FD120F001001862D3F8B3
:1028740004E0DFF890B098695B4520F0730040F005
:1028840060002ED00BF5006B5B452AD021F00201CD
:10289400C3F804E098615A6319629A6942F0080225
:1028A4009A619A6922F004029A619A699A610023F2
:1028B40085F84C3004232046ACF802301049FDF76B
:1028C400DEFFC0F3C430431E032B00F29380B6EB4B
:1028D400800F00F09080FEE70C2E0CBFDA6B1A6CB0
:1028E400B1E721F00E012EF4407ED1E7A854000890
:1028F400B054000800000020800100200074004053
:102904002C570008002C014020F010001862D3F866
:1029140004E0DFF8A0B298695B4520F4E64040F497
:10292400C04012D00BF5006B5B450ED021F02001A6
:10293400C3F804E098619A6319629A6942F40062E8
:102944009A619A6922F48062AEE721F0E0012EF4E4
:10295400406EEDE7196A186ADFF858B220F4807007
:102964001862D3F804E0D8695B4520F0730040F0A6
:10297400600015D00BF5006B5B4511D021F400719C
:10298400C3F804E0D861DA631962DA6942F0080234
:10299400DA61DA6922F00402DA61DA69DA6186E777
:1029A40021F460612EF4405EEAE7186A196ADFF8E0
:1029B40004B221F480511962D3F804E0D9695B456B
:1029C40021F4E64141F4C04120F4005003D00BF55A
:1029D400006B5B4501D12EF4804EC3F804E0D9614D
:1029E4001A641862DA6942F40062DA61DA6922F47C
:1029F4008062D1E7FEE720466F49FFF799F8204649
:102A04006D49FDF73CFF10F4801F0CBF012210221A
:102A140015F80A30134305F80A302846FDF784FDFB
:102A2400039B2C69B0FBF3F0020C531C984228BFA3
:102A3400B0FBF3F0029928BF00F1FF36A2624046D2
:102A4400009A38BF0026FEF7A0F8E6628046EE61E1
:102A540021462846FDF7FEFC9DF80030A66A822B2D
:102A640006F1010653D048D8102B3AD8002B53D185
:102A74004FF6FF72E36A934203D1B8F5803F08BF73
:102A84009846B9F1000F53D1C4F834802146284642
:102A9400FDF7E0FC019B042B3FF45AAEA846002648
:102AA400DFF8189105F1020B09F1040A3BF8023F23
:102AB400002B59D005F1780252F8267037B19AF8F4
:102AC4000010CA432261E2680A43E260013B0A2B18
:102AD40049D8DFE803F03B3B3B3B3B3B3BB0B0B06A
:102AE4007700812BC4D1FDF71FFD354BB0FBF3F00C
:102AF40008FB00F0B0FBF6F8BAE7832BB8D1E36A21
:102B040003FB08834FF06408B3FBF8F8B0E7FDF764
:102B14000BFD06FB08F6EDE7E26A02FB08824FF0C4
:102B2400010808FA03F808F1FF38B2FBF8F89FE748
:102B3400B9F1040F02D1C4F83880A7E7B9F1080F3E
:102B44000CBFC4F83C80C4F840809FE798F800307C
:102B5400DF0604D5314605F11000FEF721FD98F893
:102B64000030D80720D400270436102E08F10108BD
:102B740009F101090AF1010A98D1AB6E33B16FF082
:102B840001032361E36843F00103E360002F3FF492
:102B9400DFAD2368DB073FF5DBAD05F110000DB0B9
:102BA400BDE8F04FFEF716BE314605F11000FEF702
:102BB400B7FDD8E7002C01402C570008F059000855
:102BC40040420F00314605F11000FEF741FD99F82F
:102BD4000020013AA95C11F0100306D0022A28D87B
:102BE400224B03EB4203B3F85035C90707D5032A38
:102BF4001FD8DFE802F00215181B43F00103216A15
:102C04000B432362002FAED0032A13D8174B13446F
:102C140093F84C25D3432361E3681343E360A2E7AD
:102C240043F01003EBE743F48073E8E743F4805385
:102C3400E5E7FEE7FEE7314605F11000FEF708FD83
:102C440091E728460121FFF7AAFBD6F804110822D0
:102C54004046FDF79AFF7F2894BF39460121284654
:102C64000DB0BDE8F04FFDF7A3BF00BFA8540008A6
:102C7400F8B50F4D044605EB80050021D5F858053D
:102C8400FFF7CAFC00210B4ED5F86805670106EB77
:102C94004414E180FDF78CFFD5F87805FDF788FF33
:102CA400237AF15523F0030323722177F8BD00BF83
:102CB400A85400080000002008B50020FFF7D8FF42
:102CC4000120FFF7D5FF0220FFF7D2FFBDE808403F
:102CD4000320CDE738B505460C46FFF7EDFF052286
:102CE400054B83F81451054B83F8962A002283F888
:102CF400954A83F8972A38BD0000002080010020FF
:102D040008B5FFF7D9FF0D4A92F8943A9BB992F8A7
:102D1400983AB3FA83F35B09094981F81431002125
:102D24008B4214BF0523012382F8951A82F8963A40
:102D340082F8971A08BD0023EEE700BF8001002047
:102D440000000020B0F5006F024630B522D2124BCD
:102D5400986844011AD403011AD410F0805014D096
:102D6400022308251B0148680C6803F1804101F522
:102D7400C841C1F88451C1F88841C1F88C010120CF
:102D8400520542F00102C1F8802130BD0023E8E77A
:102D94000123E6E70020F8E7006400400D2307B5AF
:102DA4008DF80730104BD3F89C2A009293F8942A9C
:102DB4008DF8042092B193F821198DF8051093F839
:102DC400981A8DF806105AB193F8210900F5E860B5
:102DD4006946FFF7B7FF03B05DF804FBFF21ECE79A
:102DE40040F27F70F4E700BF8001002007B503685C
:102DF4008DF8051000930379694640F2C1708DF88F
:102E04000430ADF80620FFF79DFF03B05DF804FB26
:102E140037B5234C94F8943A002B3ED094F8A03A5A
:102E2400002B3AD00023ADF8043001238DF8003094
:102E340094F8A13A23208DF8013094F8A23A94F83A
:102E4400A31A8DF80230FDF7E9FE41EA4005EDB220
:102E540061B194F8340910B10A20FFF7ABF9A379F2
:102E640000EA0301003918BF01218900D4F8483869
:102E740094F82109B3F17A7F36BF4FF47A724FF692
:102E8400FF73B3FBF2F30D4300F5007069468DF850
:102E94000350ADF80630FFF755FF03B030BD00BF57
:102EA40080010020034BD3F8F80810B10430FFF779
:102EB4000BBA704780010020FFF7F4BF034BD3F82F
:102EC400FC0810B10430FFF7FFB9704780010020FF
:102ED400034BD3F8000910B10430FFF7F5B970477C
:102EE40080010020034BD3F8040910B10430FFF72C
:102EF400EBB9704780010020034BD3F8080910B1E7
:102F04000430FFF7E1B9704780010020034BD3F888
:102F14000C0910B10430FFF7D7B9704780010020C5
:102F2400034BD3F8100910B10430FFF7CDB9704743
:102F340080010020034BD3F8140910B10430FFF7CB
:102F4400C3B9704780010020FFF7F4BF02F02ABA2A
:102F540002F028BA034AD2F848380133C2F8483894
:102F6400704700BF800100200120FFF778B90220DC
:102F7400FFF775B90420FFF772B90820FFF76FB99E
:102F84001020FFF76CB908B52020FFF768F940203E
:102F9400FFF765F98020FFF762F94FF48070FFF7BF
:102FA4005EF9BDE808404FF40070FFF758B938B532
:102FB40006244FF48065A8B2FFF751F9013C4FEAAB
:102FC4004505F8D138BD0F4B1A6842F001021A606A
:102FD40059680D4A0A405A601A6822F0847222F431
:102FE40080321A601A6822F480221A605A6822F425
:102FF400FE025A604FF41F029A604FF00062034BC6
:103004009A607047001002400000FFF800ED00E0F5
:103014002022044BC3F88421034BD3F84C08FEF759
:10302400D2B800BF00E100E0800100204022054B3F
:10303400C3F88421044BD3F8500808B1FEF7C3B891
:10304400704700BF00E100E0800100208022054BB2
:10305400C3F88421044BD3F8540808B1FEF7B3B87D
:10306400704700BF00E100E0800100204FF48012AF
:10307400034BC3F88421034BD3F85808FEF7A3B8D5
:1030840000E100E0800100204FF40012034BC3F87C
:103094008421034BD3F85C08FEF795B800E100E007
:1030A4008001002003460B4910B5D1F818010344F0
:1030B400EFF30882934205D90C224FF0FF30064B00
:1030C4001A6010BD054A064C121B9342F4D2C1F893
:1030D4001831F6E700000020B40D002000C00020E5
:1030E400000400004FF0FF307047002070470020BC
:1030F4007047FEE71622024B4FF0FF301A6070470C
:10310400B40D0020012070472DE9F04F0F46924680
:103114008BB0002800F0E381441E012C00F20582EC
:10312400BA4EBB4CD6F84838019394F8E930042BD6
:1031340040F2E8800220B749FDF795FB002800F033
:10314400CE81002506F64C08052D84F8E95040F0A0
:103154001B810220AF49FDF786FB002800F0BF81E8
:103164000220AC49C4F8D800FDF77DFBD4F8DC207C
:10317400A949834610460392FDF775FBD4F8E03065
:10318400A649804618460293FDF76DFBD4F8E43057
:103194000546A34918460093FDF765FB8146BBF13C
:1031A400000F00F09C81039A029B013203D0B8F116
:1031B400000F00F09481013302D0002D00F08F81C4
:1031C400009B013303D0B9F1000F00F08881414620
:1031D4005846FDF771FB2946FDF76EFB4946FDF79E
:1031E4006BFB8346C4F88400002800F078818D4B83
:1031F400984240F0D88003F55843DA6842F480429C
:10320400DA60DA6822F48042DA609A6942F4804231
:103214009A619B69002203F480430993099B252347
:1032240002207C4984F8E92084F8E830FEF780FC29
:10323400B8F1000F04D07849D4F8DC00FEF778FC2C
:1032440035B17649D4F8E000FEF772FC4FF480758E
:10325400B9F1000F06D07249D4F8E40045F40075C2
:10326400FEF766FC94F8E9306F4A06EB8303C3F873
:103274004C2800224FF41653C4E923320C230121B5
:1032840094F9E800C4E92735C4E92522C4F888B0D4
:10329400C4F8A420FDF78AF894F8C930B8F1000FF7
:1032A40040F0FA800BB984F8C880242384F8C9302C
:1032B400DBF80C3023F40053CBF80C30FDF7F6FCAC
:1032C400DBF8103023F49043CBF81030DBF81430E3
:1032D40023F02203CBF81430DBF8143043F0080356
:1032E400CBF81430DBF80C30202243F40053CBF835
:1032F4000C300023C4F8CC3084F8C92084F8CA20E8
:10330400C4F8BC3094F8E93006EB8303D3F84C38A6
:1033140093F8612006EB8202D2F84C1891F8412010
:1033240091F84200024302F02102212A00F0CF80EA
:1033340093F84120202A40F0D280002F00F0CF8063
:103344001FFA8AF1002900F0CA80002221205A6461
:1033540083F84100D6F848489984D9849968B1F52E
:10336400805F03D1196909B93A460F461968D88CA8
:1033740080B2002840F0BF800A68520640F1CC8039
:10338400202283F84120AAE058F8049BB9F1000FE9
:1033940007D002201F49FDF766FAD9F800308342AE
:1033A400B0D00135D0E6214B984215D103F5E63370
:1033B4001A6942F400321A611A6922F400321A615D
:1033C400DA6942F40032DA61DB69012203F4003382
:1033D4000893089B262323E7154B98422AD103F52B
:1033E400E4331A6942F480221A611A6922F48022B1
:1033F4001A61DA6942F48022DA61DB69022203F499
:1034040080230793079B27230AE700BF800100203E
:1034140000000020605C0008C05C0008205D00081B
:103424005C5D000800380140880000200044004032
:10343400004800403F4B984215D103F5E2331A6926
:1034440042F400221A611A6922F400221A61DA692C
:1034540042F40022DA61DB69032203F400230693B9
:10346400069B3423DCE6344B984238D103F5E03331
:103474001A6942F480121A611A6922F480121A61DC
:10348400DA6942F48012DA61DB69042203F48013FE
:103494000593059B3523C3E603F0FF020BB984F8BB
:1034A400C820242384F8C930DBF80C3023F40053FB
:1034B400CBF80C30FDF7FAFBDBF8103023F4904323
:1034C400CBF81030DBF8143023F02A0308E7D6F8E1
:1034D40048280198121AB2F57A7FFFF41FAF5046BC
:1034E4000BB0BDE8F08FD6F84808001BB0F57A7F22
:1034F4003FF646AFC86808680006F4D54FB932F8FD
:10350400020BC0F308004860D88C013880B2D8841C
:103514002DE717F8010BF6E7D6F84828121BB2F589
:103524007A7F3FF62DAFCA6826E703685B68984741
:10353400D5E700BF004C00400050004010B5054CDA
:10354400237833B9044B13B10448AFF3008001234B
:10355400237010BD600C002000000000905400088F
:1035640008B5034B1BB103490348AFF3008008BD02
:1035740000000000640C0020905400080023C0E9FF
:103584000033C0E9023370471FB5934B9349DA689F
:10359400934C22F4E0621204120C0A43DA60E269EA
:1035A400002042F08052E261E26902F0805203920C
:1035B400039AA26942F00102A261A26902F0010227
:1035C4000292029A626942F040026261626902F008
:1035D40040020192019AD3F8FC20D2015EBFD3F8D5
:1035E400FC2042F08072C3F8FC207E4B58601A68BD
:1035F40042F001021A6000BF00BF00BF7A4A5B6854
:10360400136843F010031360734AD36823F4E06330
:103614001B041B0C0B43D360FEF706F9636813F01D
:103624000C0F07D0636803F00C03082B3AD16368CE
:10363400DB0337D42368236823F0F80343F08003C3
:103644002360636803F00C03082B46D00022674B09
:103654001A66674AD2F8481823689B0131D40121BD
:10366400636823F4741343F4601363605F4B196657
:10367400D2F848182368980129D55B4A136813F0D7
:10368400060F33D0636843F4E0636360636843F414
:1036940060536360636823F0F003636023689801F8
:1036A40030D4FEE70122514B1A60514AD2F848182F
:1036B40023689807BFD4D2F848385B1A022BF7D98D
:1036C400FEE7D2F848385B1A022BC5D9F8E7D2F8DE
:1036D40048385B1A022BCDD9F2E76368DA03EFD4DA
:1036E40003F47013B3F5601FC7D0E9E7136823F040
:1036F400070343F002031360136803F00703022B6C
:10370400CFD1BFE741F288306368394A23F003031D
:1037140043F002036360D2F84818636803F00C03B3
:10372400082B30D1304A136803F00703022B30D83A
:103734006368304A23F4E06343F48063636063683E
:1037440023F460536360616801F00C03082B2DD0EF
:10375400294B6168294CC1F303110A4492F89A2554
:10376400D4F80001D340C4F88030FEF75DF894F833
:10377400213103F0FF020BB984F82021012384F8DE
:10378400213104B010BDD2F848385B1A8342C4D941
:1037940087E7136823F0070343F0020313601368F9
:1037A40003F00703022B7FF47CAFC1E7C1F383432B
:1037B4001344C90393F888350AD561680E48C1F3E8
:1037C40040414343114491F89815B3FBF1F3C0E72A
:1037D4000B494B43BDE700BF00ED00E00003FA05D1
:1037E40000100240001000E00020024000004242AD
:1037F40080010020A854000800127A000000002074
:1038040000093D002DE98048DFF8C8A1B7B0AFF347
:103814000080DAF81830704A43F00103CAF818300F
:10382400DAF818306D4C03F001030793079B5368D3
:103834004FF0000823F0E06343F0007353604FF04F
:10384400E023D4F848189A690892D4F848589A6939
:103854008D424FF47A7109925A6914BF099B089BEF
:103864000132D31A4B43B3FBF2F301FB0535FCF7EA
:10387400D1FC454084F8A45AFCF7CCFC0C22584BEC
:10388400C4F89C0AC3E949220A22C3F80421C3F8F4
:103894000C2144F62062C3F81021524B84F8988A14
:1038A400994603F1540503F1200603F110070121A1
:1038B40059F8040BFEF773FD012157F8040BFEF7CA
:1038C4006EFD012156F8040BFEF769FD022155F83F
:1038D400040BFEF764FD5FFA88F008F10108FFF7B6
:1038E400C7F9B8F1040FE2D102212320FEF757FDF6
:1038F40043253D4EA6F14807FCF7DCFC16F8013BD6
:10390400013D07F8013BF7D12268384B9A4271D048
:103914003A220021364801F008FC43222270462254
:1039240062704722A2703122E27001220023032137
:10393400E271627107221D466FF0770C132764262B
:103944006FF0170021712372A2711A1D04EB420259
:1039540082F801C0977003F1080204EB420256702A
:10396400957003F10C0204EB42025070917003F164
:103974001002013304EB4202042B50709170E4D125
:103984006FF0230384F83930052384F83A306FF05C
:10399400050384F83B306FF0370384F83D306FF053
:1039A400500343220D4925A884F83E3084F83C5046
:1039B40084F83F5084F8405001F00CFD432125A8C1
:1039C4008DF8D5508DF8D650FCF70AFCA4F84100C8
:1039D40025E000BF001002400000014080010020EB
:1039E40000000020005A0008C80100204346473167
:1039F400890100202379032B8AD143229C4925A8DD
:103A0400B4F8416001F0E6FC432125A88DF8D550B7
:103A14008DF8D650FCF7E4FB86427FF479AF02219F
:103A24002520FEF7BCFC0121D4F81809FEF7B7FCE9
:103A340000250121D4F81809FDF7BAF88D480A4683
:103A44002B46A4F8D0182946C4F8CC0884F8B158F9
:103A540084F8D258FEF778F8FEF726FB122284F891
:103A6400940A85494020FEF7C5FAD4F8A53A834A5A
:103A7400934240F0F48094F8AF3A012B40F0EF8089
:103A840012217D48B4F8AD6A84F8AD5A84F8AE5A70
:103A9400FCF7A6FBB7B28742A4F8AD6A40F0DF801A
:103AA40094F8B03A5B1B18BF012384F8B73AFEF7C9
:103AB40097FD0121D4F82C09A679FEF770FC0121A9
:103AC400D4F82C09FDF774F8D4F83009FEF767FC34
:103AD400D4F8305901212846FDF76AF8022000275E
:103AE400FDF7D8F8284601250021FDF761F81420D8
:103AF400FDF7D0F85F482A463B463946C4F8CC085F
:103B040084F8B178A4F8D05884F8D278FEF71CF879
:103B14005B4B8DF89A70259340F20133ADF89830E1
:103B240026995748FEF7B2F93946D4F82C09FDF71F
:103B34003FF87A20FDF7FCF87A20FDF7F9F82946DA
:103B4400D4F82C09FDF734F8FD20FEF733FB502898
:103B54000CBF2B463B4684F8343940F0868030460F
:103B6400FEF762FB2946DAF8183084F8A31A43F00A
:103B74000903CAF81830DAF81C3043F00073CAF8A5
:103B84001C30404B5A6822F0FF025A605A6842F0D7
:103B9400B8025A60DA6842F48072DA603A4A5368CA
:103BA40023F4C04343F4804353604522374B1A60E7
:103BB400D4F84818364AD2F80434DE076CD5FCF73A
:103BC40025FC3449B0FBF1F2531EB3F5806F68D283
:103BD4004A43904265D12D4A43F47013D361D2F81D
:103BE4000032A2F5806243F00103C2F80036D2F835
:103BF4001C3623F00103C2F81C36D2F8043623F035
:103C04000103C2F80436D2F80C3643F00103C2F8BB
:103C14000C36D2F8143623F00103C2F8143600230C
:103C2400C2F84036C2F84436D2F81C3643F00103D9
:103C3400C2F81C36D2F8003623F00103C2F800366D
:103C4400D2F8003423F00103C2F80034D4F8481841
:103C5400D2F80434DD0700F1C180012322E01222EE
:103C64000021054801F061FA21E739467BE700BFEE
:103C74008001002000093D00250C002050575231DE
:103C840040420F00000C014000000140006400406D
:103C94000060004040548900D4F848385B1A132B64
:103CA40089D9002384F8A03AFFF72AF894F8941AE3
:103CB400002940F09A800120FFF70CF8DAF824304C
:103CC40043F00103CAF82430DAF824309807FBD50E
:103CD4004CF6CC42B94B1A60012284F8B82A45F25A
:103CE40055521A6003225A6040F6A5629A60DA6857
:103CF4009207FCD14AF6AA22B14C1A6094F8B83A59
:103D0400D4F848B81BB14AF6AA22AC4B1A6094F80E
:103D1400983A002B70D12320FCF780FF00286BD148
:103D240094F8B93A002B55D12320FCF777FF0028EB
:103D340050D14FF0010BD4F84828A24B009293F8CD
:103D44001471CDE9270094F8B15A94F8969A94F82E
:103D5400978A94F8956AADF8A40084F8B9BAFEF786
:103D6400ABFF59460420FCF723FF974B009A259399
:103D740040F201135D441221EDB225A82692ADF85C
:103D84009E308DF8A0508DF8A1908DF8A2808DF80A
:103D9400A3708DF8A460FCF723FA1222ADF89C00FE
:103DA40025A94020FEF79AF880B1884A25AB29AEB0
:103DB4001D4603CDB542106051602B4602F1080246
:103DC400F6D12B881380012384F8B73A0021092007
:103DD400FEF780FF0120FCF75DFF8FE7D4F8483839
:103DE4005B1A132B7FF634AF5BE794F8A31A002910
:103DF4007FF464AF0D205FE70023CDF84B30CDF89E
:103E04004F30734AD36898070AD0724BD3F8B03056
:103E140013F0040700F08782D36843F02003D360D3
:103E240094F8983AABB994F8B73A93B194F8943AB1
:103E34007BB194F8A03A63B12320FCF7EFFE40B1C4
:103E4400D4F84838D4F8CC2A9B1AB3F57A7F80F09A
:103E5400A382D4F8D03AABEB0303092B00F2E3823C
:103E6400D4F8D83AABEB0303042B40F29E87554FAA
:103E740000263D46DFF86091C4F8D8BA2B7F002BAA
:103E840000F03C8759F82600FCF7C8FE5FFA86F874
:103E940008F1010101282B7AC9B240F0D88643F019
:103EA40004022A72321D04EB4202B5F804C0B2F8CF
:103EB40001206245C0F0E48600222A6100F0E6BEDB
:103EC400B3F5F86F40F0E480082840F0E180009AF0
:103ED400C1F307430E0E8DF84E208DF84BE08DF89C
:103EE4004CC08DF84D908DF851308DF85260DDF84E
:103EF4004B00DDF84F1010AA03C294F8982A002A48
:103F04007FF47FAFD4F89C1A81427FF47AAF94F89F
:103F1400961A0339012904D8022110A8FEF766FF76
:103F24006FE7B8F13F0F00F29380012B40F09080CF
:103F3400012D00F28D8015AB0E22002118460127B9
:103F440001F0F3F806F03F068DF859808DF85A50C9
:103F54008DF85B70ADF85E600DF1640C0FC8ACE8D1
:103F640007000E2200211DA8ACF8003001F0DDF896
:103F74000E22002121A801F0D8F81DA90020FEF787
:103F84006FF821A981462020FEF76AF830B3B9F111
:103F9400000F59D0BDF88C30BDF87C209B1A1BB2A1
:103FA400002B51DC00201DAB1B89814601339BB2E1
:103FB400012B38BF0123ADF86C3014E00030004011
:103FC400800100200000002050575231250C0020B1
:103FD4000064004000650040545A0008B9F1000F25
:103FE40034D1ADF86C70774B0E211993012319A8C5
:103FF4008DF86830FCF7F4F889F00107FFB27F010F
:10400400ADF870000E22384619A9FDF767FFA8B174
:1040140000210E2225A801F088F8384625A9FEF7CC
:104024001FF858B10E2225A919A801F0C3F90746B3
:1040340020B9FEF739F884F8940A60B90123002204
:1040440003218DF8463068E721ABADE71DABABE744
:104054000022012161E794F821394345EED194F817
:104064002239AB42EAD194F82359012DE6D1B4F8B0
:104074002639B342E2D1FEF7B3FAFEF741FE3946E0
:10408400B4F8242910A88DF84650FEF7AFFE80E15D
:1040940094F8941A00293FF4B4AE94F8211901F568
:1040A40080718B427FF4ADAE08287FF4AAAEBEF1D6
:1040B400010F7FF4A6AED4F848184348C4F8C01AD8
:1040C40090F82C11BDF84F30614504D1A9F10401D9
:1040D40001293FF696AED4F84818B9F10D0F80F8CF
:1040E4002CC1C4F8C01A1BD194F8985A002D6FD172
:1040F400A371B4F807300133A4F80730FCF77AFE53
:1041040094F8A33A2BB194F8343913B1A079FEF79B
:104114008BF894F8A22AA379134084F8A23A70E6A3
:10412400A9F10403082B53D8DFE803F005410E522C
:10413400525252521100FEF7BFFD002384F8973A01
:10414400022384F8963A5CE6FEF7DAFD59E6002588
:10415400FEF7B2FD1D4B6FF017021D605D609D60A0
:10416400DD600323A37684F82230237784F8243097
:10417400A37784F8263084F8203084F82830B4F803
:1041840007306276013384F82120E27684F8232014
:10419400627784F82520E27784F82720A4F8073092
:1041A400FCF728FEFCF763F884F8975AC8E794F8FC
:1041B400963A01F57A71012BC4F8C41A7FF421AE42
:1041C400BEE700BF57494E3100000020A90100207E
:1041D400D4F8C43A5B1A002B03DC009BDB077FF5A1
:1041E40010AE90F81431002B7FF40BAE4846FCF768
:1041F4002FF8804600283FF404AEBE4B93F8972A6C
:104204004A4505D193F8963A033B012B7FF6F9AD65
:10421400A9F10706F3B2012B02938CBF03230423F5
:104224001D1F84F8963A6B426B4108F1FF3684F8FF
:10423400C83A734273410026A8F1020C0493DCF1DE
:10424400000343EB0C030593AB4BAC4D0393103BC2
:104254000193103B0093A74B84F8979A029AF8B203
:10426400012A5DD9B8F1010F0CBF07F10C0107F168
:10427400100103EB4101B1F80190FEF7F9FC1E2097
:10428400FCF708FD019B049953F8040B0193FCF718
:104294008FFC039B059953F8040B0393FCF788FCEC
:1042A400944BC5E90566D3F8481885F80080C5E93C
:1042B4000316012129770521297207F114016E776C
:1042C40003EB4101B1F8011041B107F1180103EB0F
:1042D4004101B1F8011009B145212972B8F1010F6A
:1042E40008BF297A009B04BF41F002012972B9F585
:1042F4007A7F28BF4FF47A794FF47A71C9EB892019
:10430400B0FBF1F153F8040B01370093FEF784F985
:10431400042FA5F80690774B05F120059ED170E592
:104324004FF47A79A9E77649764ED1F8B400D1F8FA
:10433400B820D1F8BC105FFA82FEC2F3072CC2F396
:104344000749120E009232465FFA81F8C1F307253D
:104354008DF84F808DF85050F6685B0D46F02006BE
:10436400B3F5E06F00F00F00D6607FF4A9ADD4F888
:10437400BC3AD4F84828D21AD4F89C3A03F03F0344
:104384003233B2EB430F7FF63CADD4F84838C4F86F
:10439400BC3AFEF703FD34E5D4F8483894F8210913
:1043A400C4F8CC3A01238DF884300C238DF8863080
:1043B40094F8B13A21A98DF8853094F8B53A00F50E
:1043C40060708DF88730D4F8A93A2293FEF7BAFCCE
:1043D40000283FF43EAD4C4B25AA03F110061546C8
:1043E40018685968083303C5B3422A46F7D11B88B5
:1043F40012212B80002525A88DF89F50ADF89C50E4
:10440400FBF7EEFE1222ADF89C0025A94020FDF733
:1044140065FD00283FF41DAD84F8B05A84F8B75AFE
:1044240084F8B95A15E5394BDFF8D080019300239D
:10443400C4F8D0BA0093019A52F8043B13F0F00088
:10444400019269D13249DAB201EB8202D2F8F82042
:1044540003F4E0661643D2B2322A40F28C8006F0AE
:10446400C001C02902D1CF2A40F2B380392380B2DF
:104474005843B0F5202F36BF0A234FF6FF70B0FB28
:10448400F3F0B8F8043082B2A8F8022023B1C3EBE9
:10449400C3030344C3F3CF02009BA8F804201033E2
:1044A400402B009308F12008C5D100254FF00108E6
:1044B4002946184F57F8040BB4F82669FCF7AEFBED
:1044C400EE4006F00106B04204BF08FA05F30B43C0
:1044D40005F1010508BFD9B2032DEBD101F00303A7
:1044E400032B84F8A11A40F07C8300210820FEF7F6
:1044F400F1FBB5E480010020205A000800000020F0
:104504000065004000640040250C0020645A000847
:10451400A8540008E459000803F0C002C02A22D1BC
:10452400DDB2CF2D1FD89A4903F03F0201EB82027E
:10453400D2F8F82003F4E0661643D2B2322A44D902
:1045440006F0C006C02E0ED1CF2D0CD8904A03F031
:104554003F0102EB8102D2F8F82003F4E06616432F
:10456400D2B2CF2A35D9D02B54D0D12B40F03783B7
:1045740041F2020608E0864901EB8202D26A06F49F
:10458400E0661643711CEED0824B3022D3F82831FA
:10459400002125A8029300F0C8FD0023CDE92133B2
:1045A4002393ADF81A3016F48053039335D041F2B7
:1045B40002039E4231D8784A259241F20102964282
:1045C40039D09E4200F0AD80FEE701EB8201CA6A59
:1045D400D5E76F4A06F03F0602EB8606D6F8F810D8
:1045E40002EB8101CE6A40B9D9B202EB8102D2F862
:1045F400F8201A4302F4E062C3E703F0C001C029C3
:1046040005D1D9B2CF2902D803F03F01EDE74FF429
:10461400E062B6E741F20106B6E760493046FCF7CE
:1046240022F95E4925903046FCF729F9C0F3C437D6
:10463400112F78D9FEE710274FF00709259D002D8B
:1046440000F09E80012329934FF460232C930023D0
:104654002F93504BC3F808612F9BABB930934E4B4B
:104664009D4263D1DAF8183043F40073CAF8183065
:10467400DAF8183003F400730C930C9B039B1BB9FA
:1046840030464649FDF754FA25A8FBF75BFE2F9BFD
:1046940013F0100F2F9B40F05E81002840F05B81E7
:1046A40023F4885323F0020343F002032F936B682F
:1046B40023F469436B60AA68394B134043F46023C5
:1046C400AB60EB6A23F47003EB62AA68354B1340CA
:1046D400B3F5602F4AD130902F9B092F23F00303A9
:1046E40043F001032F934FF001030D90CDE92239DC
:1046F4008DF8B8306B6B4FF0070223F01F0343EAC9
:1047040007036B63234E219707EB470350D82969AE
:104714009A4021EA020209FA03F942EA09022A61EB
:1047240055E0112788E74FF0020987E71E4B9D42A9
:104734000CD1DAF8183043F48063CAF81830DAF888
:10474400183003F480630B930B9B97E7174B9D4240
:1047540094D1DAF8183043F40043CAF81830DAF880
:10476400183003F400430A930A9B87E72F9B23F036
:10477400120343F010032F93309B43F00103309353
:104784000020044B0299D3F82421FCF7FEF96DE6CE
:10479400A85400080000002000240140745A0008B6
:1047A400FDF7E1FFFE0E1FFF00280140003C014021
:1047B400E968A3F11E00824021EA020109FA00F32C
:1047C4000B43EB60A7F11003012B40F2968000230A
:1047D4000E93012325A88DF8B830FBF7B3FD25A867
:1047E400FBF774FD0028CBD12F9BD6F8806023F40F
:1047F400885323F0020343F002032F93FBF718FEC0
:10480400844F7B68C3F3813301335B00B0FBF3F067
:10481400B6FBF0F040000E900E9B002B40F08A8017
:10482400AB68DFF8F49143F00803AB60D9F848288B
:10483400AB68190700F18280AB6843F00403AB60F6
:10484400D9F84828AB68580700F189802F9B25A820
:1048540023F0030343F001032F9301238DF8B830B1
:10486400FBF734FD00288BD12F9B23F4407323F0F6
:10487400010343F480732F93684B9D4204D1684A2B
:10488400536813F4702F75D12F9B23F480132F9347
:104894006B68590541BF2F9B23F4405343F4805365
:1048A4002F932F9B13F480531CBF309B23F00603DC
:1048B400309300238DF8B8306FF002032B60AB689F
:1048C40003F46023B3F5602F5AD1544B9D4205D1B4
:1048D400A3F580635B6813F4702F51D1AB6843F484
:1048E400A003AB6000230F93D9F84818AB68DA052E
:1048F4004AD52F9B43F020032FE0494B9D42F8D12A
:10490400AB681B023FF563AFAB68102F43F40003A1
:10491400AB607FF45CAF434AD6F88030B3FBF2F36C
:104924000A2253430D930D9B002B3FF450AF0D9B74
:10493400013BF7E70E9B013B0E936DE7D9F848382E
:104944009B1A0A2B7FF674AFAB6818077FF570AF1C
:104954002F9B23F0120343F010032F9310E7D9F891
:1049640048389B1A0A2B7FF66DAFAB685B077FF55F
:1049740069AFEDE72F9B43F480132F93536888E7C7
:10498400AB6843F48013ACE76B68DB0503D4EB6AD4
:1049940013F4700F4ED0FBF74BFD7B682A69C3F309
:1049A400813301335B00B0FBF3F01F4BB6FBF0F037
:1049B4001A421E4B40F0DA80EE681D4A164240F05F
:1049C400D5802A691A4240F0E280EA6803F16E4316
:1049D4001A420CBF1423292343430F480F9A9342CE
:1049E4002BD9D0F84828521A0A2A02D90F9A93428E
:1049F4000BD80F9A01320F92F0E7D9F848385B1AB6
:104A04000A2B17D92B689E0714D42F9B43F0040359
:104A1400A3E700BF001002408001002000280140ED
:104A24000024014040420F00244992249224491258
:104A3400244992002B689807DFD56FF012032B608E
:104A44002F9B43F400732F93AB6803F46023B3F5F7
:104A5400602F0AD12F9B23F480732F932F9BDA04AA
:104A64005EBF2F9B43F001032F932F9B25A89B052B
:104A740042BFEB6C9BB2ADF81A3001238DF8B8300D
:104A8400FBF760FC00287FF47BAE2F9B8DF8B80009
:104A940023F4885323F0010343F001032F932F9B46
:104AA40025A843F002032F93FBF74CFC00287FF466
:104AB40067AE6FF01F032B606A68684B13406B602E
:104AC400AA68674B1340AB60EB6803F07F43EB606D
:104AD4002B6903F040432B616A69624B1A406A6197
:104AE400AA691A40AA61EA691A40EA612A6A1A4064
:104AF4002A626A6A1A406A62AA6A1340AB62EB6A63
:104B0400594A03F07F43EB62EB6A03F07F43EB62A5
:104B14002B6B03F040432B636B6B03F040436B63DD
:104B2400AB6B1340AB63AB6B1340AB634F4B9D421A
:104B340033D1FB6843F40073FB60FB6823F4007318
:104B4400FB60BB6923F40073BB61002330932F9394
:104B5400464B9D4202D0464A954203D19A6822F4BC
:104B640000029A60BDF81A0080B20AE62A691A4265
:104B740003D1EA683F4B1A420BD02A693E4B1A42D2
:104B840009D1EA681A420CBF5423FC2324E72923E1
:104B940022E7542320E7FC231EE7354B9D420FD127
:104BA400FB6843F48063FB60FB6823F48063FB6071
:104BB400BB6923F48063BB61BB6923F48063C3E7EF
:104BC4002E4B9D42C1D1FB6843F40043FB60FB685C
:104BD40023F40043FB60BB6923F40043B4E70020E3
:104BE40044E411F0010304D111F0020F14BF0223B5
:104BF400032384F8D43A94F8A33A93B194F834593B
:104C04002DB10320FDF7D6FA0546FDF703FBA37982
:104C14001D4094F8A23AAB4203D084F8A25AFEF79E
:104C2400F7F894F8A23A4BB194F8970AFBF710FB03
:104C3400022803D100210720FEF74CF82320FBF7BC
:104C4400EDFF014600287FF40BA909204FE406205C
:104C540023F004032B72FEF73DF84FE000003FFF02
:104C6400F00601FF00F0FFFF0000C0FF0024014038
:104C7400002801409224490049922400003C01404C
:104C84002A69002A40F01081C5F810B006F1080224
:104C940004EB4202B2F801E0E868F445ABEB000033
:104CA40000F20C816A690AB9C5F814B0B4F8392065
:104CB4009042C0F059816A69002A00F00A81B4F870
:104CC4003BC0ABEB02026245C0F003814FF6FF72BA
:104CD400824228BF0246297892B2012940F0F2802C
:104CE40004EB4601A1F8292043F00C032B72FBF7D7
:104CF400BEFA012340466B77FDF7BAFF0136042E56
:104D040005F120057FF4BAA800233A7F002A40F079
:104D140017817A7F002A00F013810133042B07F1F5
:104D24002007F2D194F8C83A43B394F8983A2BBBCD
:104D3400194694F8970A974AADF8943025AF072896
:104D44000CBF03F1140603F1180604EB4606B6F88B
:104D540001600CBF154602F10805B14228BF3D466B
:104D640001332988042BADF8941002F10202E6D134
:104D7400002940F0B5800B20FDF7ACFF002384F838
:104D8400C83A854B93F81421002A40F0D98094F84E
:104D9400970AFBF75DFA012818BF0220022384F862
:104DA400D40A84F8972A84F8963A94F8962AD31E5B
:104DB400012B8CBF4FF47A716421D4F8DC3AABEB4D
:104DC40003038B42FEF49AAF94F8943AC4F8DCBA25
:104DD400002B3EF493AF94F8A03A002B3EF48EAF30
:104DE40001238DF874308DF87B3094F8A43A6A4D21
:104DF4008DF8753094F8973A94F821098DF8773046
:104E040094F8D43A1DA98DF8783095F8143100F54A
:104E1400C0708DF8793094F8953A8DF876208DF835
:104E24007A30FDF78FFFFDF7F3FFAB8894F8216923
:104E3400ADF88430EB8806F1A0009B088DF888302B
:104E44002B7A21A98DF88A30AB8C8000ADF886309E
:104E5400EB8C9B088DF8893095F828308DF88B30D1
:104E6400FDF770FFB5F84430B000ADF89430B5F8F4
:104E7400463025A99B088DF8983095F8483000F203
:104E840081208DF89A30B5F86430ADF89630B5F8D5
:104E940066309B088DF8993095F868308DF89B3012
:104EA400FDF750FFFEF72ABFABEB02023B2A7FF669
:104EB400EDAE43F0140303202B72CCE60022C5E9C7
:104EC4000522F3E6022904BF04EB4601A1F83120D0
:104ED4000AE7D4F83D309842FFF410AF0520BAE653
:104EE40000224FF47A7507280CBF02F1140302F173
:104EF400180304EB4303B3F8013004EB42066B439D
:104F0400B3FBF1F39BB2B3F57A7F28BF4FF47A7306
:104F1400B3F5167F38BF4FF41673013207280CBF60
:104F2400A6F81930A6F82130042ADCD1B4F80730E9
:104F34000133A4F80730FBF75DFFFBF798F91DE791
:104F4400164A92F8963A033B012B3FF62EAFD2F85D
:104F5400C03AABEB0303B3F5967F7FF626AF00218F
:104F64000220FDF7B7FE20E7B0F52F7FB1D3F4455B
:104F7400AFD8AA6912B95A46C5F818B0B4F83BC0FC
:104F8400ABEB02026245A4D343F0240304202B724A
:104F940061E600BFA901002000000020800100207C
:104FA40070B506260725454C172204F63C1084F8F4
:104FB4003869FEF7E3FA04F5156084F84C59FEF7F6
:104FC400DDFA082304F6641084F86039FEF7D6FA93
:104FD400092304F6781084F87439FEF7CFFA0A230B
:104FE40004F68C1084F88839FEF7C8FA04F51A60C0
:104FF40084F89C29FEF7C2FA04F6B41084F8B029A8
:10500400FEF7BCFA04F6C81084F8C429FEF7B6FA11
:1050140004F6DC1084F8D829FEF7B0FA84F8EC29F9
:10502400282204F51F60FEF7A9FA04F6042084F888
:10503400002AFEF7A3FA04F6182084F8142AFEF7CF
:105044009DFA04F62C2084F8282AFEF797FA04F532
:10505400246084F83C2AFEF791FA04F6542084F87C
:10506400502AFEF78BFA04F6682084F8642AFEF7C7
:1050740085FA134B5C22C4F8CC380123002104F5D3
:105084000660C4F8D03800F050F80523C4F8C438DA
:105094004FF0FF33C4F8C8380423C4F82C392A234A
:1050A400C4F83039002384F834392423C4F8BC68A4
:1050B400C4F8C058C4F8183970BD00BF800100207E
:1050C40000093D0038B5054CA4F5A075143C201D1D
:1050D400FCF71CF8AC42F9D138BD00BFF80B002036
:1050E400FDF771FF0B480C490C4A002302E0D45829
:1050F400C4500433C4188C42F9D3094A094C002320
:1051040001E013600432A242FBD300F017F8FEF76B
:1051140079FB70470000002080010020AC5D00088E
:1051240080010020C40D0020FEE7034602449342A0
:1051340000D1704703F8011BF9E7000070B50026A1
:105144000C4D0D4B5B1B9C10A64209D1002600F0B0
:105154009DF90A4D0A4B5B1B9C10A64205D170BDFC
:1051640055F8043B98470136EEE755F8043B984759
:105174000136F2E7985D0008985D0008985D000824
:10518400A45D00087047704738B50546002940D033
:1051940051F8043C0C1F002BB8BFE41800F0DEF8F3
:1051A4001C4A136833B9636014602846BDE838406C
:1051B40000F0DAB8A34208D9206821188B4201BF55
:1051C40019685B6809182160EDE71A465B680BB142
:1051D400A342FAD911685018A0420BD120680144A7
:1051E400501883421160E0D118685B68084410606D
:1051F4005360DAE702D90C232B60D6E72068211824
:105204008B4201BF19685B680918216063605460B0
:10521400CBE738BDC00D002070B50F4E0C46316889
:10522400054611B900F0A6F830602146284600F082
:10523400A1F8431C03D14FF0FF34204670BDC41CB9
:1052440024F00304A042F8D0211A284600F092F872
:105254000130F2D1EFE700BFBC0D00202DE9F84387
:10526400CD1C25F0030508350C2D38BF0C25002D69
:10527400064601DBA94204D90C2333600020BDE8B3
:10528400F883DFF8D48000F069F8D8F800301C46C1
:1052940044BB29463046FFF7BFFF431C044658D1A0
:1052A400D8F800402746002F43D1002C4BD0236868
:1052B4003946304604EB030900F05CF8814542D1DD
:1052C400216830466D1A2946FFF7A6FF01303AD00F
:1052D40023682B442360D8F800305A6862BBC8F8AE
:1052E40000700FE02268521B20D40B2A17D96119D1
:1052F400A342256018BF5960636808BFC8F800104E
:1053040062514B60304600F02FF804F10B00231D6E
:1053140020F00700C21A1CBF1B1AA350AFE7626833
:10532400A3420CBFC8F800205A60EBE72346646828
:10533400AEE73C467F68B6E71A465B68A342FBD1FA
:1053440000235360DEE70C233046336000F00CF892
:1053540094E70560D6E700BFC00D00200148FFF7C1
:1053640011BF00BFB80D00200148FFF70CBF00BFFC
:10537400B80D002038B50023054D044608462B60BF
:10538400FDF790FE431C02D12B6803B1236038BDA6
:10539400B40D0020024B01461868FFF75FBF00BF41
:1053A40030010020024B01461868FFF7EDBE00BF34
:1053B4003001002010B501390244904201D100208F
:1053C40005E0037811F8014FA34201D0181B10BD6A
:1053D4000130F2E70A44914200F1FF3300D17047F3
:1053E40010B511F8014B914203F8014FF9D110BDEA
:1053F40008B500F000F8062008B500F02BF80120ED
:10540400FDF777FE1F2938B505460C4604D9162347
:1054140003604FF0FF3038BDC26B12B152F8213037
:105424004BB9284600F030F8224601462846BDE82C
:10543400384000F017B8012B0AD0591C03D11623A9
:1054440003600120E7E70021204642F82410984732
:105454000020E0E7024B01461868FFF7D3BF00BF06
:105464003001002038B50023064D04460846114695
:105474002B60FDF73FFE431C02D12B6803B1236070
:1054840038BD00BFB40D0020FDF73CBEF8B500BF29
:10549400F8BC08BC9E467047F8B500BFF8BC08BC11
:0454A4009E46704769
:1054A8000000000001020304040000000074004032
:1054B80003800000050000000074004003000100A4
:1054C800FFFFFFFF000000000000000000000000D8
:1054D80001000000020000000300000004000000BA
:1054E800050000000600000007000000080000009A
:1054F800090000000A0000000B0000000C0000007A
:105508000D0000000E0000000F0000001000000059
:105518001100000012000000130000001400000039
:105528001500000016000000170000001800000019
:10553800190000001A0000001B0000001C000000F9
:105548001D0000001E0000001F00000020000000D9
:1055580021000000220000002300000024000000B9
:105568002500000026000000270000002800000099
:10557800290000002A0000002B0000002C00000079
:105588002D0000002E0000002F0000003000000059
:10559800310000003200000000000000010000009F
:1055A80002000000030000000400000005000000E5
:1055B80006000000070000001000000011000000B5
:1055C800200000002100000022000000230000004D
:1055D800240000002500000000080140000C0140E4
:1055E800001001400014014000180140001C014057
:1055F8000020014001010000020200000404000034
:1056080008080000101000002020000040400000A2
:105618008080000001000104020002040400040468
:105628000800080410001004200020044000400472
:1056380080008004070000000030014012020000D2
:1056480015000000003001401201000015010000A3
:10565800003C0040120000001F000000003800401D
:1056680012000000FFFFFFFF000000000000000024
:105678000600000000300140120200001400000083
:10568800003001401201000014010000003C0040FD
:10569800120000001E000000003800401200000048
:1056A800FFFFFFFF000000000000000005000000F1
:1056B80000300140120200001300000000300140D9
:1056C8001201000013010000003C0040120000001D
:1056D8001D0000000038004012000000FFFFFFFF1F
:1056E800000000000000000004000000003001403D
:1056F800120200000F0000000030014012010000FB
:105708000F010000003C0040120000001C000000D7
:105718000038004012000000FFFFFFFF00000000FB
:10572800000000000000000000000040128000009F
:10573800000100000000004012900000000200007C
:10574800000C004012800000010000000000004032
:1057580012120100010100000000004012100100B7
:1057680001020000000C00401200010002000000CD
:1057780000000040129201000201000000000040F9
:105788001291010002020000000C0040128001008A
:105798000300000000000040121202000301000094
:1057A800000000401211020003020000000C00403B
:1057B80012000200060000000004004012950000DC
:1057C80007000000002C0140128D100007010000A6
:1057D80000040040121501000702000000340140D7
:1057E8001280100008000000002C0140128E0000FA
:1057F80008010000002C0140128D00000900000083
:10580800002C0140120E010009010000002C01408B
:10581800120D01000A000000002C0140128E010048
:105828000A010000002C0140128D01000B0000004D
:10583800002C0140120E02000B010000002C014058
:10584800120D02000F00000000000040129100003D
:105858000F01000000000040128F0000100000003F
:10586800002C0140120D110010010000000400403E
:10587800129501001002000000040040129401007B
:105888001003000000340140120011001100000054
:10589800002C0140128D110011010000000400408D
:1058A8001215020011020000000400401214020048
:1058B80011030000003401401280110013000000A1
:1058C8000000004012110100130100000000004018
:1058D800120F0100140000000004004012940000A0
:1058E800150000000004004012140100160000001A
:1058F8000008004012970000170000000008004050
:10590800121701001800000000080040129701005B
:105918001900000000080040121702001A000000D9
:1059280000000040129001001A0100000000004031
:10593800128F01001B00000000000040121002003E
:105948001B01000000000040120F02001D000000B3
:10595800002C0140128E10001E000000002C014097
:10596800120E11001F000000002C0140128E1100C1
:1059780026000000000400401293000026010000E9
:10598800003401401280000027000000000400409D
:105998001213010027010000003401401200010029
:1059A80028000000000400401293010028010000B4
:1059B800003401401280010029000000000400406A
:1059C80012130200290100000034014012000200F5
:1059D800FFFFFFFF000000000000000020000000A3
:1059E8002100000022000000020104030204081044
:1059F8000400400000040000080000000900000046
:105A08000A0000000B000000100000001A0000004F
:105A18001C0000001E000000110000001B00000018
:105A28001D0000001F000000020304050607080906
:105A38000A0B0C0D0E0F10100102000000000000F0
:105A48000000010203040607080900002600000000
:105A580027000000280000002900000000000000C6
:105A68000100000002000000030000000000000028
:105A7800002401400300000000010000002801404C
:105A88000300000000020000003C01400300000089
:105A98000100000000240140038000000101000013
:105AA800002801400380000001020000003C014082
:105AB80003800000020000000024014003000100F0
:105AC800020100000028014003000100020200005A
