:020000040800F2
:10000000005000205D510008A5510008A5510008CE
:10001000A5510008A5510008A551000800000000E6
:10002000000000000000000000000000A5510008D2
:10003000A551000800000000A55100085530000837
:10004000A5510008A5510008A5510008A5510008B8
:10005000A5510008A5510008693000086F3000085C
:10006000753000087B30000881300008A551000879
:10007000A5510008A5510008A5510008A551000888
:10008000A5510008A5510008A5510008A551000878
:10009000A5510008A5510008A551000887300008A7
:1000A000A5510008F92F0008A55100080D300008DF
:1000B000113000082530000839300008A55100082B
:1000C000A5510008A5510008A5510008A551000838
:1000D000A5510008113100082D3100084D310008EC
:1000E000AF300008A5510008A5510008000000002D
:1000F0000000000000000000000000000000000000
:0C01000000000000000000005FF808F1A3
:10010C00024670B5014441F221054FF6FF700824F8
:10011C0012F8013B80EA032006B2430098B2002E8D
:10012C0004F1FF33B8BF684013F0FF04F4D19142DF
:10013C00EDD170BD30B541F221040A44914200D199
:10014C0030BD11F8013B80EA0320082305B24000C2
:10015C00002D80B203F1FF33B8BF604013F0FF03F2
:10016C00F4D1EBE770B50A4A0A480B4D0B4C04234B
:10017C001168CEB2013B704013F0FF0305FB00F099
:10018C004FEA1121F5D10432A242F0D170BD00BF6B
:10019C00E8F7FF1FC59D1C8193010001F4F7FF1FB9
:1001AC000138072807D8DFE800F004080606060621
:1001BC00040801207047002070470220704708B5E2
:1001CC004FF480620249034805F016F808BD00BFE1
:1001DC0000FC010840010020002313B501930368C3
:1001EC009A68D10702D5002002B010BD9A68144954
:1001FC0042F001029A60134A1268B2FBF1F20192CA
:10020C00019AD2B91049D1F800449A68D207EAD4BD
:10021C00D1F80024121B022AF7D99A6812F00102B5
:10022C00F3D1836A80F8242043F010038362C36AFD
:10023C0043F00103C3620120D6E7019A013ADEE7DD
:10024C0040420F000000002040010020036810B560
:10025C009A68D10701D4002010BD9A680D4922F08C
:10026C0001029A60D1F800449A68D207F3D5D1F80C
:10027C000024121B022AF7D99A68D207F4D5836A94
:10028C0043F010038362C36A43F00103C36201208D
:10029C00E2E700BF40010020002807DB01234109F1
:1002AC00034A00F01F00834042F82130704700BF22
:1002BC0000E100E000280CDB01220649430900F0B4
:1002CC001F008240203341F82320BFF34F8FBFF330
:1002DC006F8F704700E100E0154B30B5DC68C4F35C
:1002EC000224C4F10703251D042B28BF0423062D6B
:1002FC004FF0FF3594BF0024033C05FA03F321EAC9
:10030C000303A54022EA0502A340002843EA0203A6
:10031C00ACBF00F16040074A4FEA0313DBB2ABBF3E
:10032C0000F5614000F00F0080F80033135430BD2D
:10033C0000ED00E014ED00E0044B054A5B68C3F3EC
:10034C000223D35C034A1068D84070470010024067
:10035C002455000800000020044B054A5B68C3F3D9
:10036C00C223D35C034A1068D84070470010024087
:10037C00245500080000002010B504460168C2682E
:10038C000B6923F4405313430B6183680069CA68FB
:10039C000343606922F4B05222F00C02034313436E
:1003AC00CB604B69A26923F4407313434B610D4B33
:1003BC00994214D1FFF7D0FF192358436368642284
:1003CC009B00B0FBF3F0B0FBF2F402FB14031B0137
:1003DC003233B3FBF2F303EB04138B6010BDFFF766
:1003EC00ABFFE9E70038014030B50469226812F030
:1003FC00010207D1CB6890F84C5013F0010302D1E5
:10040C00012D17D130BDCB68012D23F00103CB603A
:10041C0008D0022380F84D300123636180F84D3001
:10042C0080F84C206FF001030B61CB6843F00103A3
:10043C00CB60E7E7022280F84D200122626180F850
:10044C004D2080F84C30DDE70B4B98420BD0B0F1CF
:10045C00804F0AD0A3F59433984208D003F58063FB
:10046C00984206D0FEE7002070470120704702201A
:10047C0070470320704700BF002C014008B5184B93
:10048C005A685A6859685A6803F580531B6803699F
:10049C00581C21D01348834209D007D823F480621A
:1004AC00B2F1804F13D0104A934210D0FEE7D2081D
:1004BC0002F4E061FFF750FFB1F5C06F05D00CD826
:1004CC0021F48071B1F5806F00D1400008BD01F4BA
:1004DC00E061FFF731FFEFE7FEE7B1F5E06FF3E71F
:1004EC0000100240002C0140000800407B4B82B001
:1004FC009A69013842F001029A619B6903F0010389
:10050C000193019B23282CD8DFE810F024002D0048
:10051C0034003B00400047004C00530058005F0083
:10052C0068006D0074007D008200890092009B00C1
:10053C00A000A700B000B500BC002B002B002B00C6
:10054C00C100C8002B002B002B002B00CD00D200CB
:10055C00D900E000624A536843F0E06343F00103C2
:10056C00536002B070475E4A536823F0010343F0B6
:10057C00E063F5E75A4A536843F0E06343F0020343
:10058C00EEE7574A536823F00203F0E7544A5368E6
:10059C0043F0E06343F00403E2E7514A536823F06D
:1005AC000403E4E74E4A536843F0E06343F0080366
:1005BC00D6E74B4A536823F00803D8E7484A5368F8
:1005CC0043F0E06343F03003CAE7454A536823F035
:1005DC00300343F0E06343F01003C1E7404A536833
:1005EC0023F03003C3E73E4A536843F0E06343F023
:1005FC00C003B5E73A4A536823F0C00343F0E06305
:10060C0043F04003ACE7364A536823F0C003AEE72F
:10061C00334A536843F0E06343F44073A0E7304A35
:10062C00536823F4407343F0E06343F4007397E79B
:10063C002B4A536823F4407343F0E06343F4807314
:10064C008EE7274A536823F4407390E7244A536893
:10065C0043F0E06343F4406382E7214A536823F498
:10066C00406343F0E06343F4006379E71C4A53684A
:10067C0023F440637BE71A4A536843F0E06343F486
:10068C0080536DE7164A536823F480536FE7144A7E
:10069C00536843F0E06343F4004361E7104A536846
:1006AC0023F4004363E70E4A536823F0E06357E7F3
:1006BC000B4A536823F0E06343F0807350E7084A19
:1006CC00536823F0E06343F0007349E7044A53682E
:1006DC0023F0E06343F0806342E700BF0010024068
:1006EC0000000140431C02D1002070470C310B6804
:1006FC005A1CF9D09842F9D14868704703460868EB
:10070C00421C00D17047834201D1886870470C317C
:10071C00F5E703468B42084604D01BB100290CBFF9
:10072C0018460020704703681D4A84B093420BD1D1
:10073C001C4B9A6942F400629A619B6903F4006352
:10074C000093009B04B07047B3F1804F0BD103F5BD
:10075C000433DA6942F00102DA61DB6903F0010368
:10076C000193019BEEE7104A93420AD10D4BDA69D3
:10077C0042F00202DA61DB6903F002030293029B8E
:10078C00E0E70A4A9342DDD1064BDA6942F00402F3
:10079C00DA61DB6903F004030393039BD2E700BF28
:1007AC00002C0140001002400004004000080040F2
:1007BC00431C10D00C4B984210D007D8B0F1804F8E
:1007CC000ED0A3F5806398420CD0FEE7074B9842FD
:1007DC00FBD1192070476FF00D0070471E20704739
:1007EC001C2070471D20704700080040002C014061
:1007FC00431C10D00C4B984210D007D8B0F1804F4E
:10080C000ED0A3F5806398420CD0FEE7074B9842BC
:10081C00FBD11B2070476FF00D0070471E207047F6
:10082C001C2070471D20704700080040002C014020
:10083C0090F86520084B03EB8203D3F8043493F84B
:10084C00410093F84230184300F02200A0F122033B
:10085C0058425841704700BF40010020B0F80831A1
:10086C00B0F80421981A00F03F007047B0F8083136
:10087C00B0F804219BB293421ABFD0F8FC30985CBC
:10088C004FF0FF30704790F80631B0F80A01C0B253
:10089C00834227BFC3F13F03C018C01A00F1FF30D9
:1008AC00704707B503688DF8071001225B680DF1DE
:1008BC000701984703B05DF804FBD0F8EC3010B595
:1008CC000133044626D10368DB68984794F811116C
:1008DC0001BB012384F81131D4F8EC30013319D168
:1008EC0094F8F9200C4B03EB8203D3F8043493F8FF
:1008FC004020012A0ED02422186883F84120C268B7
:10090C0022F00C0242F00402C260202283F8401054
:10091C0083F8412010BD00BF4001002010B50446F3
:10092C00FFF7CBFFB4F80821B4F8043192B29A4225
:10093C0017BFD4F8FC204FF0FF30D05C01331CBF44
:10094C0003F03F03A4F8043110BD38B504460A4D3A
:10095C00D5F80034C360236820465B6998470028AB
:10096C0008DAE268D5F800349B1AA2689342F2D3F5
:10097C004FF0FF3038BD00BF40010020F8B50746EE
:10098C000D460C468E18B44201D1601BF8BD38469A
:10099C00FFF7DBFF431CF8D004F8010BF3E72DE95C
:1009AC00F0410746884616461D4673B1002438466A
:1009BC00FFF7CBFF431C05D0404503D03055013425
:1009CC00A542F4D12046BDE8F0811C46FAE79142DD
:1009DC000FD008D90123891A8B40984208D30130D3
:1009EC00C8400138704720B10130521A9040F8E7E6
:1009FC0000207047C3B2242B1ED8184A02EB830385
:100A0C009B6800F4E0601843431C26D0C0F303122B
:100A1C00124B042A00F00F0098BF03EB820203EB89
:100A2C008003D3F8D8308CBF0022D2F8C420C3F393
:100A3C000F2389B11361704700F0C002C02A0CD19A
:100A4C00C92B0AD8054B00F03F0203EB8202D2F807
:100A5C009C2003EB8203D3E75361704724550008B5
:100A6C00C3B2242B20D81B4A02EB83039B6800F4EF
:100A7C00E0601843431C27D0C0F30313042B25D884
:100A8C00144A00F00F0002EB8303D3F8C43002EBDE
:100A9C0080029B68D2F8D820D84300EA122080B29A
:100AAC00B0FA80F04009704700F0C002C02A0BD1A8
:100ABC00C92B09D8074B00F03F0203EB8202D2F896
:100ACC009C2003EB8203D1E70020704700239B6836
:100ADC00FFDE00BF24550008044AD2F80014D2F8F7
:100AEC0000345B1A8342FAD3704700BF40010020E8
:100AFC0038B50D46044658B3164B036590F964009F
:100B0C00FFF7D8FB94F86520134BB4F8761003EB81
:100B1C008203D3F8043489B293F84120202A11D1EE
:100B2C00E26E52180ED0ADB265B11A620022DD84AD
:100B3C005A64212283F841201A689D84D36843F0BB
:100B4C008003D36094F96400BDE83840FFF7A4BB80
:100B5C0038BD00BF690B000840010020B0F87610CA
:100B6C00826F10B50A4402F03F02A0F87620B0F86C
:100B7C007620B0F8721092B2914219D0B0F876404B
:100B8C004031A4B2B0F87620091B4C4292B204F06A
:100B9C003F0401F03F01C2F1400258BF6142914253
:100BAC0028BF11468167FFF7A3FF4FF0FF3010BD40
:100BBC000020FCE7094AD2F81034D2F800149968E6
:100BCC008907FCD518739968C907FCD5187BD2F82E
:100BDC000024C0B29A681206FCD470474001002071
:100BEC0010B54CF25034224B224AD3F80004D16891
:100BFC00C90736D4D1688C0644BF2021D160D16896
:100C0C00C80606D4D169C90703D4D06810F0040013
:100C1C0026D01849CA6812F010021FBFD3F8A424BA
:100C2C0042F00202C3F8A4241022C9684C0741BF49
:100C3C00D3F8A41442F0040241F00101C3F8A41447
:100C4C000C49C869C00709D5D3F8A40440F00400C6
:100C5C00C3F8A404CB6923F00103CB610120CA6063
:100C6C0010BDD3F80014091AA142C0D90320F7E72C
:100C7C00400100200020024043232DE9F04F634E39
:100C8C0093B086F8A834462386F8A934472386F80F
:100C9C00AA34312386F8AB34012307AA86F8AC3486
:100CAC0006F59A6506F59563144618685968083375
:100CBC0003C4AB422246F7D11B882A212380002390
:100CCC0007A8ADF84430FFF71BFA2A23DFF83C9154
:100CDC0000934F4C09F59563A6F8D0040193019B42
:100CEC0013F8015B0193FFF76AFA19F8013B9D4277
:100CFC0019D009F8015C23691A060CD440F21513BB
:100D0C00424FE36097F8A034012B13D1236943F0D1
:100D1C008003236107E03F4B636003F1883363601A
:100D2C0023691B06EAD5009B013B0093D7D113B076
:100D3C00BDE8F08F012587F8A054FFF751FF8346DB
:100D4C0000285AD1C7F8A4042369DFF8CC8043F0FB
:100D5C0002032361C4F81480236943F04003236128
:100D6C00FFF73EFF2269824622F00202226187F8D9
:100D7C00A0B40028CAD1B3468DF81350DBF800306C
:100D8C000BF1080B03935BF8043C02939DF81330B2
:100D9C0087F8A034FFF724FF054670BB4146039B40
:100DAC00C5F1200E23FA05F0029BC7F8A4A403FAA0
:100DBC000EFEA5F1200C23FA0CFC40EA0E00236970
:100DCC0040EA0C0043F0010380B2236108800591D6
:100DDC00FFF706FF236923F00103236190B90599FE
:100DEC001035402D01F10201D9D10C4908F1080848
:100DFC00884587F8A004C1D188E70022034B83F80B
:100E0C00A02483E787F8A0A480E700BF400100205E
:100E1C00002002402301674500FC01080000020885
:100E2C0090F84230202B18D1002301220363C28595
:100E3C00436422238285026980F842308162036810
:100E4C001AB1DA6842F48072DA605A6942F001022F
:100E5C005A61DA6842F02002DA60704730B5044615
:100E6C0050F8043985B01D6815F0010510D000222A
:100E7C0000921A6800925B680093009BFFF7D8FC05
:100E8C0030BB204604F1620105B0BDE83040C7E735
:100E9C00196811F0020106D001951A6801925B687D
:100EAC000193019BEAE71A6812F0040206D0029142
:100EBC001A6802925B680293029BDFE719680907C4
:100ECC00DCD503921A6803925B680393039BD5E706
:100EDC0005B030BD0023406AC385C384BEE738B576
:100EEC000446F0B1FFF7A4FCD8B9214694F865206C
:100EFC000C4B11F8665F03EB8203D3F80404FFF785
:100F0C008FFFB4F87430B4F87020013303F03F0352
:100F1C00934206D0B4F87420A16E92B28D54A4F80A
:100F2C00743038BD40010020F8B500F1600504466E
:100F3C002B46002200F1B006C3E90022C3E90222CD
:100F4C001033B342F8D10846FFF77EFA524B04F146
:100F5C00100703EB800304F10C00C3F8D4040E2338
:100F6C003846C4E90C22C4E90E22C4E91022C4E9B3
:100F7C001632216184F82C20A26484F84C2084F869
:100F8C004D20E460FFF7CFFBAB6833B10322294659
:100F9C00284698470023C5E902331035B542F3D1F2
:100FAC0000234FF6FF72C4E90033C4E90632C4E9EA
:100FBC000833A36063618023A36294F84D3003F07F
:100FCC00FF020BBB384684F84C20FFF7ACFB2069C2
:100FDC00FFF7EEFBD4E916120546FFF77DF928461C
:100FEC00FFF75AF922691046FFF702FC0546104636
:100FFC00FFF7DEFB854207D0D4E916122846FFF72F
:10100C006BF92846FFF748F90223244984F84D3040
:10101C0023698B421A680AD0B3F1804F07D0A1F52F
:10102C0094318B4203D001F580618B4207D1A169C9
:10103C0022F070020A43216A22F440720A43A16A28
:10104C0022F080020A431A60E269DA6262699A62EB
:10105C00124A934204BF626A1A6301225A611969E7
:10106C00C90742BF196921F00101196184F85620A2
:10107C0084F84E2084F84F2084F8502084F85120B6
:10108C0084F8522084F8532084F8542084F8552096
:10109C0084F84D20F8BD00BF40010020002C014019
:1010AC00836801460BB103221847704790F8423011
:1010BC0082B0222B3ED181680268B1F5805F836AD1
:1010CC003AD1016900293AD15268C2F3080223F8D7
:1010DC00022B8362C38D013B9BB2C38553BB026859
:1010EC00D16821F02001D160D16821F48071D160E8
:1010FC00516921F001015161202280F842204363A3
:10110C00026B012A026824D1036302F10C0353E839
:10111C00003F23F0100302F10C0040E800310029DD
:10112C00F3D11368DB0605D501911368019353685D
:10113C000193019B02B0704739B9016929B9526812
:10114C00D2B21A70836A0133C3E7526802F07F028D
:10115C00F7E7836C043802B01847036837B51A6890
:10116C00044612F00F0FD9685D6909D1950640F15C
:10117C00CF808D0640F1CC8003B0BDE8304095E7C0
:10118C0005F0010001F49075054300F0C180D5070E
:10119C0005D5CB0542BF636C43F00103636455076F
:1011AC0004D518B1636C43F002036364930704D550
:1011BC0018B1636C43F004036364150707D501F0A1
:1011CC00200303431EBF636C43F008036364636C2A
:1011DC00002B00F09B80900604D5890602D5204692
:1011EC00FFF764FF23685A69616C02F0400201F05A
:1011FC00080152EA010500F0858003F10C0252E867
:10120C00002F22F4907203F10C0040E80021002919
:10121C00F3D103F1140252E8002F22F0010203F182
:10122C00140040E800210029F3D1226B012A0CD0D4
:10123C00202284F84220002222635A69520611D4DB
:10124C00204603B0BDE8304008E603F10C0252E83A
:10125C00002F22F0100203F10C0040E800210029BD
:10126C00F3D1E5E703F1140252E8002F22F040021B
:10127C0003F1140040E800210029F3D1E06B0028B1
:10128C00DED0964B436390F82130022B05D004231B
:10129C00836303B0BDE830401CE603681A6822F093
:1012AC000E021A601A6822F001021A608C4A9342EC
:1012BC001BD0143293421AD01432934219D01432E8
:1012CC00934219D01432934219D01432934214BF62
:1012DC004FF080734FF48013824A5360012380F8DF
:1012EC002130002380F82030D3E70123F4E71023CA
:1012FC00F2E74FF48073EFE74FF48053ECE74FF4D1
:10130C008033E9E72046FFF7A9FD656403B030BDE3
:10131C00206B012840F0A380D50640F1A080C806C0
:10132C0040F19D80002201921A6801925A68019244
:10133C00019A5A6955065ED5E26B1168496889B203
:10134C000029E3D0A08D8842E0D9E185916920295C
:10135C003BD003F10C0151E8001F21F4807103F123
:10136C000C0545E800100028F3D103F1140151E8F5
:10137C00001F21F0010103F1140545E800100028BD
:10138C00F3D103F1140151E8001F21F0400103F1E6
:10139C00140545E800100028F3D1202184F84210F0
:1013AC00206303F10C0151E8001F21F0100103F13F
:1013BC000C0545E800100028F3D192F82130022BDF
:1013CC0007D00423936382F8200002236363E38D28
:1013DC009CE71368D56B196821F00E011960196828
:1013EC0021F0010119600121136C01FA03F36B6008
:1013FC0082F82110E7E7E28DE18D92B289B20029E3
:10140C0084D0A18D914281D003F10C0252E8002FBF
:10141C0022F4907203F10C0040E800210029F3D172
:10142C0003F1140252E8002F22F0010203F1140020
:10143C0040E800210029F3D1202284F842202163C6
:10144C0003F10C0252E8002F22F0100203F10C0001
:10145C0040E800210029F3D10223636356E710060C
:10146C0028D50D0626D594F84120212A7FF44EAFBD
:10147C00A168226AB1F5805F17D12169A9B932F848
:10148C00021BC1F3080159602262E28C013A92B24C
:10149C00E284002A7FF43AAFDA6822F08002DA6044
:1014AC00DA6842F04002DA6030E7511C21621278AF
:1014BC005A60EAE750067FF529AF4A067FF526AF5A
:1014CC00DA68201F22F04002DA60202384F84130D1
:1014DC00E36C03B0BDE83040184700BFE10E0008D4
:1014EC00080002400000024021B990F84230012B64
:1014FC0013D07047042904D190F84330012B36D017
:10150C007047082904D190F84430012B33D0704730
:10151C0090F84530012B32D07047022380F84230CE
:10152C000422036802FA01F11A6A22EA01021A6221
:10153C001A6A114319625A6C42F400425A64124AF4
:10154C0093420AD0B3F1804F07D0A2F59432934264
:10155C0003D002F58062934204D19A6802F007022C
:10156C00062A03D01A6842F001021A60704702235F
:10157C0080F84330D4E7022380F84430D0E70223CC
:10158C0080F84530CCE700BF002C0140002932D157
:10159C0090F83E2090F84230D2B2012ADBB229D129
:1015AC00012B27D1022300293BD180F83E3080F853
:1015BC004230012203688A40196A21EA0201196249
:1015CC00196A0A431A62204A93420AD0B3F1804F37
:1015DC0007D0A2F59432934203D002F58062934275
:1015EC0004D19A6802F00702062A03D01A6842F066
:1015FC0001021A607047042905D190F83F2090F839
:10160C004330D2B2C9E708290BBF90F8402090F8BC
:10161C00412090F8443090F845300CBFD2B2D2B291
:10162C00BBE7042904D180F83F3080F84330C0E791
:10163C0008290BBF80F8403080F8413080F84430E6
:10164C0080F84530B5E700BF002C014021B990F877
:10165C003E30012B19D07047042904D190F83F304B
:10166C00012B2CD07047082907D190F84030012B62
:10167C0024D1022380F840300AE090F84130012B4D
:10168C001CD1022380F8413002E0022380F83E3066
:10169C000122036802FA01F11A6A22EA01021A62B3
:1016AC001A6A1143104A196293420CD0B3F1804F5D
:1016BC000ED19A6802F00702062A10D17047022355
:1016CC0080F83F30E4E75A6C42F400425A64F0E789
:1016DC00064A9342EDD002F580629342E9D01A6833
:1016EC0042F001021A60E9E7002C014000040040BE
:1016FC0090F83D30012B1AD102230D4A80F83D3071
:10170C00036893420AD0B3F1804F07D0A2F594320C
:10171C00934203D002F58062934204D19A6802F09E
:10172C000702062A03D01A6842F001021A607047B9
:10173C00002C0140F7B51E46A5239DF820708DF8AE
:10174C000510054603210DF105008DF804308DF8C8
:10175C0006708DF80720FEF7D3FC04462EB127B196
:10176C003A463146FEF7E6FC0446042228680DEBA7
:10177C00020103685B68984736B12FB128683A4676
:10178C00036831465B6898472868C4F307210368EF
:10179C001B6898472868E1B203681B68984703B038
:1017AC00F0BDF0B500252C2785B0144C8DF8080041
:1017BC008DF80910ADF80A2094F8AE3494F8AF24E3
:1017CC0004F59D6643EA0223ADF80C3094F87335AA
:1017DC00E8B2834201D805B0F0BD231893F8E42495
:1017EC0002210132D2B283F8E424062307FB006005
:1017FC00009302ABFFF79EFF0135E7E740010020A5
:10180C00F7B500242C270D4D05F59D6695F873351D
:10181C00E0B2834201D803B0F0BD2B1893F8E42456
:10182C0006210132D2B283F8E424002307FB0060C6
:10183C000093FFF77FFF0134E8E700BF4001002071
:10184C0037B50C4C0421231893F8E42404F27A5590
:10185C000132D2B283F8E4241A23009303FB005321
:10186C002C2504F59D6405FB0040FFF763FF03B0D6
:10187C0030BD00BF400100202DE9F04F04460E465C
:10188C00174698464FF0030A85B000F10909206805
:10189C0003681B699847002861D0206803685B695E
:1018AC0098472379C5B2062BF1D8DFE803F0040979
:1018BC000C17202B2F00A52DE9D101232371E6E76E
:1018CC0002236571FAE7202DA57104D9002363600A
:1018DC0023726385DBE784F804A0D8E70023237226
:1018EC00A379E571002B14BF04230523E6E7227AC4
:1018FC00531CDBB2224423725572A2799A42C6D889
:10190C000523DBE72D0206236585D7E7638DA279D6
:10191C001D4394F805B0E3790321658503A88DF880
:10192C000D2001928DF80E308DF80CB0FEF7E8FB0F
:10193C004946019AFEF7FEFB8542C7D186F800B0F6
:10194C00E3793B70A2790E9B1A701AB14946404656
:10195C0003F052FC0023012063602372638505B001
:10196C00BDE8F08F2DE9F843036804469B680F46E9
:10197C009046984701232374D4F8EC30B4F80661F0
:10198C0001338146C6F140061FD194F81131E3B101
:10199C00002294F8F9103A4B84F8112103EB8103DF
:1019AC00D3F8043493F8401001290ED02421186880
:1019BC0083F84110C16821F00C0141F00801C160AD
:1019CC00202183F8402083F84110236820469B682F
:1019DC0098470028F9D04546B5422FD84D452DD80B
:1019EC00B4F80661D4F800017319402B30443AD88E
:1019FC002A46394603F000FC2E46B4F8063194F81A
:101A0C00F9201D441E4B05F03F0503EB8203D3F870
:101A1C000424A4F8065192F8413092F84220134362
:101A2C0003F02103212B06D03146C4F80C6104F1DC
:101A3C009400FFF75DF84046BDE8F8834E4528BF9B
:101A4C004E462368324639465B68204698472368E1
:101A5C0020469B689847AD1B3744B4F80661814615
:101A6C00C6F14006B8E7C6F140063246394603F0E7
:101A7C00C3FBD4F80001AA1BB91903F0BDFBBCE7EA
:101A8C0040010020B0F5006F30B51BD2104B9B68A5
:101A9C005C0118D41A0118D4DB0013D502230825D5
:101AAC001B010C6803F180424968400502F5C842ED
:101ABC0040F00100C2F88451C2F88841C2F88C1180
:101ACC00C2F8800130BD0023E9E70123E7E700BF3E
:101ADC0000640040012307B58DF80730104BD3F894
:101AEC00C825009293F8CC258DF8042092B193F878
:101AFC0071158DF8051093F8CD158DF806105AB1A7
:101B0C0093F8710500F5E8606946FFF7BBFF03B079
:101B1C005DF804FBFF21ECE740F27F70F4E700BFB7
:101B2C004001002091FAA1F3B3FA83F370B50D0EC6
:101B3C000F2691FAA1F1B1FA81F144599B0006FAF2
:101B4C0003F3890024EA03048A402243425170BD06
:101B5C0038B50B0E0C4691FAA1F1B1FA81F1C558CA
:101B6C000F2389008B4094FAA4F1B1FA81F12B4038
:101B7C008900012A23FA01F308D0022A19D0082B74
:101B8C0016D12146BDE838400422CBE7042B03D103
:101B9C0008222146FFF7C6FF230A93FAA3F3B3FAF0
:101BAC0083F20123C168934021EA14210B43C360E3
:101BBC0038BD042B03D108222146FFF7B3FFC368BD
:101BCC0023EA1423F3E791FAA1F3B3FA83F370B584
:101BDC000D0E042691FAA1F1B1FA81F144599B0042
:101BEC0006FA03F3890024EA03048A402243425193
:101BFC0070BD2DE9F041431C04460F4686B000D160
:101C0C00FEE7604B00F00F0203EB8203D3F8D860C1
:101C1C00C0F30313042B5CD8DFE803F0032B37432A
:101C2C004F00594B594D9A6942F004029A619B69D5
:101C3C0003F004030493049B07F00708B8F1010FA9
:101C4C0049D1330EE85896FAA6F3B3FA83F303227C
:101C5C009B0002FA03F320EA030096FAA6F3B3FA08
:101C6C0083F39B009A4005EB166102430A60012244
:101C7C0046E0454B464D9A6942F008029A619B69D1
:101C8C0003F008030393039BD6E73F4B414D9A693E
:101C9C0042F010029A619B6903F010030293029BBD
:101CAC00CAE7394B3C4D9A6942F020029A619B6914
:101CBC0003F020030193019BBEE7334B374D9A6928
:101CCC0042F040029A619B6903F040030093009B31
:101CDC00B2E70025B0E7C7F30620B8F1030F0BD825
:101CEC0001A353F828F000BF071D00087B1C000857
:101CFC00691D0008751D0008FEE7FEF7F7FB0822BA
:101D0C003146284608F1FF38FFF70CFFB8F1010FF8
:101D1C0006D817F0080218BF04223146FFF753FF0C
:101D2C00C7F3011231462846FFF712FF164B9A698A
:101D3C0042F001029A619B6903F001030593059B34
:101D4C00A4F10D03012B11D8154A536823F0E0635D
:101D5C0043F08063536006B0BDE8F0817F2801D06A
:101D6C00FEF7C4FB0922CBE70022C9E70F2C02D0F7
:101D7C00133C012CEFD80A4A536823F0E06343F07C
:101D8C000073E7E7245500080010024000080140EA
:101D9C00000C0140001001400014014000180140EB
:101DAC0000000140431C05D17047984201D189685D
:101DBC001FE70C310B685A1CF7D1FEE72DE9F04FE9
:101DCC00B74C87B0D4F8709406460D464846B549D2
:101DDC0098469346FEF786FCB3490390D4F86C04FE
:101DEC00FEF780FCB1490290D4F87404FEF77AFC3B
:101DFC00D4F878A40746AE495046FEF773FC039B13
:101E0C000190002B00F01381029A002A00F00F8140
:101E1C00002F00F00C8111461846FEF77AFC019950
:101E2C0002463846FEF775FC01461046FEF771FC7B
:101E3C000746C4F86804002A00F0F980002900F075
:101E4C00F680002800F0F380BAF1FF3F0CBF4FF48E
:101E5C0000734FF48023B8F1000FC4F8283414BF7A
:101E6C0000234FF48273C4F81434924BC4F810045A
:101E7C00984240F0DF80FEF76FFAB6EB500F80F01F
:101E8C00E280B6EB900F80F0E080B6EBD00F80F0E4
:101E9C00DE80B6EB101F80F0DC80B6EB501F80F0BC
:101EAC00DA80B6EB901F80F0D880B6EBD01F2CBF39
:101EBC0030233823C4F82C34002D00F0D080022DB0
:101ECC0000F0CF80013D18BF012501236D00C4F83F
:101EDC0024340723C4F83C34BBFA8BF300265B098B
:101EEC00DB0148466F49C4F83034C4F81864C4F8B0
:101EFC002054C4F83864C4F81C64C4F83464FFF784
:101F0C0051FF6949D4F86C04FFF74CFF6749D4F8CA
:101F1C007404FFF747FFD4F82034D4F87414B34298
:101F2C00C1F30310644B14BF0122022201F00F0114
:101F3C00042898BF03EB800003EB81038CBF304671
:101F4C00D0F8C400D3F8D810FFF702FE5849D4F8E3
:101F5C007804FFF727FF574B9F4240F0848003F52E
:101F6C0060439A6942F480529A619A6902F48052F1
:101F7C000592059ADA6842F48052DA60DA6822F443
:101F8C008052DA60D4F83434D4F81414002B40F0B6
:101F9C008180B1F5827F01D0C4F82C340023C4F8C1
:101FAC00383494F8613403F0FF020BB984F86024E0
:101FBC00022384F861343B6801F4827123F04003FE
:101FCC003B60D4F81834D4F8282403F404430B43AE
:101FDC00D4F81C1401F400610B43D4F8201401F064
:101FEC0002010B43D4F8241401F001010B4302F459
:101FFC0000710B43D4F82C14120C01F038010B4374
:10200C00D4F8301402F0040201F080010B433B6061
:10201C007A60FB6923F40063FB610023C4F8643429
:10202C00012384F861343B6843F040033B6007B004
:10203C00BDE8F08F214B984202D0214B18681CE769
:10204C00FEF77AF919E7002334E7082332E7102367
:10205C0030E718232EE720232CE728232AE72B46EA
:10206C0035E7002333E7154B9F428BD103F5EC3357
:10207C00DA6942F48042DA61DA6902F4804204924D
:10208C00049A1A6942F480421A611A6922F4804255
:10209C001A6177E70023C4F82034C4F824347DE7B0
:1020AC00400100203C5600086C5600089C56000865
:1020BC00CC56000800300140245500080038004080
:1020CC0000000020114B82B0CDE90001D3F87C0454
:1020DC000F496A46884206D1D3F8801401984140D2
:1020EC0031F07F410FD092E803000A0CC3F87C0456
:1020FC00A3F8801483F88224002301220448C1F33E
:10210C00072102B05AE602B0704700BF4001002020
:10211C0040420F00F7B5254B0025009301238DF8A5
:10212C000650ADF80430224E02AB044613E903000E
:10213C00FFF7C8FF2946D6F8D005FEF75BFC032055
:10214C00FEF738FD2846FEF735FD2846FEF732FD32
:10215C00651E04F10D07FF20FEF72CFD05F8010F9D
:10216C00BD42F8D10121D6F8D005FEF743FC226818
:10217C00104B9A4217D123798B4214D163793F2BA0
:10218C0011D8E379032B0ED80023A6890E212373D3
:10219C0063732046FDF7B4FFB5B22B1A5842A681E3
:1021AC00584103B0F0BD0020FBE700BF40420F00D8
:1021BC004001002057494E31F7B5154B00270093CD
:1021CC0040F2013305460C46ADF80430114E02AB1B
:1021DC008DF8067013E90300FFF774FF3946D6F843
:1021EC00D405FEF707FC7D20FEF7E4FC2846FEF73D
:1021FC00E1FC7E20FEF7DEFC2046FEF7DBFC012135
:10220C00D6F8D40503B0BDE8F040FEF7F3BB00BF31
:10221C0040420F004001002073B5154B002600937F
:10222C0040F201330446ADF80430124D02AB8DF888
:10223C00066013E90300FFF745FF3146D5F8D405D6
:10224C00FEF7D8FB7D20FEF7B5FC2046FEF7B2FC6E
:10225C007F20FEF7AFFC7F20FEF7ACFC044601218B
:10226C00D5F8D405FEF7C6FB204602B070BD00BF02
:10227C0040420F004001002008B50020FFF7CCFFC2
:10228C00BDE8084000F0FE01002095E72DE9F04F75
:10229C00D0F854A0044689B0894650468749CDE908
:1022AC000023FEF71FFAA26D854980461046039263
:1022BC00FEF718FAE36D8349064618460293FEF7BB
:1022CC0011FAD4F860B005467F495846FEF70AFA71
:1022DC00DDE902320746B8F1000F03D1002009B046
:1022EC00BDE8F08F013201D0002EF7D0013301D0C0
:1022FC00002DF3D0BBF1FF3F01D0002FEED03146C3
:10230C004046FEF706FA2946FEF703FA3946FEF771
:10231C0000FA804620600028E0D06C4B98427ED1B9
:10232C0003F55843DA6842F48042DA60DA6822F442
:10233C008042DA609A6942F480429A619B69002279
:10234C0003F480430793079B252350465B4984F88D
:10235C00652084F86430FFF725FD1EB15849A06D47
:10236C00FFF720FD2DB15749E06DFFF71BFD4FF432
:10237C0080752FB15449206E45F40075FFF712FD9E
:10238C0094F86520524B271D03EB8203C3F80474A9
:10239C00009B0022E360129B01212361019BC4E995
:1023AC00018963610C2394F96400C4E90635226247
:1023BC00FDF792FF94F84530002E63D10BB984F8E9
:1023CC004460242384F84530D8F80C30384623F484
:1023DC000053C8F80C30FDF7CFFFD8F8103023F4B9
:1023EC009043C8F81030D8F8143023F02203C8F802
:1023FC001430D8F8143043F00803C8F81430D8F867
:10240C000C30202243F40053C8F80C300023012078
:10241C00A36484F8452084F84620A3635FE72D4B22
:10242C00984215D103F5E6331A6942F400321A6169
:10243C001A6922F400321A61DA6942F40032DA6164
:10244C00DB69012203F400330693069B26237CE709
:10245C00214B98427FF442AF03F5E4331A6942F4FE
:10246C0080221A611A6922F480221A61DA6942F414
:10247C008022DA61DB69022203F480230593059B39
:10248C00272362E703F0FF020BB984F844202423CE
:10249C0084F84530D8F80C30384623F40053C8F88B
:1024AC000C30FDF769FFD8F8103023F49043C8F8CE
:1024BC001030D8F8143023F02A039EE7FC5600089D
:1024CC003857000874570008B0570008003801400E
:1024DC00400100200044004000480040062373B532
:1024EC0004681A4984F81231002304F19406C4F8E4
:1024FC00141105461A4630460093FFF7C7FE84F8C0
:10250C001001E0B12046FEF7D8F93046FEF790F9FD
:10251C00A8B90F4B94F9F800C4F8E030FDF7CAFEE7
:10252C0094F8F9200B4B04F1FA0103EB8203D3F876
:10253C000404FEF775FC94F9F800FDF7ADFE0023DA
:10254C006B602B726B8502B070BD00BF90D0030026
:10255C00EB0E000840010020826810B50AB902F0A9
:10256C00CBFFC368BDE8104018470B4B5A690242B9
:10257C0011D058610023012803F1010208D1142263
:10258C000648DBB202FB0300C36804301BB1E3E76F
:10259C0013464008EFE77047000401402007002075
:1025AC00037F013B072B14D8DFE803F00411130D54
:1025BC001313130F012350F8040C063300EB031014
:1025CC00836833B1C8E70323F5E70423F3E7022359
:1025DC00F1E77047036870B5DD681E690446B20701
:1025EC000BD5A90709D56FF002021A6101220277F7
:1025FC009B69FFF7D5FF0023237772070DD56B0777
:10260C000BD56FF00402236820461A610222227750
:10261C009B69FFF7C5FF0023237730070DD52907EA
:10262C000BD56FF00802236820461A61042222772A
:10263C00DB69FFF7B5FF00232377F2060DD5EB0618
:10264C000BD56FF01002236820461A6108222277FE
:10265C00DB69FFF7A5FF00232377F0070CD5E9070B
:10266C000AD56FF00102236854F8040C1A61836ECA
:10267C0013B16030FFF770FF320605D52B0642BF51
:10268C006FF0800223681A61700605D5690642BF97
:10269C006FF0400223681A61B20605D5AB0642BF43
:1026AC006FF0200223681A6170BD037C4BB1054B9F
:1026BC00B0F80621D3F80034B0F80A319BB29A4234
:1026CC00FAD17047400100202DE9F84FC3B2242BFA
:1026DC000E461AD8524A02EB83039B6800F4E0645E
:1026EC001C43651C00F09A804E4FC4F303134FEA51
:1026FC00830907EB8303D3F8203704F00F0823FA80
:10270C0008F3D80723D5484B14E000F0C002C02AC8
:10271C0040F08480C92B00F28180414B00F03F02D5
:10272C0003EB8202D2F89C2003EB8203D5E79442A0
:10273C0038D00C331A68511CF9D10122B944D9F89C
:10274C00203702FA08F223EA0203C9F82037012ED7
:10275C0026D0022E14BF002110212046BDE8F84FD0
:10276C00FFF747BAB2F1804F06D102F50432D369B4
:10277C0023F00103D3613FE02C4B9A4204D12C4A45
:10278C00D36923F00203F5E72A4B9A4234D1284A45
:10279C00D36923F00403EDE7284602F049FECCE7A9
:1027AC003146DAE720462049FDF79CFFFDF74CFE49
:1027BC0007EB8005D5F8D4347BB9B02002F030FE9D
:1027CC00194982462046FDF78DFF01465046FEF71B
:1027DC00ABFBD5F8D434C3F800A01D68002DACD0E9
:1027EC002A691046FDF730FE134B9A42BAD1104AB3
:1027FC00936923F400639361002307EB8000C0F816
:10280C00D434EB6005F1B00A05F1600BD345C3D0AD
:10281C00AAF1100A5046FEF743FCF7E7BDE8F88F23
:10282C002455000840010020EC570008000400402B
:10283C000010024000080040002C01402DE9F04F30
:10284C00C3B2242B0446884685B00BD8B14A02EBA0
:10285C0083039B6804F4E0651D43681C00F05C82F4
:10286C00AD4B15E000F0C002C02A40F05582C92BD8
:10287C0000F25282A74B00F03F0203EB8202D2F827
:10288C009C2003EB8203E4E7954200F0F1810C33CA
:10289C001A68511CF8D101212046FFF715FF9F4BF8
:1028AC00082240469968FEF792F87F2840F2D981B9
:1028BC000121D7E1FEE75A6B94F84C10012930D076
:1028CC000121082F84F84C1061D000F28680196A1F
:1028DC00186A002F3AD120F001001862D3F804E0F6
:1028EC00DFF83CB298695B4520F0730040F0600063
:1028FC0012BF21F0020121F00E012EF4407EC3F82C
:10290C0004E098615A6319629A6942F008029A616C
:10291C009A6922F004029A619A699A61002384F8F8
:10292C004C3004232846ACF802307B49FDF7E6FE18
:10293C00C0F3C430431E032B70D8B6EB800F6ED09F
:10294C00FEE70C2E0CBFDA6B1A6CB5E720F010000A
:10295C001862D3F804E0DFF8C8B198695B4520F43D
:10296C00E64040F4C04012BF21F0200121F0E0010C
:10297C002EF4406EC3F804E098619A6319629A6968
:10298C0042F400629A619A6922F48062C3E7196A80
:10299C00186ADFF88CB120F480701862D3F804E068
:1029AC00D8695B4520F0730040F0600012BF21F441
:1029BC00007121F460612EF4405EC3F804E0D8612C
:1029CC00DA631962DA6942F00802DA61DA6922F034
:1029DC000402DA61DA69DA61A0E7186A196ADFF8C9
:1029EC0040B121F480511962D3F804E0D9695B45F8
:1029FC0021F4E64141F4C04120F4005008BF2EF40C
:102A0C00804EC3F804E0D9611A641862DA6942F4A2
:102A1C000062DA61DA6922F48062DAE7FEE72846BE
:102A2C003D49FFF7BFF928463B49FDF767FE10F417
:102A3C00801F0CBF0122102214F80A30134304F833
:102A4C000A302046FDF71AFD039B2669B0FBF3F014
:102A5C00020C531C984228BFB0FBF3F0B26228BFA3
:102A6C0000F1FF3ADDE90121404638BF4FF0000A82
:102A7C00FDF7ADFFC6F82CA0054631462046C4F83C
:102A8C001CA0FDF7B1FCB36A03F101089DF80430FA
:102A9C00822B5DD053D8102B46D8002B5DD14FF62E
:102AAC00FF72F36A934203D1B5F5803F08BF1D4610
:102ABC00002F5BD1756331462046FDF795FCB9F1CB
:102ACC00040F00F02981274600250122DFF85480ED
:102ADC0004F1020A08F104093AF8023F002B5AD01B
:102AEC0004F1780252F825B0BBF1000F06D099F82A
:102AFC000010CA433261F2680A43F260013B0A2BB0
:102B0C0048D8DFE803F03C3C3C3C3C3C3CA8A8A843
:102B1C006E0000BF24550008EC5700080000002090
:102B2C00002C0140F0590008812BB8D1FDF7A6FC10
:102B3C007B4BB0FBF3F06843B0FBF8F5AFE7832BAE
:102B4C00ADD1F36A03FB05536425B3FBF5F5A6E79A
:102B5C00FDF794FC08FB05F8EEE7F26A02FB055260
:102B6C0001259D40013DB2FBF5F598E7042F01D1FD
:102B7C00B563A0E7082F0CBFF56335649BE73B7882
:102B8C00DA0604D5294604F11000FEF7ADFC3B78BB
:102B9C00DB0720D400220435102D07F1010708F1C2
:102BAC00010809F1010997D1A36E33B16FF001034C
:102BBC003361F36843F00103F360002A00F0AC804A
:102BCC003368D90700F1A88004F1100005B0BDE806
:102BDC00F04FFEF78DBD294604F11000FEF736FDCF
:102BEC00D8E7294604F11000FEF7D0FC98F8002035
:102BFC00013AA15C11F0100306D0022A29D8494BE6
:102C0C0003EB4203B3F8D434C80707D5032A20D802
:102C1C00DFE802F00216191C43F00103316A0B4382
:102C2C003362BBF1000FB5D0032A13D83D4B1344CC
:102C3C0093F8D024D3433361F3681343F360A9E7CB
:102C4C0043F01003EAE743F48073E7E743F480535F
:102C5C00E4E7FEE7FEE7294604F11000FEF796FCD8
:102C6C0098E70021204605B0BDE8F04FFDF7C2BE45
:102C7C002D4FC5F3031307EB8303D3F8200705F09F
:102C8C000F0120FA01F2D20704D401228A40024338
:102C9C00C3F82027254B28469A6825490292DA6802
:102CAC001B6901920393FDF71DFDFDF7CDFB07EBAF
:102CBC008007D7F8D44474B9B02002F0B1FB1C499A
:102CCC0006462846FDF70EFD01463046FEF72CF968
:102CDC00D7F8D444266028461549FDF70FFDC0F3FC
:102CEC00C43606F1FF3ABAF1030F3FF6E3AD2468A0
:102CFC0004EB460CBCF80290B600B9F1040FA6F137
:102D0C0004073FF49EAE042E23693FF4D4AD082E85
:102D1C007FF417AE9A6BCFE505B0BDE8F08F00BF1E
:102D2C0040420F0024550008400100200000002004
:102D3C00EC57000870B50F4D064605EB80050021D9
:102D4C00D5F8DC04FFF77AFD00210B4CD5F8E40430
:102D5C0004EB46146183FDF74DFED5F8EC04FDF74A
:102D6C0049FE237F217523F00303237784F8301069
:102D7C0070BD00BF245500080000002008B50020DD
:102D8C00FFF7D8FFBDE808400120D3E770B50B4C26
:102D9C0006460D46FFF7F2FF94F8CD350BB9FEF75A
:102DAC002FFD074B84F8345783F85460052384F8BF
:102DBC003537002384F8363770BD00BF4001002042
:102DCC000000002008B5FFF7D9FF0D4A92F8CC356A
:102DDC009BB992F8CD35B3FA83F35B09094981F8B5
:102DEC00543000218B4214BF0523012382F8341781
:102DFC0082F8353782F8361708BD0023EEE700BF9E
:102E0C0040010020000000202DE9F04F734D89B0E7
:102E1C000693D5F800340428044688460092C5F879
:102E2C0038370FD1FFF7AAFF95F8CD350BB9FEF760
:102E3C00E7FC002385F83637022385F8353709B0CF
:102E4C00BDE8F08F062809D1FFF7BCFF95F8CD350A
:102E5C00002BF4D14146009A204612E0052815D1EA
:102E6C0003F57A73C5F83C3795F83537012B04BF59
:102E7C00022385F8353795F8CD35002BDFD10520A9
:102E8C00009A09B0BDE8F04FFEF78BBCD5F83C2793
:102E9C00D21A002A02DC11F0010FD0D0504B93F85B
:102EAC005430002BCBD195F8CD351BB995F8CC35DA
:102EBC00002BC4D02046FDF773F906460028BED07F
:102ECC0095F83637A34204D195F83537033B012BDF
:102EDC00B5D9E21FD2B2012A8CBF03230423191FD8
:102EEC0085F835374B424B41701E85F841374342CC
:102EFC00434185F8364785F84047B51EDFF8E49026
:102F0C0005936B426B41049309F10803012E029364
:102F1C0009F1100301930CBF072305234FF0000B9D
:102F2C00314DDFF8B8A00393012A5FFA8BF052D928
:102F3C000BF10801012E0AEB41010CBFB1F8A8748A
:102F4C00B1F8AC740792FFF7F5FE1E20FDF7C4FD37
:102F5C00029B059953F8040B0293FDF74BFD019B63
:102F6C00049953F8040B0193FDF744FDDAF80014AF
:102F7C00B7F57A7FE9604FF000014FF0010328BFED
:102F8C004FF47A77C5E90411A96169774FF47A7126
:102F9C002B77039BC7EB8720B0FBF1F12E702B72C4
:102FAC0059F8040BFFF74AFC0BF101010229EF80E1
:102FBC004FF0010B079A05F12005B5D19AF8CD35E4
:102FCC00002B7FF43CAF069B002B7FF438AF009AAC
:102FDC0048EA0B0140E74FF47A77B3E74001002051
:102FEC0000000020005A000814000020034BD3F806
:102FFC00D40410B10430FFF7EDBA70474001002043
:10300C00FFF7F4BF034BD3F8D80410B10430FFF72B
:10301C00E1BA704740010020034BD3F8DC0410B137
:10302C000430FFF7D7BA704740010020034BD3F8A8
:10303C00E00410B10430FFF7CDBA70474001002016
:10304C0002F0F6B902F0F4B9034AD2F800340133B5
:10305C00C2F80034704700BF400100200120FFF788
:10306C0084BA0220FFF781BA0420FFF77EBA082049
:10307C00FFF77BBA1020FFF778BA08B52020FFF7CE
:10308C0074FA4020FFF771FA8020FFF76EFA4FF4C4
:10309C008070FFF76AFABDE808404FF40070FFF744
:1030AC0064BA38B506244FF48065A8B2FFF75DFA10
:1030BC00013C4FEA4505F8D138BD0F4B1A6842F078
:1030CC0001021A6059680D4A0A405A601A6822F0C7
:1030DC00847222F480321A601A6822F480221A60F8
:1030EC005A6822F4FE025A604FF41F029A604FF0A5
:1030FC000062034B9A607047001002400000FFF81A
:10310C0000ED00E02022044BC3F88421034BD3F8DC
:10311C000404FEF722B800BF00E100E040010020EB
:10312C004022054BC3F88421044BD3F8080408B1A2
:10313C00FEF713B8704700BF00E100E0400100202B
:10314C008022054BC3F88421044BD3F80C0408B13E
:10315C00FEF703B8704700BF00E100E0400100201B
:10316C0003460A4910B5886D0344EFF30882934275
:10317C0005D90C224FF0FF30054B1A6010BD054AE3
:10318C00054C121B9342F4D28B65F7E7000000202C
:10319C00800D002000500020000400004FF0FF3094
:1031AC0070474FF4005300204B607047012070476C
:1031BC000020704700207047FEE71622024B4FF0AC
:1031CC00FF301A60704700BF800D0020012070474F
:1031DC002DE9F74F0E461746002867D0441E012CE8
:1031EC0000F29F80DFF84481514C98F8D930D4F824
:1031FC000054022B3AD898F8D93004EB8303D3F857
:10320C00043493F8612004EB8202D2F8041491F890
:10321C00412091F84200024302F02102212A59D0A8
:10322C0093F84120202A41D1002E3FD0BAB2002A77
:10323C003CD0002521215D6483F84110D4F80004B2
:10324C009A84DA849A68B2F5805F03D11A690AB954
:10325C00354616461968DA8C92B2002A48D10A68AB
:10326C00520656D5202283F841201FE00220314916
:10327C00FDF738FAD0B14FF0000904F2044AB9F165
:10328C00030F88F8D99015D102202A49FDF72AFAA4
:10329C0060B10223C8F8C83000234FF416511A4607
:1032AC0025480093FEF7F2FF0028A4D1384603B05E
:1032BC00BDE8F08F5AF804BBBBF1000F07D0022019
:1032CC001C49FDF70FFADBF80030834293D009F16B
:1032DC000109D4E7D4F80024521BB2F57A7F96D3B7
:1032EC00E4E7D4F80024121AB2F57A7FBAD8CA6887
:1032FC000A681206F5D54EB935F8022BC2F308024E
:10330C004A60DA8C013A92B2DA84A4E716F8012BFF
:10331C00F6E7D4F80024121AB2F57A7FA2D8CA685C
:10332C009DE703685B689847C0E700BF000000207A
:10333C0040010020FC5600087400002010B5054C1C
:10334C00237833B9044B13B10448AFF30080012345
:10335C00237010BD2C0C0020000000000C55000840
:10336C0008B5034B1BB103490348AFF3008008BDFC
:10337C0000000000300C00200C5500080023C0E9B0
:10338C000033C0E9023370474FF47A7210B50F4C1A
:10339C0001462368B3FBF2F3013BB3F1807F13D2F8
:1033AC004FF0E020F0224361094B0F2983F82320D2
:1033BC004FF000024FF007038261036104D84FF015
:1033CC00FF30FCF789FF616010BD00BF00000020DA
:1033DC0000ED00E038B5002504460160057145712B
:1033EC008571C571057220222946093001F0D5FE80
:1033FC00658538BD1FB5924B9249DA68924C22F420
:10340C00E0621204120C0A43DA60E269002042F016
:10341C008052E261E26902F080520392039AA2693F
:10342C0042F00102A261A26902F001020292029A28
:10343C00626942F040026261626902F040020192EC
:10344C00019AD3F8FC20D2015EBFD3F8FC2042F0E5
:10345C008072C3F8FC207D4B58601A6842F0010260
:10346C001A6000BF00BF00BF794A5B68136843F065
:10347C0010031360724AD36823F4E0631B041B0C23
:10348C000B43D360FFF780FF636813F00C0F07D07A
:10349C00636803F00C03082B3AD16368DB0337D461
:1034AC002368236823F0F80343F0800323606368E8
:1034BC0003F00C03082B46D00022664B1A66664AB2
:1034CC00D2F8001423689B0131D40121636823F4E2
:1034DC00741343F4601363605E4B1966D2F80014E6
:1034EC002368980129D55A4A136813F0060F33D074
:1034FC00636843F4E0636360636843F46053636040
:10350C00636823F0F00363602368980130D4FEE70E
:10351C000122504B1A60504AD2F8001423689807C5
:10352C00BFD4D2F800345B1A022BF7D9FEE7D2F8DD
:10353C0000345B1A022BC5D9F8E7D2F800345B1AB9
:10354C00022BCDD9F2E76368DA03EFD403F47013DE
:10355C00B3F5601FC7D0E9E7136823F0070343F006
:10356C0002031360136803F00703022BCFD1BFE7EC
:10357C0041F288306368384A23F0030343F00203B6
:10358C006360D2F80014636803F00C03082B2ED18F
:10359C002F4A136803F00703022B2ED863682F4AB7
:1035AC0023F4E06343F480636360636823F4605343
:1035BC006360616801F00C03082B2BD0284B616809
:1035CC00284CC1F303110A4492F806256068D340D5
:1035DC002360FFF7D9FE94F8613003F0FF020BB9BA
:1035EC0084F86020012384F8613004B010BDD2F857
:1035FC0000345B1A8342C6D989E7136823F00703AA
:10360C0043F002031360136803F00703022B7FF4EB
:10361C007EAFC3E7C1F383431344C90393F8F43477
:10362C000AD561680E48C1F340414343114491F8F7
:10363C000415B3FBF1F3C2E70B494B43BFE700BFE3
:10364C0000ED00E00003FA0500100240001000E05D
:10365C000020024000004242400100202455000896
:10366C0000127A000000002000093D002DE980487E
:10367C00ADB0AFF300804FF0E022E84CDFF8A0B320
:10368C00D4F800049369E54E0993D4F80054916979
:10369C0085424FF47A700A91516914BF0A9A099ABB
:1036AC0001318A1A4243B2FBF1F200FB0525FCF70B
:1036BC0059FD85EA000384F84237FCF753FDC4F842
:1036CC00C8050220FDF708FA032384F8CD350C2336
:1036DC00CBE919330A23CBE9023344F620630121E9
:1036EC000820CBF81030FEF7EFFF01211E20FEF76B
:1036FC00EBFF01211F20FEF7E7FF02211520FEF74B
:10370C00E3FF0020FFF716FB01210920FEF7DCFF89
:10371C0001211320FEF7D8FF01211420FEF7D4FF5E
:10372C0002211C20FEF7D0FF0120FFF703FB2A2506
:10373C0006F59567FCF743FD16F8013B013D07F8CC
:10374C00013BF7D1D4F8A824B64BB74D9A4220AF21
:10375C0000F0028212220021B44801F01EFD432227
:10376C0084F8A824462284F8A924472284F8AA24A1
:10377C00312284F8AB24012284F8AC2484F8AE24E2
:10378C0084F8AD24032284F8B92484F8BD2484F889
:10379C00BB2484F8BF246FF0230284F8C8240522CC
:1037AC0084F8C9246FF0050284F8CA246FF037023C
:1037BC0084F8CC246FF0500200236FF017014FF007
:1037CC00400C1F26642084F8CD243A4684F8AF348C
:1037DC0084F8B53484F8B73484F8CB3484F8CE3418
:1037EC0084F8CF34924B84F8B0C484F8B16484F874
:1037FC00B40484F8B81484F8BC1484F8B2C484F803
:10380C00B36484F8B60484F8BA1484F8BE1416466B
:10381C0018685968083303C6AB423246F7D11B8887
:10382C002A2138463380FCF76BFCA4F8D00494F8BA
:10383C00CD55002D40F0478202211020FEF744FFA9
:10384C0002211120FEF740FF02211820FEF73CFF59
:10385C0002211D20FEF738FF0121D4F8D005FEF718
:10386C0033FF0121DFF8CC81D4F8D005FDF7C2F885
:10387C000E460A462B464046A4F88014294684F886
:10388C006154C4F87C8484F88254FEF797FA6A4831
:10389C00FEF740FC314684F8CC05D4F8D405FEF78D
:1038AC0013FF3146D4F8D405FDF7A4F8D4F8D805A5
:1038BC00FEF70AFFD4F8D89531464846FDF79AF83A
:1038CC000220FDF709F929464846FDF793F8142024
:1038DC00FDF702F932462B462946404684F86154DE
:1038EC00C4F87C84A4F8806484F88254FEF766FAE9
:1038FC00524B8DF88650209340F20133ADF8843052
:10390C0097E80300FEF7DEFB2946D4F8D405FDF753
:10391C0071F87A20FDF74EF97A20FDF74BF9314614
:10392C00D4F8D405FDF766F8FD20FEF775FC502899
:10393C000CBF3346002384F8DC3506D1FF2121204F
:10394C00FEF73AFC3546FEF797FC94F8AF2494F852
:10395C00AE3484F8435743EA0223ADF8803094F830
:10396C00C92494F8C83400254FF01A0E43EA0223F8
:10397C00ADF8923094F8CB2494F8CA34DFF8C0C078
:10398C0043EA0223ADF89430D4F8CC3494F8B12443
:10399C00CDF8963094F8B0340DF1980843EA022330
:1039AC00ADF8823094F8B52494F8B43443EA022389
:1039BC00ADF8863094F8B92494F8B83443EA02236D
:1039CC00ADF88A3094F8BD2494F8BC3443EA022351
:1039DC00ADF88E3094F8B32494F8B23443EA022351
:1039EC00ADF8843094F8B72494F8B63443EA022343
:1039FC00ADF8883094F8BB2494F8BA3443EA022327
:103A0C00ADF88C3094F8BE3494F8BF2443EA02230A
:103A1C00ADF890303E460EFB05C313E0400100208C
:103A2C00000000204346473110060020000600200D
:103A3C00E805002000093D00AC06002040420F00C4
:103A4C00BA060020324603CA424518605960164631
:103A5C0003F10803F6D112880135032D1A80D9D150
:103A6C009D48FEF73BFD9D48FEF738FD9C48FEF750
:103A7C0035FD9C4B9A6942F005029A61DA6942F075
:103A8C000072DA61A3F584335A6822F47F225A60FB
:103A9C005A6842F438225A60DA6842F40062DA60FA
:103AAC00914A536823F4C043536045228F4B1A60EC
:103ABC00D4F800148E4AD2F80434DB076BD5FCF72B
:103ACC003BFC8C49B0FBF1F2531EB3F5806F67D20F
:103ADC004A43904264D143F47012844BDA61D3F8B8
:103AEC00002242F00102C3F80022D3F81C2222F07B
:103AFC000102C3F81C22D3F8042222F00102C3F8FD
:103B0C000422D3F80C2242F00102C3F80C22D3F8A1
:103B1C00142222F00102C3F814220022C3F840221E
:103B2C00C3F84422D3F81C2242F00102C3F81C2231
:103B3C00D3F8002222F00102C3F800221A6822F006
:103B4C0001021A60D4F80014694AD2F80434DF0771
:103B5C0000F1B280012324E094F8AC34012B7FF403
:103B6C00F9AD3A46B4F8D084A5F128031646186886
:103B7C005968083303C6AB423246F7D12B882A2149
:103B8C00338000233846ADF8A830FCF7B9FA8045ED
:103B9C007FF4E0AD4BE6D4F800345B1A132B8AD9D2
:103BAC00002384F84437FFF70DF994F8CC1511B9BC
:103BBC000120FFF7EBF84B4A536A43F001035362C1
:103BCC00484B5B6A9E07FBD54CF6CC424A4B1A60BD
:103BDC00012284F8452745F255521A6003225A6097
:103BEC0040F6A5629A60DA6812F003020392FAD1E9
:103BFC004AF6AA221A60DFF80491D4F80034029332
:103C0C0094F845371BB14AF6AA223B4B1A6094F83C
:103C1C00CD35002B40F01E82CDF84B30CDF84F3017
:103C2C00324AD3689D070AD0354BD3F8B03013F025
:103C3C00040700F07781D36843F02003D36000269B
:103C4C00254F07F51C7A94F87335F5B2AB4200F2A8
:103C5C00A581D4F89037029AD31A092B40F2058427
:103C6C00284BDFF8A4A005930023C4F890270493F5
:103C7C00059B53F8042BD1B20929059300F2A882B5
:103C8C00224D05EB8100D0F89C0002F4E063034365
:103C9C00C0B2242840F2AA8203F0C005C02D02D184
:103CAC00C92840F2CC82CA2A00F0E982CB2A40F023
:103CBC00098641F20206A2E2D4F800345B1A132BF7
:103CCC007FF643AF6CE70448FEF708FC012384F849
:103CDC00CC35FFF777F86EE7280600205406002055
:103CEC0080060020001002400000014000640040EB
:103CFC00006000404054890000300040400100202A
:103D0C00006500403C5A00081400002024550008AF
:103D1C00B3F5F86F40F0D980049D082D40F0D580A4
:103D2C00C2F3074A120E8DF84E108DF84BE08DF849
:103D3C004CC08DF84D008DF851A08DF85220DDF857
:103D4C004B00DDF84F1010AB03C394F8CD35002BAE
:103D5C007FF466AFD4F8C82582427FF461AF3F2E62
:103D6C003FF65EAFBAF1030F3FF65AAF15AD0E2218
:103D7C003946284601F011FA8DF85BA04FF0010A84
:103D8C008DF859608DF85A80ADF85CA019AE95E8A5
:103D9C000F0007C63380C74B0E2119A819938DF855
:103DAC0068A0FCF7ADF9C44BADF884A020938DF856
:103DBC00867020AEADF8700096E80300FEF782F92D
:103DCC00D4F8D08539464046FCF714FE0620FCF7A3
:103DDC00F1FE51464046FCF70DFEB74BADF884A002
:103DEC0020938DF8867096E80300FEF76BF9394640
:103DFC004046FCF7FFFD0220FCF7DCFE3846FCF7E2
:103E0C00D9FE3846FCF7D6FE0DF1640A1AF8010B00
:103E1C000137FCF7CFFE0E2FF8D101218A46404620
:103E2C00FCF7E8FDD4F80024A34B20934FF00003DB
:103E3C00ADF884A08DF8863096E803000492FEF766
:103E4C0041F900214046FCF7D5FD0520FCF7B2FEF8
:103E5C00FF20FCF7AFFE012107464046FCF7CAFDE8
:103E6C003940954B049A2AD10E22304601F095F92F
:103E7C003046FEF74FF900283FF4D2AE0E22314601
:103E8C0019A801F029FB00287FF4CAAE8B4B17AEA2
:103E9C002A4603CAB24218605960154603F108035A
:103EAC00F6D11068864D1860928805F26C509A8095
:103EBC00FEF730F985F8CC05FEF784FF6BE0D4F8FB
:103ECC000014891A1429B0D9AAE694F8CC25002A32
:103EDC003FF4A6AE94F8712502F5807293427FF4FC
:103EEC009FAE049B082B7FF49BAEBEF1010F7FF4B9
:103EFC0097AED4F80034BDF84F20C4F83837714B66
:103F0C0093F86C50654502D1051F012D05D883F837
:103F1C006CC00023FEF778FF82E641F00101FDF74B
:103F2C0040FC7DE6684ADFF8A4A1D2F8B4505B0DE2
:103F3C0005F00F0155460491D2F8B810D2F8BC2008
:103F4C00B3F5E06FD6B2C2F307288DF84F608DF849
:103F5C005080DAF80CA05FFA81FE4AF0200AC1F317
:103F6C00072CC1F30740C5F80CA04FEA11617FF490
:103F7C00CFAED4F84837D4F80024D21AD4F8C835C8
:103F8C0003F03F033233B2EB430F7FF649AED4F864
:103F9C000034C4F84837FDF79DFD41E6202200218E
:103FAC0020A801F0FAF8039B8DF848308DF85430B6
:103FBC002C2303FB0573059312AB0093059820ABE0
:103FCC0015AA19A9FDF758FC08B901363BE69DF86E
:103FDC006430032BF0D19DF84830122BECD104EB5C
:103FEC00850203FB05A3D2F84C274FEA850E0492F9
:103FFC000DF1800C0DF19008624603CA4245186021
:10400C005960944603F10803F6D11288A6441A802D
:10401C00D4F80034CEF84C37049B33B994F873358C
:10402C00AB4202D92846FDF70BFC122303FB0543D8
:10403C0093F85B070028BFD0224A92F85420002A3C
:10404C00BAD193F85C176A1C01EB4201C9B2FEF7B6
:10405C009DFEB1E700252E462F462022002120A8E8
:10406C0001F09BF8039B8DF840308DF8483010AB75
:10407C000093174820AB12AA15A98DF880708DF803
:10408C008160ADF88250FDF7F7FB9DF880709DF8CC
:10409C008160BDF8825000283FF4DBAD9DF85430B0
:1040AC00062B17D10022012311460420FEF7ACFE8B
:1040BC00DDE700BF57494E3140420F00AC060020EF
:1040CC00400100200000002000650040006400401A
:1040DC0028060020022B08D19DF84030062BC6D1B3
:1040EC0001232A4631463846E0E7042BBFD19DF820
:1040FC0040301A2BBBD10DF1640C0DF1800EBEE8D3
:10410C000F00ACE80F009EE80700ACE80300DDF8F8
:10411C009630ACF80020C4F8CC34DDF86630BDF82D
:10412C009210C4F8B034DDF86A30BDF89420C4F8AD
:10413C00B434BDF86E30BDF88000B3F57A7F28BF7B
:10414C004FF47A73B3F5167F38BF4FF41673A4F897
:10415C00B834BDF87230A4F8AE04B3F57A7F28BF3A
:10416C004FF47A73B3F5167F38BF4FF41673A4F877
:10417C00BC34BDF87030A4F8C814B3F57A7F28BFEE
:10418C004FF47A73B3F5167F38BF4FF41673A4F857
:10419C00CA24A4F8BA34BDF87430B3F57A7F28BFBA
:1041AC004FF47A73B3F5167F38BF4FF41673A4F837
:1041BC00BE34FCF761FD022300937D4B05219DF875
:1041CC00482003F13A00FDF7B5FA50E710234EE50D
:1041DC0002F0C003C02B7FF466ADC9293FF663AD76
:1041EC00744D02F03F0005EB80004CE505EB8001BF
:1041FC008E6803F4E0631E43701C3FF454ADDBF88F
:10420C0068303022002120A8069300F0C6FF039AE4
:10421C0016F48053CDE919221B92ADF82220079396
:10422C0030D041F202039E422CD8634A209241F2D4
:10423C000102964234D09E4200F0A680FEE75D4813
:10424C0003F03F0300EB8303D3F89C30092900EB08
:10425C0083039E6805D800EB8101D1F89C30134391
:10426C00C7E702F0C003C02B06D102F03F0300EBFE
:10427C008303D3F89C30F2E74FF4E063BBE741F2E1
:10428C000106BCE74D493046FCF72CFA4B4920900F
:10429C003046FCF733FAC0F3C437112F76D9FEE75A
:1042AC0010274FF00708209D002D00F09D80012362
:1042BC0024934FF46023279300232A93404B1E67CB
:1042CC002A9B9BB92B933C4B9D4262D13D4A9369EF
:1042DC0043F400739361936903F400730C930C9B88
:1042EC00079B1BB930463549FDF75CFD20A8FBF751
:1042FC00ADFF2A9B13F0100F2A9B40F0B2810028CF
:10430C0040F0AF8123F4885323F0020343F00203FF
:10431C002A936B6823F469436B60AA682A4B134099
:10432C0043F46023AB60EB6A23F47003EB62AA687E
:10433C00264B1340B3F5602F4CD12B902A9B092FA1
:10434C0023F0030343F001032A934FF001030D9074
:10435C008DF8A430CDE91A386B6B4FF0070223F0BF
:10436C001F0343EA07036B63154E199707EB4703CB
:10437C0000F2A68029699A4021EA020208FA03F8A1
:10438C0042EA08022A61AAE011278AE74FF00208E4
:10439C0089E70F4B9D42A3D10A4A936943F480638A
:1043AC009361936903F480630B930B9B98E700BFB5
:1043BC00EE0500202455000800240140445A000852
:1043CC000000002000100240FDF7E1FFFE0E1FFF71
:1043DC00002801402A9B23F0120343F010032A9378
:1043EC002B9B43F001032B930020AA4B06995A6E8A
:1043FC00FCF7EDFA142380B258434FF6FF73984242
:10440C0028BF1846BAF8043082B2AAF8022023B1A9
:10441C00C3EBC3030344C3F3CF02049BAAF80420E9
:10442C000AF1200A002B3FF4D1AE94F8CD55E5B932
:10443C001846FCF715FB80F001011120C9B2FCF7FE
:10444C000FFB08B941F002011820FCF709FB00280A
:10445C0040F03A8241F00403032984F8943740F089
:10446C00358200210820FEF791FCD4F89837029A87
:10447C00D31A042B40F26C830026874DC4F898277E
:10448C002B7F002B00F0A382844B5FFA86F853F845
:10449C002600FCF7E5FA01282B7A08F1010140F01F
:1044AC003D8243F00402301D2A7204EB4002B5F841
:1044BC0004C0B2F8A8246245C0F05082002252E237
:1044CC00E968A3F11E00824021EA020108FA00F318
:1044DC000B43EB60A7F11003012B40F295800023F6
:1044EC000E93012320A88DF8A430FBF7AFFE20A873
:1044FC00FBF772FE00287FF477AF2A9B366823F413
:10450C00885323F0020343F002032A93FBF724FFA2
:10451C00634B5B68C3F3813301335B00B0FBF3F097
:10452C00B6FBF0F040000E900E9B002B40F0888004
:10453C00AB6843F00803AB60D4F80024AB681F07EA
:10454C0000F18280AB6843F00403AB60D4F8002424
:10455C00AB68590700F189802A9B20A823F003033C
:10456C0043F001032A9301238DF8A430FBF734FEAA
:10457C0000287FF439AF2A9B23F4407323F0010306
:10458C0043F480732A93474B9D4204D1464A5368A7
:10459C0013F4702F74D12A9B23F480132A936B6825
:1045AC005A0541BF2A9B23F4405343F480532A936A
:1045BC002A9B13F480531CBF2B9B23F006032B93D5
:1045CC0000238DF8A4306FF002032B60AB6803F46A
:1045DC006023B3F5602F59D1324B9D4205D1A3F521
:1045EC0080635B6813F4702F50D1AB6843F4A00365
:1045FC00AB6000230F93D9F80014AB68DB0557D5DB
:10460C002A9B43F020032EE0274B9D42F8D1AB6848
:10461C001A023FF564AFAB68102F43F40003AB6094
:10462C007FF45DAF214A3368B3FBF2F30A225343A4
:10463C000D930D9B002B3FF452AF0D9B013BF7E705
:10464C000E9B013B0E936FE7D4F800349B1A0A2B98
:10465C007FF674AFAB681B077FF570AF2A9B23F016
:10466C00120343F010032A93BEE6D9F800349B1AC8
:10467C000A2B7FF66DAFAB6858077FF569AFEDE796
:10468C002A9B43F480132A93536889E7AB6843F45D
:10469C008013ADE70000002014000020405B0008F0
:1046AC0000100240002801400024014040420F004D
:1046BC006B68DF0503D4EB6A13F4700F3DD0FBF786
:1046CC004BFE9A4B5B682A69C3F3813301335B0061
:1046DC00B0FBF3F0964BB6FBF0F01A42954B40F062
:1046EC00C580EE68944A164240F0C0802A691A428E
:1046FC0040F0CD80EA6803F16E431A420CBF1423DC
:10470C00292358430F9B98421AD9D9F800345B1AC5
:10471C000A2B02D90F9B98420BD80F9B01330F9396
:10472C00F0E7D9F800345B1A0A2B06D92B689E07E0
:10473C0003D42A9B43F0040395E72B689807F0D524
:10474C006FF012032B602A9B43F400732A93AB681F
:10475C0003F46023B3F5602F0AD12A9B23F48073F2
:10476C002A932A9BDA045EBF2A9B43F001032A9307
:10477C002A9B20A89B0542BFEB6C9BB2ADF8223064
:10478C0001238DF8A430FBF761FD00287FF42CAEDB
:10479C002A9B8DF8A40023F4885323F0010343F0E3
:1047AC0001032A932A9B20A843F002032A93FBF7C8
:1047BC004DFD00287FF418AE6FF01F032B606A6864
:1047CC005E4B13406B60AA685D4B1340AB60EB68AB
:1047DC0003F07F43EB602B6903F040432B616A6964
:1047EC00584B1A406A61AA691A40AA61EA691A40D0
:1047FC00EA612A6A1A402A626A6A1A406A62AA6ADA
:10480C001340AB62EB6A504A03F07F43EB62EB6AF6
:10481C0003F07F43EB622B6B03F040432B636B6B1A
:10482C0003F040436B63AB6B1340AB63AB6B134058
:10483C00AB63464B9D4230D103F56C43DA6842F4CE
:10484C000072DA60DA6822F40072DA609A6922F493
:10485C0000729A6100233D4A2B932A93936823F4A8
:10486C0000039360BDF8220080B2BEE52A691A42AB
:10487C0003D1EA68364B1A420BD02A69354B1A42DF
:10488C0009D1EA681A420CBF5423FC2339E72923C7
:10489C0037E7542335E7FC2333E72F4B9D42D9D11F
:1048AC0003F56843DA6842F48062DA60DA6822F46D
:1048BC008062DA609A6922F480629A619A6922F4C1
:1048CC008062C6E7002095E50B46C5E513F00102B2
:1048DC0004D113F0020F14BF0222032294F84337C1
:1048EC0084F8952753B194F8DC352BB10320FDF7F0
:1048FC0093FC0546FDF7C0FC84F8965794F8963760
:10490C004BB194F83607FBF74BFC022803D100217E
:10491C000720FEF73BFA00210920A4E5062023F02E
:10492C0004032B72FEF732FA51E000BF0010024074
:10493C0024499224922449122449920000003FFFFA
:10494C00F00601FF00F0FFFF0000C0FF0024014053
:10495C009224490049922400002801402A69002A27
:10496C0040F09A80029A2A6104EB4000B0F8ACE463
:10497C00EA68029FF445A7EB020200F2978068698F
:10498C0000B96F61B4F8C8048242C0F0B68268699D
:10499C00002800F09680029FB4F8CAC4381A60450B
:1049AC00C0F08F804FF6FF718A4228BF0A462978E3
:1049BC0092B201297ED104EB4601A1F8C02443F048
:1049CC000C032B72012340466B77FEF7B3F9731C73
:1049DC00022B4FF0010605F120057FF451ADC64DB9
:1049EC0095F83030002B40F0828095F85070002FF5
:1049FC007DD195F83130002B79D095F85130002BC2
:104A0C0075D094F8CD3543B91946BC4A94F873C5A2
:104A1C00A2F10C06C8B2604559D394F841E7BEF137
:104A2C00000F7FD0002B7DD194F83627ADF8803065
:104A3C00072A15BFB4F8C434B4F8C034B049B1492E
:104A4C0003B920A9072A088815BFB4F8C664B4F8BE
:104A5C00C264AD49AD498642ADF8800098BF20A92B
:104A6C000988002608464FF0120894F873C5ADF873
:104A7C0080105FFA86FAD4454AD908FB069ABAF830
:104A8C006677BAF868A70136574538BF5746B8421B
:104A9C0038BF38467746ECE7029FBA1A3B2A7FF6B6
:104AAC0063AF43F0140303202B723BE70020C5E9EE
:104ABC00050067E7022904BF04EB4601A1F8C424F2
:104ACC007DE7D4F8CC349A4281D305202AE7D4F878
:104ADC00000456F804EBA0EB0E00B0F5C87F06D826
:104AEC00507801310338012802F1120292D894F85F
:104AFC003537033B012B2BD8D4F83837029AD31A0D
:104B0C00B3F5967F24D900210220FEF73FF91FE070
:104B1C0017B10146ADF88000002940F0FB800B2056
:104B2C00FEF734F9039B84F8413795F85430002B89
:104B3C00DDD194F83607FBF733FB039B012818BF34
:104B4C00022084F83637022384F8950784F8353729
:104B5C0094F83557D4F89C37E81EC0B201288CBFA6
:104B6C004FF47A7264220299CB1A9342FFF445A84F
:104B7C0094F8CD35C4F89C17002B40F06C8194F858
:104B8C00CC25002A3FF437A894F84427002A3FF498
:104B9C0032A85F4E1946B146574A94F8737592F88D
:104BAC0054E094F834275FFA81F8B845C0F03781A7
:104BBC004FF0010894F842178DF84A508DF84910BF
:104BCC0094F8361794F871558DF84B1094F8951796
:104BDC0005F5C0708DF84C1012A98DF84E208DF88B
:104BEC004DE08DF848808DF84F30FCF74BFF0023DB
:104BFC00ADF8583094F8943705F500708DF85530B1
:104C0C0094F8963715A98DF8563094F843378DF8EB
:104C1C0054808DF85730D4F80034A035B3F17A7F36
:104C2C0036BF4FF47A724FF6FF73B3FBF2F3ADF865
:104C3C005A30FCF727FFBBF81830AD00ADF86430E4
:104C4C00BBF81A3028469B088DF868309BF81C304E
:104C5C0019A98DF86A30BBF838304FF00009ADF85F
:104C6C006630BBF83A304FF0120A9B088DF8693069
:104C7C009BF83C30DFF884808DF86B30FCF702FF3A
:104C8C0001355FFA89F39F427EF6B5AFD4F8003454
:104C9C0056F8042B9B1AB3F5C87F27D80AFB094298
:104CAC0092F85F1792F85E3705EB090043EA01238F
:104CBC00ADF8803098F80A3020A98DF8843098F837
:104CCC000C3080B28DF8863092F8603792F86127FC
:104CDC0043EA0223ADF8823098F80B308DF885301A
:104CEC0098F80D308DF88730FCF7CCFE09F10109EE
:104CFC0008F11208C5E700BF00000020980800204A
:104D0C0004060020000600200606002002060020F3
:104D1C008C0800204FF47A704343B3FBF1F39BB241
:104D2C00834228BF0346B3F5167F38BF4FF4167382
:104D3C004FF47A70072A15BFA9F8BC34A9F8B83417
:104D4C00B9F8C634B9F8C23412274343B3FBF1F3B4
:104D5C009BB2834228BF0346B3F5167F38BF4FF48E
:104D6C00167300204FF47A7E1A26072A0CBFA9F876
:104D7C00BA34A9F8BE34C3B263453ED207FB0093E4
:104D8C00B3F8663706FB00980EFB03F3B3FBF1F3A5
:104D9C009BB2B3F57A7F28BF4FF47A73B3F5167FC5
:104DAC0038BF4FF41673072A14BFA8F88835A8F833
:104DBC00843507FB0093B3F8683706FB00980EFBAD
:104DCC0003F3B3FBF1F39BB2B3F57A7F28BF4FF437
:104DDC007A73B3F5167F38BF4FF41673072A14BFD6
:104DEC00A8F88A35A8F8863506FB0098B8F87A3505
:104DFC0001300133A8F87A35BDE7B9F8AE34002696
:104E0C000133A9F8AE34FBF737FF99F87335F0B2DC
:104E1C0083427FF687AEFCF713FD0136F5E7D4F835
:104E2C0000C459F804ABACEB0A0CBCF5C87F09D82C
:104E3C004FF0010C0CFA01FC43EA0C0C5FFA8CF3FA
:104E4C000131B0E601289FBF4FEA480203324FF010
:104E5C000A0ED2B2F4E78DF8803094F8363794F815
:104E6C0040078DF882309BF854308DF881508DF8C6
:104E7C00833094F8343703218DF8843094F842371A
:104E8C008DF88530FBF78CF9BBF818300228ADF89B
:104E9C008630BBF81A304FEA93038DF88A309BF8B2
:104EAC001C308DF88C3014BFB4F8C034B4F8C43452
:104EBC000228ADF88E301C4B1C481A8FADF8882098
:104ECC005A8F93F83C304FEA92028DF88D300CBF1C
:104EDC00B4F8C634B4F8C2348DF88B20ADF89030E9
:104EEC00122394F8A02700930132D2B220AB84F89D
:104EFC00A027FCF71FFCFEF77EBEB2F52F7FFFF458
:104F0C00E0ADF4453FF6DDADA86908B90298A8619B
:104F1C00029F381AB4F8CA74B842FFF4D2AD43F009
:104F2C00240304202B72FDE400000020280600203E
:104F3C00F8B5062707257C4C172604F2E45084F8B4
:104F4C00E075FEF71BFA04F5BF6084F8F455FEF724
:104F5C0015FA082304F20C6084F80836FEF70EFAF2
:104F6C00092304F5C46084F81C36FEF707FA0A23FB
:104F7C00282204F2346084F83036FEF7FFF904F589
:104F8C00C96084F84466FEF7F9F904F25C6084F8B1
:104F9C005866FEF7F3F904F5CE6084F86C66FEF7FC
:104FAC00EDF904F2846084F88066FEF7E7F904F505
:104FBC00D36084F89466FEF7E1F904F2AC6084F8EF
:104FCC00A826FEF7DBF904F5D86084F8BC26FEF7BA
:104FDC00D5F904F2D46084F8D026FEF7CFF904F5A5
:104FEC00DD6084F8E426FEF7C9F904F2FC6084F86D
:104FFC00F826FEF7C3F904F5E26084F80C27FEF7F7
:10500C00BDF94A4B5C22C4F87C340123002104F521
:10501C008260C4F8803400F0C0F81620C4F88C0804
:10502C0004F5F760C4F8A00804F5FF60404AC4F822
:10503C00A40803200523C4F8A427C4F8BC28C4F88A
:10504C00D4291B22C4F8A80902204FF47A71C4F8A1
:10505C007054C4F8743400254FF0FF33C4F8C02AE0
:10506C001A22C4F8A40904F50D60C4F8B80904F5B3
:10507C001160A4F8AC58C4F87834A4F8AE58C4F84D
:10508C00AC17C4F89438C4F89838C4F8C418C4F8E9
:10509C00AC39C4F8B039A4F8C459C4F8BC09C4F884
:1050AC00DC19C4F86C74C4F8A857C4F89068C4F838
:1050BC00A858C4F8C058C4F8C059A4F8C659C4F8C4
:1050CC00D859C4F8BC2AC4F8C43AC4F8C83A04F68F
:1050DC00E813C4F8D03A04F2A47104F6282304F5BA
:1050EC009D60C4F8D43AA4F8DC5AC4F8D85AA4F891
:1050FC00DE5AFEF76FF904F6BC0104F21450FEF709
:10510C0069F904F6D41104F5A860FEF763F90423D9
:10511C00C4F8D4351923C4F8D8350F2384F8DC55DA
:10512C00C4F8D035F8BD00BF4001002000093D0097
:10513C00505B000838B5054CA4F5A075143C201D37
:10514C00FBF7AEFFAC42F9D138BD00BF60080020C0
:10515C00FDF7B3FF0B480C490C4A002302E0D4586E
:10516C00C4500433C4188C42F9D3094A094C0023A7
:10517C0001E013600432A242FBD300F017F8FEF7F3
:10518C0075FA70470000002040010020885B000881
:10519C0040010020900D0020FEE70346024493429C
:1051AC0000D1704703F8011BF9E7000070B5002629
:1051BC000C4D0D4B5B1B9C10A64209D1002600F038
:1051CC009FF90A4D0A4B5B1B9C10A64205D170BD82
:1051DC0055F8043B98470136EEE755F8043B9847E1
:1051EC000136F2E7745B0008745B0008745B00081E
:1051FC00805B0008704770470A44914200F1FF330E
:10520C0000D1704710B511F8014B914203F8014FD2
:10521C00F9D110BD38B50546002940D051F8043CF1
:10522C000C1F002BB8BFE41800F0DEF81C4A136802
:10523C0033B9636014602846BDE8384000F0DAB832
:10524C00A34208D9206821188B4201BF19685B68FA
:10525C0009182160EDE71A465B680BB1A342FAD935
:10526C0011685018A0420BD1206801445018834299
:10527C001160E0D118685B68084410605360DAE78D
:10528C0002D90C232B60D6E7206821188B4201BF72
:10529C0019685B680918216063605460CBE738BDFE
:1052AC008C0D002070B50F4E0C463168054611B9B7
:1052BC0000F0A6F830602146284600F0A1F8431C07
:1052CC0003D14FF0FF34204670BDC41C24F00304FE
:1052DC00A042F8D0211A284600F092F80130F2D101
:1052EC00EFE700BF880D00202DE9F843CD1C25F019
:1052FC00030508350C2D38BF0C25002D064601DBA7
:10530C00A94204D90C2333600020BDE8F883DFF8F0
:10531C00D48000F069F8D8F800301C4644BB29460C
:10532C003046FFF7BFFF431C044658D1D8F8004065
:10533C002746002F43D1002C4BD0236839463046EA
:10534C0004EB030900F05CF8814542D1216830463A
:10535C006D1A2946FFF7A6FF01303AD023682B447B
:10536C002360D8F800305A6862BBC8F800700FE0B0
:10537C002268521B20D40B2A17D96119A34225602D
:10538C0018BF5960636808BFC8F8001062514B60C1
:10539C00304600F02FF804F10B00231D20F007001D
:1053AC00C21A1CBF1B1AA350AFE76268A3420CBF02
:1053BC00C8F800205A60EBE723466468AEE73C4629
:1053CC007F68B6E71A465B68A342FBD100235360A3
:1053DC00DEE70C233046336000F00CF894E70560F0
:1053EC00D6E700BF8C0D00200148FFF703BF00BFBC
:1053FC00840D00200148FFF7FEBE00BF840D002085
:10540C0038B50023054D044608462B60FDF7A8FE71
:10541C00431C02D12B6803B1236038BD800D0020E2
:10542C00024B01461868FFF75FBF00BFF000002079
:10543C00024B01461868FFF7EDBE00BFF0000020DC
:10544C00062008B500F02CF80120FDF7B5FE1F2949
:10545C0038B505460C4604D9162303604FF0FF30CF
:10546C0038BDC26B12B152F821304BB9284600F04E
:10547C0031F8224601462846BDE8384000F018B8FD
:10548C00012B0AD0591C03D1162303600120E7E736
:10549C000021204642F8241098470020E0E7000045
:1054AC00024B01461868FFF7D2BF00BFF000002086
:1054BC0038B50023064D0446084611462B60FDF70F
:1054CC007CFE431C02D12B6803B1236038BD00BFA6
:1054DC00800D0020FDF77ABE10B5013902449042D0
:1054EC0001D1002005E0037811F8014FA34201D04F
:1054FC00181B10BD0130F2E708B5FFF7A1FF000043
:10550C00F8B500BFF8BC08BC9E467047F8B500BFA4
:08551C00F8BC08BC9E46704774
:10552400000000000102030400000000010000006C
:105534000200000003000000040000000500000059
:105544000600000007000000080000000900000039
:105554000A0000000B0000000C0000000D00000019
:105564000E0000000F0000001000000011000000F9
:1055740012000000130000001400000015000000D9
:1055840016000000170000001800000019000000B9
:105594001A0000001B0000001C0000001D00000099
:1055A4001E0000001F0000002D0000002E0000005F
:1055B4002F00000030000000310000000000000057
:1055C40001000000020000000300000004000000CD
:1055D40005000000060000000700000010000000A5
:1055E4001100000000080140000C014000100140BF
:1055F40000140140001801400101000002020000F3
:10560400040400000808000010100000202000001E
:1056140040400000808000000100010402000204F8
:1056240004000404080008041000100420002004EE
:105634004000400480008004070000000030014066
:1056440012020000150000000030014012010000A9
:105654001F0000000038004012000000FFFFFFFFA1
:1056640000000000000000000600000000300140BF
:10567400120200001400000000300140120100007A
:105684001E0000000038004012000000FFFFFFFF72
:105694000000000000000000050000000030014090
:1056A400120200001300000000300140120100004B
:1056B4001D0000000038004012000000FFFFFFFF43
:1056C4000000000000000000040000000030014061
:1056D400120200000F00000000300140120100001F
:1056E4001C0000000038004012000000FFFFFFFF14
:1056F4000000000000000000020000000044004020
:1057040012080000090000000038014012060000E1
:105714001600000000380140120500001A000000C5
:105724000048004012000000FFFFFFFF00000000DF
:1057340000000000030000000044004010080000C6
:105744000A000000003801401006000017000000A5
:1057540000380140100500001B0000000048004014
:1057640010000000FFFFFFFF000000000000000029
:105774000100000000440040120800000C0000007A
:1057840000380140120000001E00000000480040E4
:10579400120000001E01000000480040120A000030
:1057A400FFFFFFFF000000000000000000000000F9
:1057B40000440040120000000B00000000380140CB
:1057C400120000001D00000000480040120B000001
:1057D4001D01000000480040120A0000FFFFFFFF07
:1057E4000000000000000000000000000000004075
:1057F4001280000000010000000000401290000030
:10580400010000000000004012120100010100002C
:1058140000000040121001000200000000000040DF
:1058240012920100020100000000004012910100E8
:1058340003000000000000401212020003010000F7
:1058440000000040121102000600000000040040A5
:105854001295000007000000002C0140128D10007A
:1058640007010000000400401215010008000000B8
:10587400002C0140128E000008010000002C0140A1
:10588400128D000009000000002C0140120E0100DE
:1058940009010000002C0140120D01000A00000063
:1058A400002C0140128E01000A010000002C01406E
:1058B400128D01000B000000002C0140120E0200AA
:1058C4000B010000002C0140120D02000F0000002B
:1058D40000000040129100000F0100000000004091
:1058E400128F000010000000002C0140120D110066
:1058F4001001000000040040129501001002000095
:10590400000400401294010011000000002C01402A
:10591400128D110011010000000400401215020054
:1059240011020000000400401214020013000000E1
:1059340000000040121101001301000000000040AB
:10594400120F010014000000000400401294000033
:1059540015000000000400401214010016000000AD
:1059640000080040129700001700000000080040E3
:1059740012170100180000000008004012970100EF
:105984001900000000080040121702001A0000006D
:1059940000000040129001001A01000000000040C5
:1059A400128F01001B0000000000004012100200D2
:1059B4001B01000000000040120F02001D00000047
:1059C400002C0140128E10001E000000002C01402B
:1059D400120E11001F000000002C0140128E110055
:1059E400FFFFFFFF000000000000000002010403AD
:1059F4000204081004004000000400000800000035
:105A0400090000001E000000130000001F00000039
:105A14001400000002030405060708090A0B0C0D14
:105A24000E0F10100102000000000000000001022F
:105A3400030406070809000000000000010000003C
:105A440000000000002401400300000000010000E9
:105A54000028014003000000010000000024014070
:105A640003800000010100000028014003800000C1
:105A740002000000002401400300010002010000B4
:105A8400002801400300010003000000002401403D
:105A9400038001000301000000280140038001008D
:105AA400040000000024014003000200040100007F
:105AB400002801400300020005000000002401400A
:105AC4000380020005010000002801400380020059
