:020000040800F2
:100000000050002059530008A1530008A1530008D4
:10001000A1530008A1530008A153000800000000EC
:10002000000000000000000000000000A1530008D4
:10003000A153000800000000A15300081932000875
:10004000A1530008A1530008A1530008A1530008C0
:10005000A1530008A15300082D32000833320008D4
:10006000393200083F32000845320008A153000829
:10007000A1530008A1530008A1530008A153000890
:10008000A1530008A1530008A1530008A153000880
:10009000A1530008A1530008A15300084B320008E7
:1000A000A1530008BD310008A1530008D131000858
:1000B000D5310008E9310008FD310008A1530008DE
:1000C000A1530008A1530008A1530008A153000840
:1000D000A1530008D5320008F1320008113300089E
:1000E00073320008A1530008A1530008000000006B
:1000F0000000000000000000000000000000000000
:0C01000000000000000000005FF808F1A3
:10010C00024670B5014441F221054FF6FF700824F8
:10011C0012F8013B80EA032006B2430098B2002E8D
:10012C0004F1FF33B8BF684013F0FF04F4D19142DF
:10013C00EDD170BD30B541F221040A44914200D199
:10014C0030BD11F8013B80EA0320082305B24000C2
:10015C00002D80B203F1FF33B8BF604013F0FF03F2
:10016C00F4D1EBE770B50A4A0A480B4D0B4C04234B
:10017C001168CEB2013B704013F0FF0305FB00F099
:10018C004FEA1121F5D10432A242F0D170BD00BF6B
:10019C00E8F7FF1FC59D1C8193010001F4F7FF1FB9
:1001AC000138072807D8DFE800F004080606060621
:1001BC000408012070470020704702207047104946
:1001CC00104AB1F81900137A78B903F0BF0313720F
:1001DC00B1F81B0092F8283070B1B1F81F1059B16A
:1001EC0043F0400382F828307047B1F81D00002816
:1001FC00EBD043F04003EAE703F0BF03F2E700BFA4
:10020C00400100200000002008B54FF48062024934
:10021C00024805F0EFF808BD00FC01087001002051
:10022C00002313B5019303689A68D10702D5002007
:10023C0002B010BD9A68144942F001029A60134A48
:10024C00126CB2FBF1F20192019AD2B91049D1F8B9
:10025C0030449A68D207EAD4D1F83024121B022A0F
:10026C00F7D99A6812F00102F3D1836A80F824203E
:10027C0043F010038362C36A43F00103C36201209D
:10028C00D6E7019A013ADEE740420F000000002059
:10029C0040010020036810B59A68D10701D40020F2
:1002AC0010BD9A680D4922F001029A60D1F83044D1
:1002BC009A68D207F3D5D1F83024121B022AF7D949
:1002CC009A68D207F4D5836A43F010038362C36A39
:1002DC0043F00103C3620120E2E700BF40010020AC
:1002EC00002807DB01234109034A00F01F0083406B
:1002FC0042F82130704700BF00E100E000280CDB21
:10030C0001220649430900F01F008240203341F8C6
:10031C002320BFF34F8FBFF36F8F704700E100E0D6
:10032C00154B30B5DC68C4F30224C4F10703251D5A
:10033C00042B28BF0423062D4FF0FF3594BF002457
:10034C00033C05FA03F321EA0303A54022EA050264
:10035C00A340002843EA0203ACBF00F16040074A07
:10036C004FEA0313DBB2ABBF00F5614000F00F00A6
:10037C0080F80033135430BD00ED00E014ED00E0C4
:10038C00044B054A5B68C3F30223D35C034A106C2D
:10039C00D840704700100240205700080000002091
:1003AC00044B054A5B68C3F3C223D35C034A106C4D
:1003BC00D840704700100240205700080000002071
:1003CC0010B504460168C2680B6923F4405313430B
:1003DC000B6183680069CA680343606922F4B052F8
:1003EC0022F00C0203431343CB604B69A26923F444
:1003FC00407313434B610D4B994214D1FFF7D0FF5F
:10040C0019235843636864229B00B0FBF3F0B0FBE4
:10041C00F2F402FB14031B013233B3FBF2F303EBD4
:10042C0004138B6010BDFFF7ABFFE9E70038014008
:10043C0030B50469226812F0010207D1CB6890F83C
:10044C004C5013F0010302D1012D17D130BDCB68F4
:10045C00012D23F00103CB6008D0022380F84D302E
:10046C000123636180F84D3080F84C206FF001035C
:10047C000B61CB6843F00103CB60E7E7022280F805
:10048C004D200122626180F84D2080F84C30DDE770
:10049C000B4B98420BD0B0F1804F0AD0A3F594339C
:1004AC00984208D003F58063984206D0FEE70020FE
:1004BC00704701207047022070470320704700BF2F
:1004CC00002C014008B5184B5A685A6859685A688C
:1004DC0003F580531B680369581C21D013488342D1
:1004EC0009D007D823F48062B2F1804F13D0104AA0
:1004FC00934210D0FEE7D20802F4E061FFF750FF00
:10050C00B1F5C06F05D00CD821F48071B1F5806FB6
:10051C0000D1400008BD01F4E061FFF731FFEFE7C7
:10052C00FEE7B1F5E06FF3E700100240002C01404C
:10053C00000800407B4B82B09A69013842F00102FE
:10054C009A619B6903F001030193019B23282CD82A
:10055C00DFE810F024002D0034003B004000470081
:10056C004C00530058005F0068006D0074007D0063
:10057C008200890092009B00A000A700B000B5008B
:10058C00BC002B002B002B00C100C8002B002B0043
:10059C002B002B00CD00D200D900E000624A53683A
:1005AC0043F0E06343F00103536002B070475E4ACE
:1005BC00536823F0010343F0E063F5E75A4A5368AC
:1005CC0043F0E06343F00203EEE7574A536823F02D
:1005DC000203F0E7544A536843F0E06343F004032A
:1005EC00E2E7514A536823F00403E4E74E4A5368A8
:1005FC0043F0E06343F00803D6E74B4A536823F01B
:10060C000803D8E7484A536843F0E06343F03003EB
:10061C00CAE7454A536823F0300343F0E06343F0E4
:10062C001003C1E7404A536823F03003C3E73E4A46
:10063C00536843F0E06343F0C003B5E73A4A5368AC
:10064C0023F0C00343F0E06343F04003ACE7364AC9
:10065C00536823F0C003AEE7334A536843F0E063BA
:10066C0043F44073A0E7304A536823F4407343F0DB
:10067C00E06343F4007397E72B4A536823F4407309
:10068C0043F0E06343F480738EE7274A536823F406
:10069C00407390E7244A536843F0E06343F44063AB
:1006AC0082E7214A536823F4406343F0E06343F448
:1006BC00006379E71C4A536823F440637BE71A4ACA
:1006CC00536843F0E06343F480536DE7164A536874
:1006DC0023F480536FE7144A536843F0E06343F408
:1006EC00004361E7104A536823F4004363E70E4A62
:1006FC00536823F0E06357E70B4A536823F0E06339
:10070C0043F0807350E7084A536823F0E06343F0EA
:10071C00007349E7044A536823F0E06343F08063B5
:10072C0042E700BF0010024000000140431C02D110
:10073C00002070470C310B685A1CF9D09842F9D143
:10074C004868704703460868421C00D170478342D2
:10075C0001D1886870470C31F5E703468B42084697
:10076C0004D01BB100290CBF184600207047036849
:10077C001D4A84B093420BD11C4B9A6942F400621F
:10078C009A619B6903F400630093009B04B070476B
:10079C00B3F1804F0BD103F50433DA6942F0010257
:1007AC00DA61DB6903F001030193019BEEE7104A68
:1007BC0093420AD10D4BDA6942F00202DA61DB692D
:1007CC0003F002030293029BE0E70A4A9342DDD155
:1007DC00064BDA6942F00402DA61DB6903F00403C8
:1007EC000393039BD2E700BF002C01400010024092
:1007FC000004004000080040431C10D00C4B9842F1
:10080C0010D007D8B0F1804F0ED0A3F5806398427A
:10081C000CD0FEE7074B9842FBD1192070476FF0C4
:10082C000D0070471E2070471C2070471D2070471C
:10083C0000080040002C0140431C10D00C4B984287
:10084C0010D007D8B0F1804F0ED0A3F5806398423A
:10085C000CD0FEE7074B9842FBD11B2070476FF082
:10086C000D0070471E2070471C2070471D207047DC
:10087C0000080040002C014090F86520084B03EB69
:10088C008203D3F8343493F8410093F84230184380
:10089C0000F02200A0F1220358425841704700BFDB
:1008AC0040010020B0F80831B0F80421981A00F08B
:1008BC003F007047B0F80831B0F804219BB2934266
:1008CC001ABFD0F8FC30985C4FF0FF30704790F8AE
:1008DC000631B0F80A01C0B2834227BFC3F13F030F
:1008EC00C018C01A00F1FF30704707B503688DF8C7
:1008FC00071001225B680DF10701984703B05DF802
:10090C0004FBD0F8EC3010B50133044626D1036853
:10091C00DB68984794F8111101BB012384F811315D
:10092C00D4F8EC30013319D194F8F9200C4B03EBCB
:10093C008203D3F8343493F84020012A0ED02422B9
:10094C00186883F84120C26822F00C0242F00402BD
:10095C00C260202283F8401083F8412010BD00BFF4
:10096C004001002010B50446FFF7CBFFB4F8082176
:10097C00B4F8043192B29A4217BFD4F8FC204FF06D
:10098C00FF30D05C01331CBF03F03F03A4F80431EB
:10099C0010BD38B504460A4DD5F83034C360236811
:1009AC0020465B699847002808DAE268D5F83034AD
:1009BC009B1AA2689342F2D34FF0FF3038BD00BFB0
:1009CC0040010020F8B507460D460C468E18B4427F
:1009DC0001D1601BF8BD3846FFF7DBFF431CF8D094
:1009EC0004F8010BF3E72DE9F0410746884616465B
:1009FC001D4673B100243846FFF7CBFF431C05D0CE
:100A0C00404503D030550134A542F4D12046BDE811
:100A1C00F0811C46FAE791420FD008D90123891ABC
:100A2C008B40984208D30130C8400138704720B140
:100A3C000130521A9040F8E700207047C3B2242BC3
:100A4C001ED8184A02EB83039B6800F4E06018433D
:100A5C00431C26D0C0F30312124B042A00F00F00E3
:100A6C0098BF03EB820203EB8003D3F8D8308CBF22
:100A7C000022D2F8C420C3F30F2389B1136170474D
:100A8C0000F0C002C02A0CD1C92B0AD8054B00F0CB
:100A9C003F0203EB8202D2F89C2003EB8203D3E7E4
:100AAC005361704720570008C3B2242B20D81B4A2F
:100ABC0002EB83039B6800F4E0601843431C27D0CF
:100ACC00C0F30313042B25D8144A00F00F0002EBDB
:100ADC008303D3F8C43002EB80029B68D2F8D82091
:100AEC00D84300EA122080B2B0FA80F04009704777
:100AFC0000F0C002C02A0BD1C92B09D8074B00F05B
:100B0C003F0203EB8202D2F89C2003EB8203D1E775
:100B1C000020704700239B68FFDE00BF20570008B1
:100B2C00044AD2F83014D2F830345B1A8342FAD328
:100B3C00704700BF4001002038B50D46044658B33D
:100B4C00164B036590F96400FFF7D8FB94F8652009
:100B5C00134BB4F8761003EB8203D3F8343489B218
:100B6C0093F84120202A11D1E26E52180ED0ADB26A
:100B7C0065B11A620022DD845A64212283F8412077
:100B8C001A689D84D36843F08003D36094F96400A1
:100B9C00BDE83840FFF7A4BB38BD00BFB10B00085F
:100BAC0040010020B0F87610826F10B50A4402F0B4
:100BBC003F02A0F87620B0F87620B0F8721092B20E
:100BCC00914219D0B0F876404031A4B2B0F87620FA
:100BDC00091B4C4292B204F03F0401F03F01C2F1F8
:100BEC00400258BF6142914228BF11468167FFF70E
:100BFC00A3FF4FF0FF3010BD0020FCE7094AD2F8EC
:100C0C004034D2F8301499688907FCD51873996868
:100C1C00C907FCD5187BD2F83024C0B29A681206EA
:100C2C00FCD470474001002010B54CF25034224BDC
:100C3C00224AD3F83004D168C90736D4D1688C065F
:100C4C0044BF2021D160D168C80606D4D169C90738
:100C5C0003D4D06810F0040026D01849CA6812F0EA
:100C6C0010021FBFD3F8D42442F00202C3F8D424DC
:100C7C001022C9684C0741BFD3F8D41442F00402C7
:100C8C0041F00101C3F8D4140C49C869C00709D557
:100C9C00D3F8D40440F00400C3F8D404CB6923F097
:100CAC000103CB610120CA6010BDD3F83014091ABE
:100CBC00A142C0D90320F7E74001002000200240E8
:100CCC0043222DE9F04F624B93B01A7046225A70B2
:100CDC0047229A703122DA7002221D461A7103F1F2
:100CEC00280607AA144618685968083303C4B34287
:100CFC002246F7D119889B7807A8A370002321807E
:100D0C002B21544F8DF845308DF84630FFF7F8F90C
:100D1C002B23B9460093504CA7F13003A5F82900BA
:100D2C000193019B13F8015B0193FFF76DFA19F81E
:100D3C00013B9D4219D009F8015C23691A060CD4B9
:100D4C0040F21513424EE36096F8D034012B13D1C8
:100D5C00236943F08003236107E0404B636003F198
:100D6C008833636023691B06EAD5009B013B009323
:100D7C00D7D113B0BDE8F08F012586F8D054FFF71A
:100D8C0053FF834600285AD1C6F8D4042369DFF8F0
:100D9C00D08043F002032361C4F81480236943F02C
:100DAC0040032361FFF740FF2269824622F00202D2
:100DBC00226186F8D0B40028CAD1BB468DF81350F6
:100DCC00DBF800300BF1080B03935BF8043C029347
:100DDC009DF8133086F8D034FFF726FF054670BB1C
:100DEC004146039BC5F1200E23FA05F0029BC6F881
:100DFC00D4A403FA0EFEA5F1200C23FA0CFC40EA55
:100E0C000E00236940EA0C0043F0010380B2236119
:100E1C0008800591FFF708FF236923F00103236184
:100E2C0090B905991035402D01F10201D9D10D4928
:100E3C0008F10808884586F8D004C1D188E700225B
:100E4C00034B83F8D02483E786F8D0A480E700BF57
:100E5C004001002070010020002002402301674562
:100E6C0000FC01080000020890F84230202B18D139
:100E7C00002301220363C285436422238285026915
:100E8C0080F84230816203681AB1DA6842F48072E9
:100E9C00DA605A6942F001025A61DA6842F02002C3
:100EAC00DA60704730B5044650F8043985B01D68D7
:100EBC0015F0010510D0002200921A6800925B68B0
:100ECC000093009BFFF7D8FC30BB204604F1620175
:100EDC0005B0BDE83040C7E7196811F0020106D033
:100EEC0001951A6801925B680193019BEAE71A6805
:100EFC0012F0040206D002911A6802925B68029307
:100F0C00029BDFE719680907DCD503921A68039284
:100F1C005B680393039BD5E705B030BD0023406AA3
:100F2C00C385C384BEE738B50446F0B1FFF7A4FC13
:100F3C00D8B9214694F865200C4B11F8665F03EB89
:100F4C008203D3F83404FFF78FFFB4F87430B4F88D
:100F5C007020013303F03F03934206D0B4F87420A1
:100F6C00A16E92B28D54A4F8743038BD40010020AB
:100F7C00F8B500F1600504462B46002200F1B006DE
:100F8C00C3E90022C3E902221033B342F8D1084668
:100F9C00FFF77EFA524B04F1100703EB800304F1C8
:100FAC000C00C3F8D8040E233846C4E90C22C4E95B
:100FBC000E22C4E91022C4E91632216184F82C20D7
:100FCC00A26484F84C2084F84D20E460FFF7CFFB3A
:100FDC00AB6833B103222946284698470023C5E95C
:100FEC0002331035B542F3D100234FF6FF72C4E93A
:100FFC000033C4E90632C4E90833A360636180237B
:10100C00A36294F84D3003F0FF020BBB384684F812
:10101C004C20FFF7ACFB2069FFF7EEFBD4E916126E
:10102C000546FFF77DF92846FFF75AF92269104665
:10103C00FFF702FC05461046FFF7DEFB854207D0A2
:10104C00D4E916122846FFF76BF92846FFF748F942
:10105C000223244984F84D3023698B421A680AD044
:10106C00B3F1804F07D0A1F594318B4203D001F539
:10107C0080618B4207D1A16922F070020A43216A78
:10108C0022F440720A43A16A22F080020A431A60D9
:10109C00E269DA6262699A62124A934204BF626A36
:1010AC001A6301225A611969C90742BF196921F0F3
:1010BC000101196184F8562084F84E2084F84F20E1
:1010CC0084F8502084F8512084F8522084F853205E
:1010DC0084F8542084F8552084F84D20F8BD00BFC6
:1010EC0040010020002C0140836801460BB1032213
:1010FC001847704790F8423082B0222B3ED181685D
:10110C000268B1F5805F836A3AD1016900293AD14E
:10111C005268C2F3080223F8022B8362C38D013B91
:10112C009BB2C38553BB0268D16821F02001D1600A
:10113C00D16821F48071D160516921F001015161B4
:10114C00202280F842204363026B012A026824D1DA
:10115C00036302F10C0353E8003F23F0100302F188
:10116C000C0040E800310029F3D11368DB0605D5EB
:10117C0001911368019353680193019B02B070476E
:10118C0039B9016929B95268D2B21A70836A01332C
:10119C00C3E7526802F07F02F7E7836C043802B0B1
:1011AC001847036837B51A68044612F00F0FD96850
:1011BC005D6909D1950640F1CF808D0640F1CC8058
:1011CC0003B0BDE8304095E705F0010001F49075DF
:1011DC00054300F0C180D50705D5CB0542BF636C34
:1011EC0043F001036364550704D518B1636C43F0F5
:1011FC0002036364930704D518B1636C43F00403D2
:10120C006364150707D501F0200303431EBF636C0D
:10121C0043F008036364636C002B00F09B80900622
:10122C0004D5890602D52046FFF764FF23685A6966
:10123C00616C02F0400201F0080152EA010500F075
:10124C00858003F10C0252E8002F22F4907203F116
:10125C000C0040E800210029F3D103F1140252E8FC
:10126C00002F22F0010203F1140040E800210029B4
:10127C00F3D1226B012A0CD0202284F842200022C8
:10128C0022635A69520611D4204603B0BDE830409F
:10129C0008E603F10C0252E8002F22F0100203F1D1
:1012AC000C0040E800210029F3D1E5E703F114021A
:1012BC0052E8002F22F0400203F1140040E8002114
:1012CC000029F3D1E06B0028DED0964B436390F8F5
:1012DC002130022B05D00423836303B0BDE83040DA
:1012EC001CE603681A6822F00E021A601A6822F0D3
:1012FC0001021A608C4A93421BD0143293421AD0CA
:10130C001432934219D01432934219D014329342AE
:10131C0019D01432934214BF4FF080734FF48013E2
:10132C00824A5360012380F82130002380F820305A
:10133C00D3E70123F4E71023F2E74FF48073EFE7D0
:10134C004FF48053ECE74FF48033E9E72046FFF786
:10135C00A9FD656403B030BD206B012840F0A3806B
:10136C00D50640F1A080C80640F19D800022019274
:10137C001A6801925A680192019A5A6955065ED50B
:10138C00E26B1168496889B20029E3D0A08D8842CC
:10139C00E0D9E185916920293BD003F10C0151E89A
:1013AC00001F21F4807103F10C0545E800100028A2
:1013BC00F3D103F1140151E8001F21F0010103F1F5
:1013CC00140545E800100028F3D103F1140151E88D
:1013DC00001F21F0400103F1140545E8001000281E
:1013EC00F3D1202184F84210206303F10C0151E861
:1013FC00001F21F0100103F10C0545E80010002836
:10140C00F3D192F82130022B07D00423936382F896
:10141C00200002236363E38D9CE71368D56B196886
:10142C0021F00E011960196821F0010119600121E8
:10143C00136C01FA03F36B6082F82110E7E7E28D7D
:10144C00E18D92B289B2002984D0A18D914281D0D4
:10145C0003F10C0252E8002F22F4907203F10C00FD
:10146C0040E800210029F3D103F1140252E8002FC7
:10147C0022F0010203F1140040E800210029F3D10D
:10148C00202284F84220216303F10C0252E8002F41
:10149C0022F0100203F10C0040E800210029F3D1E6
:1014AC000223636356E7100628D50D0626D594F85B
:1014BC004120212A7FF44EAFA168226AB1F5805FEA
:1014CC0017D12169A9B932F8021BC1F3080159607F
:1014DC002262E28C013A92B2E284002A7FF43AAFA3
:1014EC00DA6822F08002DA60DA6842F04002DA60F0
:1014FC0030E7511C216212785A60EAE750067FF5FA
:10150C0029AF4A067FF526AFDA68201F22F0400289
:10151C00DA60202384F84130E36C03B0BDE830403E
:10152C00184700BF290F00080800024000000240C5
:10153C0021B990F84230012B13D07047042904D103
:10154C0090F84330012B36D07047082904D190F81D
:10155C004430012B33D0704790F84530012B32D0FA
:10156C007047022380F842300422036802FA01F12A
:10157C001A6A22EA01021A621A6A114319625A6C37
:10158C0042F400425A64124A93420AD0B3F1804F9B
:10159C0007D0A2F59432934203D002F580629342B5
:1015AC0004D19A6802F00702062A03D01A6842F0A6
:1015BC0001021A607047022380F84330D4E70223FB
:1015CC0080F84430D0E7022380F84530CCE700BFE8
:1015DC00002C0140002932D190F83E2090F8423086
:1015EC00D2B2012ADBB229D1012B27D10223002947
:1015FC003BD180F83E3080F84230012203688A40AB
:10160C00196A21EA02011962196A0A431A62204A0C
:10161C0093420AD0B3F1804F07D0A2F59432934293
:10162C0003D002F58062934204D19A6802F007025B
:10163C00062A03D01A6842F001021A607047042986
:10164C0005D190F83F2090F84330D2B2C9E7082971
:10165C000BBF90F8402090F8412090F8443090F85F
:10166C0045300CBFD2B2D2B2BBE7042904D180F80A
:10167C003F3080F84330C0E708290BBF80F840307A
:10168C0080F8413080F8443080F84530B5E700BF31
:10169C00002C014021B990F83E30012B19D0704735
:1016AC00042904D190F83F30012B2CD07047082925
:1016BC0007D190F84030012B24D1022380F8403020
:1016CC000AE090F84130012B1CD1022380F8413004
:1016DC0002E0022380F83E300122036802FA01F195
:1016EC001A6A22EA01021A621A6A1143104A196232
:1016FC0093420CD0B3F1804F0ED19A6802F00702DE
:10170C00062A10D17047022380F83F30E4E75A6C68
:10171C0042F400425A64F0E7064A9342EDD002F5D7
:10172C0080629342E9D01A6842F001021A60E9E73C
:10173C00002C01400004004090F83D30012B1AD1E0
:10174C0002230D4A80F83D30036893420AD0B3F16E
:10175C00804F07D0A2F59432934203D002F58062F9
:10176C00934204D19A6802F00702062A03D01A6841
:10177C0042F001021A607047002C0140F7B51E467A
:10178C00A5239DF820708DF80510054603210DF159
:10179C0005008DF804308DF806708DF80720FEF7E3
:1017AC00AFFC04462EB127B13A463146FEF7C2FCD7
:1017BC000446042228680DEB020103685B68984715
:1017CC0036B12FB128683A46036831465B689847B2
:1017DC002868C4F3072103681B6898472868E1B29E
:1017EC0003681B68984703B0F0BDF0B500252C27A3
:1017FC0085B0134C8DF808008DF80910ADF80A204F
:10180C00E379227A04F2EC4643EA0223ADF80C3079
:10181C0094F87735E8B2834201D805B0F0BD2318AF
:10182C0093F8E82402210132D2B283F8E82406238B
:10183C0007FB0060009302ABFFF7A0FF0135E7E761
:10184C0040010020F7B500242C270D4D05F2EC4685
:10185C0095F87735E0B2834201D803B0F0BD2B1870
:10186C0093F8E82406210132D2B283F8E82400234D
:10187C0007FB00600093FFF781FF0134E8E700BF2E
:10188C004001002037B50C4C0421231893F8E824B0
:10189C0004F27E550132D2B283F8E8241A23009365
:1018AC0003FB00532C2504F2EC4405FB0040FFF72E
:1018BC0065FF03B030BD00BF400100202DE9F04FA3
:1018CC0004460E46174698464FF0030A85B000F1C1
:1018DC000909206803681B699847002861D02068B3
:1018EC0003685B6998472379C5B2062BF1D8DFE80A
:1018FC0003F004090C17202B2F00A52DE9D101238F
:10190C002371E6E702236571FAE7202DA57104D94E
:10191C000023636023726385DBE784F804A0D8E7B7
:10192C0000232372A379E571002B14BF0423052334
:10193C00E6E7227A531CDBB2224423725572A27959
:10194C009A42C6D80523DBE72D0206236585D7E727
:10195C00638DA2791D4394F805B0E3790321658565
:10196C0003A88DF80D2001928DF80E308DF80CB077
:10197C00FEF7C6FB4946019AFEF7DCFB8542C7D150
:10198C0086F800B0E3793B70A2790E9B1A701AB1FD
:10199C004946404603F02EFD00230120636023726C
:1019AC00638505B0BDE8F08F2DE9F8430368044664
:1019BC009B680F469046984701232374D4F8EC306B
:1019CC00B4F8066101338146C6F140061FD194F884
:1019DC001131E3B1002294F8F9103A4B84F811213B
:1019EC0003EB8103D3F8343493F8401001290ED063
:1019FC002421186883F84110C16821F00C0141F0D2
:101A0C000801C160202183F8402083F8411023682D
:101A1C0020469B6898470028F9D04546B5422FD8F8
:101A2C004D452DD8B4F80661D4F800017319402B3C
:101A3C0030443AD82A46394603F0DCFC2E46B4F83A
:101A4C00063194F8F9201D441E4B05F03F0503EBBD
:101A5C008203D3F83424A4F8065192F8413092F85A
:101A6C004220134303F02103212B06D03146C4F846
:101A7C000C6104F19400FFF75FF84046BDE8F88371
:101A8C004E4528BF4E462368324639465B68204691
:101A9C009847236820469B689847AD1B3744B4F899
:101AAC0006618146C6F14006B8E7C6F140063246EB
:101ABC00394603F09FFCD4F80001AA1BB91903F0B6
:101ACC0099FCBCE740010020B0F5006F30B51BD28B
:101ADC00104B9B685C0118D41A0118D4DB0013D589
:101AEC00022308251B010C6803F18042496840055C
:101AFC0002F5C84240F00100C2F88451C2F8884196
:101B0C00C2F88C11C2F8800130BD0023E9E7012333
:101B1C00E7E700BF00640040042307B58DF80730E9
:101B2C00104BD3F8CC25009293F8D0258DF80420D7
:101B3C0092B193F875158DF8051093F8D1158DF8B1
:101B4C0006105AB193F8750500F5E8606946FFF781
:101B5C00BBFF03B05DF804FBFF21ECE740F27F70A4
:101B6C00F4E700BF4001002091FAA1F3B3FA83F32C
:101B7C0070B50D0E0F2691FAA1F1B1FA81F144590D
:101B8C009B0006FA03F3890024EA03048A402243EB
:101B9C00425170BD38B50B0E0C4691FAA1F1B1FA59
:101BAC0081F1C5580F2389008B4094FAA4F1B1FA46
:101BBC0081F12B408900012A23FA01F308D0022A73
:101BCC0019D0082B16D12146BDE838400422CBE7AA
:101BDC00042B03D108222146FFF7C6FF230A93FAF0
:101BEC00A3F3B3FA83F20123C168934021EA1421D1
:101BFC000B43C36038BD042B03D108222146FFF7E9
:101C0C00B3FFC36823EA1423F3E791FAA1F3B3FA01
:101C1C0083F370B50D0E042691FAA1F1B1FA81F19E
:101C2C0044599B0006FA03F3890024EA03048A4012
:101C3C002243425170BD2DE9F041431C04460F462E
:101C4C0086B000D1FEE7604B00F00F0203EB82037D
:101C5C00D3F8D860C0F30313042B5CD8DFE803F08F
:101C6C00032B37434F00594B594D9A6942F00402EC
:101C7C009A619B6903F004030493049B07F0070823
:101C8C00B8F1010F49D1330EE85896FAA6F3B3FA1E
:101C9C0083F303229B0002FA03F320EA030096FA73
:101CAC00A6F3B3FA83F39B009A4005EB166102434B
:101CBC000A60012246E0454B464D9A6942F0080203
:101CCC009A619B6903F008030393039BD6E73F4B90
:101CDC00414D9A6942F010029A619B6903F010031E
:101CEC000293029BCAE7394B3C4D9A6942F02002A1
:101CFC009A619B6903F020030193019BBEE7334B70
:101D0C00374D9A6942F040029A619B6903F0400397
:101D1C000093009BB2E70025B0E7C7F30620B8F1AB
:101D2C00030F0BD801A353F828F000BF4B1D00087C
:101D3C00BF1C0008AD1D0008B91D0008FEE7FEF72A
:101D4C00F9FB08223146284608F1FF38FFF70CFF53
:101D5C00B8F1010F06D817F0080218BF042231465B
:101D6C00FFF753FFC7F3011231462846FFF712FF66
:101D7C00164B9A6942F001029A619B6903F00103C8
:101D8C000593059BA4F10D03012B11D8154A53683B
:101D9C0023F0E06343F08063536006B0BDE8F0814C
:101DAC007F2801D0FEF7C6FB0922CBE70022C9E74A
:101DBC000F2C02D0133C012CEFD80A4A536823F0A5
:101DCC00E06343F00073E7E720570008001002407F
:101DDC0000080140000C01400010014000140140BB
:101DEC000018014000000140431C05D17047984287
:101DFC0001D189681FE70C310B685A1CF7D1FEE73B
:101E0C002DE9F04FB74C87B0D4F8A09406460D4698
:101E1C004846B54998469346FEF788FCB34903906B
:101E2C00D4F89C04FEF782FCB1490290D4F8A404C7
:101E3C00FEF77CFCD4F8A8A40746AE495046FEF742
:101E4C0075FC039B0190002B00F01381029A002A71
:101E5C0000F00F81002F00F00C8111461846FEF7A0
:101E6C007CFC019902463846FEF777FC0146104689
:101E7C00FEF773FC0746C4F89804002A00F0F980BA
:101E8C00002900F0F680002800F0F380BAF1FF3F43
:101E9C000CBF4FF400734FF48023B8F1000FC4F85B
:101EAC00583414BF00234FF48273C4F84434924B5B
:101EBC00C4F84004984240F0DF80FEF771FAB6EBAC
:101ECC00500F80F0E280B6EB900F80F0E080B6EB24
:101EDC00D00F80F0DE80B6EB101F80F0DC80B6EB0C
:101EEC00501F80F0DA80B6EB901F80F0D880B6EBF4
:101EFC00D01F2CBF30233823C4F85C34002D00F0E5
:101F0C00D080022D00F0CF80013D18BF01250123A8
:101F1C006D00C4F854340723C4F86C34BBFA8BF34B
:101F2C0000265B09DB0148466F49C4F86034C4F8ED
:101F3C004864C4F85054C4F86864C4F84C64C4F8D9
:101F4C006464FFF751FF6949D4F89C04FFF74CFF18
:101F5C006749D4F8A404FFF747FFD4F85034D4F8F9
:101F6C00A414B342C1F30310644B14BF0122022228
:101F7C0001F00F01042898BF03EB800003EB8103F1
:101F8C008CBF3046D0F8C400D3F8D810FFF702FE4F
:101F9C005849D4F8A804FFF727FF574B9F4240F04D
:101FAC00848003F560439A6942F480529A619A697D
:101FBC0002F480520592059ADA6842F48052DA6093
:101FCC00DA6822F48052DA60D4F86434D4F8441419
:101FDC00002B40F08180B1F5827F01D0C4F85C34D5
:101FEC000023C4F8683494F8913403F0FF020BB961
:101FFC0084F89024022384F891343B6801F48271B4
:10200C0023F040033B60D4F84834D4F8582403F44C
:10201C0004430B43D4F84C1401F400610B43D4F883
:10202C00501401F002010B43D4F8541401F00101D7
:10203C000B4302F400710B43D4F85C14120C01F046
:10204C0038010B43D4F8601402F0040201F0800153
:10205C000B433B607A60FB6923F40063FB61002354
:10206C00C4F89434012384F891343B6843F0400362
:10207C003B6007B0BDE8F08F214B984202D0214B5A
:10208C00186C1CE7FEF77CF919E7002334E70823EA
:10209C0032E7102330E718232EE720232CE72823E0
:1020AC002AE72B4635E7002333E7154B9F428BD1AC
:1020BC0003F5EC33DA6942F48042DA61DA6902F44E
:1020CC0080420492049A1A6942F480421A611A6995
:1020DC0022F480421A6177E70023C4F85034C4F824
:1020EC0054347DE740010020385800086858000837
:1020FC0098580008C85800080030014020570008C4
:10210C000038004000000020114B82B0CDE90001E6
:10211C00D3F8AC040F496A46884206D1D3F8B01400
:10212C000198414031F07F410FD092E803000A0C36
:10213C00C3F8AC04A3F8B01483F8B2240023012232
:10214C000448C1F3072102B05AE602B0704700BF41
:10215C004001002040420F00F7B5254B00250093AD
:10216C0001238DF80650ADF80430224E02AB044624
:10217C0013E90300FFF7C8FF2946D6F8D405FEF78C
:10218C005DFC0320FEF73AFD2846FEF737FD284696
:10219C00FEF734FD651E04F10D07FF20FEF72EFD42
:1021AC0005F8010FBD42F8D10121D6F8D405FEF790
:1021BC0045FC2268104B9A4217D123798B4214D1DB
:1021CC0063793F2B11D8E379032B0ED80023A68912
:1021DC000E21237363732046FDF792FFB5B22B1AC1
:1021EC005842A681584103B0F0BD0020FBE700BF68
:1021FC0040420F004001002057494E31F7B5154BB6
:10220C000027009340F2013305460C46ADF804302C
:10221C00114E02AB8DF8067013E90300FFF774FF43
:10222C003946D6F8D805FEF709FC7D20FEF7E6FC0A
:10223C002846FEF7E3FC7E20FEF7E0FC2046FEF786
:10224C00DDFC0121D6F8D80503B0BDE8F040FEF75F
:10225C00F5BB00BF40420F004001002073B5154B89
:10226C000026009340F201330446ADF80430124DC1
:10227C0002AB8DF8066013E90300FFF745FF31460A
:10228C00D5F8D805FEF7DAFB7D20FEF7B7FC204623
:10229C00FEF7B4FC7F20FEF7B1FC7F20FEF7AEFC0E
:1022AC0004460121D5F8D805FEF7C8FB204602B03C
:1022BC0070BD00BF40420F004001002008B5002057
:1022CC00FFF7CCFFBDE8084000F0FE01002095E7C9
:1022DC0010B5044601462120FFF790FF2146272028
:1022EC00FFF78CFF1CB121462620FFF787FFBDE8C6
:1022FC001040E3E72DE9F04FD0F854A0044689B024
:10230C00894650468749CDE90023FEF70FFAA26DA6
:10231C008549804610460392FEF708FAE36D83491F
:10232C00064618460293FEF701FAD4F860B005464B
:10233C007F495846FEF7FAF9DDE902320746B8F153
:10234C00000F03D1002009B0BDE8F08F013201D09D
:10235C00002EF7D0013301D0002DF3D0BBF1FF3F9D
:10236C0001D0002FEED031464046FEF7F6F9294653
:10237C00FEF7F3F93946FEF7F0F9804620600028A5
:10238C00E0D06C4B98427ED103F55843DA6842F4A6
:10239C008042DA60DA6822F48042DA609A6942F4A8
:1023AC0080429A619B69002203F480430793079B48
:1023BC00252350465B4984F8652084F86430FFF788
:1023CC0013FD1EB15849A06DFFF70EFD2DB15749F5
:1023DC00E06DFFF709FD4FF480752FB15449206E65
:1023EC0045F40075FFF700FD94F86520524B271D4E
:1023FC0003EB8203C3F83474009B0022E360129B4E
:10240C0001212361019BC4E9018963610C2394F9C7
:10241C006400C4E906352262FDF782FF94F845306A
:10242C00002E63D10BB984F84460242384F8453022
:10243C00D8F80C30384623F40053C8F80C30FDF7AC
:10244C00BFFFD8F8103023F49043C8F81030D8F8F8
:10245C00143023F02203C8F81430D8F8143043F0A9
:10246C000803C8F81430D8F80C30202243F4005379
:10247C00C8F80C3000230120A36484F8452084F8AC
:10248C004620A3635FE72D4B984215D103F5E63345
:10249C001A6942F400321A611A6922F400321A6184
:1024AC00DA6942F40032DA61DB69012203F40033A9
:1024BC000693069B26237CE7214B98427FF442AF80
:1024CC0003F5E4331A6942F480221A611A6922F482
:1024DC0080221A61DA6942F48022DA61DB69022215
:1024EC0003F480230593059B272362E703F0FF0287
:1024FC000BB984F84420242384F84530D8F80C30E8
:10250C00384623F40053C8F80C30FDF759FFD8F8BF
:10251C00103023F49043C8F81030D8F8143023F05E
:10252C002A039EE7F858000834590008705900082F
:10253C00AC59000800380140400100200044004024
:10254C0000480040062373B504681A4984F8123118
:10255C00002304F19406C4F8141105461A463046BB
:10256C000093FFF7C7FE84F81001E0B12046FEF798
:10257C00C8F93046FEF780F9A8B90F4B94F9F8006A
:10258C00C4F8E030FDF7BAFE94F8F9200B4B04F1D7
:10259C00FA0103EB8203D3F83404FEF765FC94F9DB
:1025AC00F800FDF79DFE00236B602B726B8502B06B
:1025BC0070BD00BF90D00300330F00084001002015
:1025CC00826810B50AB903F095F8C368BDE81040ED
:1025DC0018470B4B5A69024211D05861002301284D
:1025EC0003F1010208D114220648DBB202FB0300FE
:1025FC00C36804301BB1E3E713464008EFE77047AC
:10260C000004014024070020037F013B072B14D852
:10261C00DFE803F00411130D1313130F012350F80B
:10262C00040C063300EB0310836833B1C8E70323B3
:10263C00F5E70423F3E70223F1E77047036870B56D
:10264C00DD681E690446B2070BD5A90709D56FF0E2
:10265C0002021A61012202779B69FFF7D5FF002362
:10266C00237772070DD56B070BD56FF00402236827
:10267C0020461A61022222779B69FFF7C5FF0023CF
:10268C00237730070DD529070BD56FF00802236887
:10269C0020461A6104222277DB69FFF7B5FF00237D
:1026AC002377F2060DD5EB060BD56FF010022368DD
:1026BC0020461A6108222277DB69FFF7A5FF002369
:1026CC002377F0070CD5E9070AD56FF001022368D0
:1026DC0054F8040C1A61836E13B16030FFF770FF6D
:1026EC00320605D52B0642BF6FF0800223681A61B3
:1026FC00700605D5690642BF6FF0400223681A6167
:10270C00B20605D5AB0642BF6FF0200223681A61F2
:10271C0070BD037C4BB1054BB0F80621D3F83034B7
:10272C00B0F80A319BB29A42FAD1704740010020AE
:10273C002DE9F84FC3B2242B0D461AD8554A02EB9B
:10274C0083039B6800F4E0641C43661C00F09F80CC
:10275C00514FC4F303134FEA830907EB8303D3F8F8
:10276C00243704F00F0823FA08F3D80723D54B4B72
:10277C0014E000F0C002C02A40F08980C92B00F29E
:10278C008680444B00F03F0203EB8202D2F89C207F
:10279C0003EB8203D5E794423DD00C331A68511CED
:1027AC00F9D10122B944D9F8243702FA08F223EA04
:1027BC000203C9F82437022D27D0032D27D0012D71
:1027CC0027D000212046BDE8F84FFFF734BAB2F10C
:1027DC00804F06D102F50432D36923F00103D36193
:1027EC0043E02F4B9A4204D12E4AD36923F00203C3
:1027FC00F5E72D4B9A4238D12A4AD36923F00403CA
:10280C00EDE7304602F012FFCBE71021DAE720218A
:10281C00D8E72946D6E720462049FDF787FFFDF784
:10282C0037FE07EB8006D6F8D8347BB9B02002F01F
:10283C00F5FE1A4982462046FDF778FF01465046C0
:10284C00FEF796FBD6F8D834C3F800A01E68002E0D
:10285C00A7D032691046FDF71BFE144B9A42B6D135
:10286C00104A936923F400639361002307EB800003
:10287C00C0F8D834F36006F1B00A06F1600BD3450A
:10288C00BFD0AAF1100A5046FEF72EFCF7E7BDE8C0
:10289C00F88F00BF2057000840010020E8590008BD
:1028AC00000400400010024000080040002C0140D1
:1028BC0070B500240A4D0B4E96F8D03555F8040B24
:1028CC005BB1B6F87A15E14001F001010231013437
:1028DC00FFF72EFF032CEFD170BD0221F7E700BFED
:1028EC00EC5B0008400100202DE9F04FC3B2242B13
:1028FC000446884685B00BD8B14A02EB83039B682B
:10290C0004F4E0651D43681C00F05C82AD4B15E0DF
:10291C0000F0C002C02A40F05582C92B00F252824E
:10292C00A74B00F03F0203EB8202D2F89C2003EB92
:10293C008203E4E7954200F0F1810C331A68511CD4
:10294C00F8D101212046FFF7F3FE9F4B08224046A9
:10295C00996CFEF760F87F2840F2D9810121D7E10C
:10296C00FEE75A6B94F84C10012930D00121082F46
:10297C0084F84C1061D000F28680196A186A002F16
:10298C003AD120F001001862D3F804E0DFF83CB231
:10299C0098695B4520F0730040F0600012BF21F095
:1029AC00020121F00E012EF4407EC3F804E0986180
:1029BC005A6319629A6942F008029A619A6922F084
:1029CC0004029A619A699A61002384F84C300423BA
:1029DC002846ACF802307B49FDF7B4FEC0F3C43096
:1029EC00431E032B70D8B6EB800F6ED0FEE70C2E77
:1029FC000CBFDA6B1A6CB5E720F010001862D3F834
:102A0C0004E0DFF8C8B198695B4520F4E64040F477
:102A1C00C04012BF21F0200121F0E0012EF4406EE5
:102A2C00C3F804E098619A6319629A6942F40062EF
:102A3C009A619A6922F48062C3E7196A186ADFF80E
:102A4C008CB120F480701862D3F804E0D8695B452F
:102A5C0020F0730040F0600012BF21F4007121F4EB
:102A6C0060612EF4405EC3F804E0D861DA63196249
:102A7C00DA6942F00802DA61DA6922F00402DA61FA
:102A8C00DA69DA61A0E7186A196ADFF840B121F453
:102A9C0080511962D3F804E0D9695B4521F4E64111
:102AAC0041F4C04120F4005008BF2EF4804EC3F80E
:102ABC0004E0D9611A641862DA6942F40062DA61DE
:102ACC00DA6922F48062DAE7FEE728463D49FFF72F
:102ADC008BF928463B49FDF735FE10F4801F0CBFDF
:102AEC000122102214F80A30134304F80A3020464D
:102AFC00FDF7E8FC039B2669B0FBF3F0020C531CBA
:102B0C00984228BFB0FBF3F0B26228BF00F1FF3A45
:102B1C00DDE90121404638BF4FF0000AFDF77BFF8D
:102B2C00C6F82CA0054631462046C4F81CA0FDF77B
:102B3C007FFCB36A03F101089DF80430822B5DD051
:102B4C0053D8102B46D8002B5DD14FF6FF72F36A89
:102B5C00934203D1B5F5803F08BF1D46002F5BD1D2
:102B6C00756331462046FDF763FCB9F1040F00F0A4
:102B7C002981274600250122DFF8548004F1020A3E
:102B8C0008F104093AF8023F002B5AD004F17802FC
:102B9C0052F825B0BBF1000F06D099F80010CA43CB
:102BAC003261F2680A43F260013B0A2B48D8DFE835
:102BBC0003F03C3C3C3C3C3C3CA8A8A86E0000BF4D
:102BCC0020570008E859000800000020002C0140A4
:102BDC00F85B0008812BB8D1FDF774FC7B4BB0FB84
:102BEC00F3F06843B0FBF8F5AFE7832BADD1F36A94
:102BFC0003FB05536425B3FBF5F5A6E7FDF762FC73
:102C0C0008FB05F8EEE7F26A02FB055201259D4030
:102C1C00013DB2FBF5F598E7042F01D1B563A0E7B0
:102C2C00082F0CBFF56335649BE73B78DA0604D5B7
:102C3C00294604F11000FEF77BFC3B78DB0720D41F
:102C4C0000220435102D07F1010708F1010809F1E4
:102C5C00010997D1A36E33B16FF001033361F368AF
:102C6C0043F00103F360002A00F0AC803368D9070D
:102C7C0000F1A88004F1100005B0BDE8F04FFEF79C
:102C8C005BBD294604F11000FEF704FDD8E7294688
:102C9C0004F11000FEF79EFC98F80020013AA15CAC
:102CAC0011F0100306D0022A29D8494B03EB42033A
:102CBC00B3F8E034C80707D5032A20D8DFE802F0C0
:102CCC000216191C43F00103316A0B433362BBF14A
:102CDC00000FB5D0032A13D83D4B134493F8DC24D2
:102CEC00D3433361F3681343F360A9E743F0100354
:102CFC00EAE743F48073E7E743F48053E4E7FEE745
:102D0C00FEE7294604F11000FEF764FC98E7002169
:102D1C00204605B0BDE8F04FFDF790BE2D4FC5F332
:102D2C00031307EB8303D3F8240705F00F0120FAF4
:102D3C0001F2D20704D401228A400243C3F82427AB
:102D4C00254B28469A6C25490292DA6C1B6D019230
:102D5C000393FDF7EBFCFDF79BFB07EB8007D7F824
:102D6C00D84474B9B02002F059FC1C4906462846D8
:102D7C00FDF7DCFC01463046FEF7FAF8D7F8D844EC
:102D8C00266028461549FDF7DDFCC0F3C43606F174
:102D9C00FF3ABAF1030F3FF6E3AD246804EB460C9F
:102DAC00BCF80290B600B9F1040FA6F104073FF489
:102DBC009EAE042E23693FF4D4AD082E7FF417AEDB
:102DCC009A6BCFE505B0BDE8F08F00BF40420F0015
:102DDC00205700084001002000000020E85900089E
:102DEC00F8B50F4D044605EB80050021D5F8E80435
:102DFC00FFF77AFD00210B4ED5F8F004670106EBC6
:102E0C004414E180FDF71AFED5F8F804FDF716FE20
:102E1C00237AF15523F0030323722177F8BD00BF09
:102E2C00205700080000002008B50020FFF7D8FF4D
:102E3C00BDE808400120D3E770B50B4C06460D46A3
:102E4C00FFF7F2FF94F8D1350BB9FEF7FBFC074BFB
:102E5C0084F8385783F85460052384F839370023F5
:102E6C0084F83A3770BD00BF4001002000000020FC
:102E7C0008B5FFF7D9FF0D4A92F8D0359BB992F8F7
:102E8C00D135B3FA83F35B09094981F85430002139
:102E9C008B4214BF0523012382F8381782F8393787
:102EAC0082F83A1708BD0023EEE700BF400100206E
:102EBC00000000202DE9F04FBA4C87B00393D4F8F2
:102ECC0030340D2805460F469046C4F83C371FD1C8
:102EDC0094F8D125002A40F0A680B4F8073084F885
:102EEC0006800133A4F80730FDF7EAFE94F840376A
:102EFC002BB194F8E03513B1A079FFF7E9F994F808
:102F0C004127A379134084F8413707B0BDE8F08F0F
:102F1C00021F082A00F28780DFE802F00571138592
:102F2C00858585852100FFF77FFF94F8D1350BB996
:102F3C00FEF788FC002384F83A37022384F83937EB
:102F4C00E3E7FFF795FF94F8D135002BDDD142462E
:102F5C003946062007B0BDE8F04FFEF746BCFFF738
:102F6C0063FF00236FF017060325C4F81930C4F86B
:102F7C001D30B4F8073066740133A5746675A575F9
:102F8C00E6742575E6752576A4F80730FDF798FEEE
:102F9C0094F8D195B9F1000F1FD14B461A2094F833
:102FAC0077C5DAB2944518D900FB0342B2F87E1506
:102FBC0082F88865013182F8895582F88C6582F82F
:102FCC008D5582F88A6582F88B5582F88E6582F869
:102FDC008F55A2F87E150133E3E7FDF7F0F80023D7
:102FEC0084F83A37022384F83937B9F1000F8CD1C1
:102FFC00039B002B89D1424639460C20AAE703F5E6
:10300C007A73C4F8443794F83937012B04BF022380
:10301C0084F8393794F8D135002B7FF476AF4246DB
:10302C003946052096E7D4F84427D21A002A02DC48
:10303C00FE077FF56AAF5C4B93F85430002B7FF49E
:10304C0064AF94F8D13523B994F8D035002B3FF404
:10305C005CAF2846FDF7A4F8064600283FF455AFB0
:10306C0094F83A37AB4205D194F83937033B012B2E
:10307C007FF64BAFA5F1070B5FFA8BF3012B009397
:10308C008CBF032304234FF0000A1A1F84F839372E
:10309C0053425341711E84F849374B424B41B01E89
:1030AC00DFF808B105934342434104930BF1080345
:1030BC0084F83A5784F8485702933B4C0BF11003B1
:1030CC00384A0193009B5FFA8AF0012B67D90AF109
:1030DC000801012E02EB41010CBFB1F80190B1F8CF
:1030EC000590FFF77DFE1E20FDF71AFD029B05994A
:1030FC0053F8040B0293FDF7A1FC019B049953F8C0
:10310C00040B0193FDF79AFC264A4FF00103D2F809
:10311C0030142670E1600021C4E90411A1616177CB
:10312C00052121720AF10C01237702EB4101B1F860
:10313C00010020B1B1F8051009B145212172012E11
:10314C0008BF217A04F1200404BF41F0020104F805
:10315C00181CB9F57A7F28BF4FF47A794FF47A713D
:10316C00C9EB8920B0FBF1F15BF8040BFFF7BCFB5A
:10317C000AF10101022924F81A9C4FF0010A094AAC
:10318C00A0D192F8D135002B7FF4BFAE039B002B5E
:10319C007FF4BBAE4246284647EA0A01DAE64FF412
:1031AC007A799EE74001002000000020085C0008AE
:1031BC00034BD3F8D80410B10430FFF73FBA704773
:1031CC0040010020FFF7F4BF034BD3F8DC0410B12F
:1031DC000430FFF733BA704740010020034BD3F89B
:1031EC00E00410B10430FFF729BA70474001002009
:1031FC00034BD3F8E40410B10430FFF71FBA704747
:10320C004001002002F012BA02F010BA034AD2F8C0
:10321C0030340133C2F83034704700BF4001002015
:10322C000120FFF7D6B90220FFF7D3B90420FFF72E
:10323C00D0B90820FFF7CDB91020FFF7CAB908B5EF
:10324C002020FFF7C6F94020FFF7C3F98020FFF7D5
:10325C00C0F94FF48070FFF7BCF9BDE808404FF49B
:10326C000070FFF7B6B938B506244FF48065A8B2E4
:10327C00FFF7AFF9013C4FEA4505F8D138BD0F4BCC
:10328C001A6842F001021A6059680D4A0A405A60E5
:10329C001A6822F0847222F480321A601A6822F4BE
:1032AC0080221A605A6822F4FE025A604FF41F0200
:1032BC009A604FF00062034B9A6070470010024016
:1032CC000000FFF800ED00E02022044BC3F884213D
:1032DC00034BD3F83404FDF764BF00BF00E100E0FA
:1032EC00400100204022054BC3F88421044BD3F845
:1032FC00380408B1FDF755BF704700BF00E100E08E
:10330C00400100208022054BC3F88421044BD3F8E4
:10331C003C0408B1FDF745BF704700BF00E100E079
:10332C004001002003460A4910B5886D0344EFF3B1
:10333C000882934205D90C224FF0FF30054B1A60DE
:10334C0010BD054A054C121B9342F4D28B65F7E76E
:10335C0000000020880D0020005000200004000018
:10336C004FF0FF3070474FF4005300204B60704714
:10337C00012070470020704700207047FEE716229E
:10338C00024B4FF0FF301A60704700BF880D0020D1
:10339C00012070472DE9F74F0E461746002867D0DD
:1033AC00441E012C00F29F80DFF84481514C98F8A8
:1033BC00D930D4F83054022B3AD898F8D93004EBE1
:1033CC008303D3F8343493F8612004EB8202D2F8EF
:1033DC00341491F8412091F84200024302F021028A
:1033EC00212A59D093F84120202A41D1002E3FD0D8
:1033FC00BAB2002A3CD0002521215D6483F841102B
:10340C00D4F830049A84DA849A68B2F5805F03D1D8
:10341C001A690AB9354616461968DA8C92B2002A2E
:10342C0048D10A68520656D5202283F841201FE065
:10343C0002203149FDF77AF9D0B14FF0000904F2BE
:10344C00344AB9F1030F88F8D99015D102202A49D2
:10345C00FDF76CF960B10223C8F8C83000234FF4B3
:10346C0016511A4625480093FEF744FF0028A4D1B4
:10347C00384603B0BDE8F08F5AF804BBBBF1000F1F
:10348C0007D002201C49FDF751F9DBF800308342CC
:10349C0093D009F10109D4E7D4F83024521BB2F5CA
:1034AC007A7F96D3E4E7D4F83024121AB2F57A7FF7
:1034BC00BAD8CA680A681206F5D54EB935F8022B87
:1034CC00C2F308024A60DA8C013A92B2DA84A4E7B9
:1034DC0016F8012BF6E7D4F83024121AB2F57A7FDD
:1034EC00A2D8CA689DE703685B689847C0E700BF2D
:1034FC000000002040010020F85800087400002053
:10350C0010B5054C237833B9044B13B10448AFF311
:10351C0000800123237010BD340C0020000000003B
:10352C000857000808B5034B1BB103490348AFF318
:10353C00008008BD00000000380C0020085700086F
:10354C000023C0E90033C0E9023370474FF47A72AC
:10355C0010B50F4C0146236CB3FBF2F3013BB3F1F6
:10356C00807F13D24FF0E020F0224361094B0F29EA
:10357C0083F823204FF000024FF0070382610361B0
:10358C0004D84FF0FF30FCF7CBFE616410BD00BFD8
:10359C000000002000ED00E038B500250446016075
:1035AC00057145718571C571057220222946093056
:1035BC0001F0F1FE658538BD1FB5924B9249DA6872
:1035CC00924C22F4E0621204120C0A43DA60E269B3
:1035DC00002042F08052E261E26902F080520392D4
:1035EC00039AA26942F00102A261A26902F00102EF
:1035FC000292029A626942F040026261626902F0D0
:10360C0040020192019AD3F8FC20D2015EBFD3F89C
:10361C00FC2042F08072C3F8FC207D4B58601A6885
:10362C0042F001021A6000BF00BF00BF794A5B681C
:10363C00136843F010031360724AD36823F4E063F9
:10364C001B041B0C0B43D360FFF780FF636813F064
:10365C000C0F07D0636803F00C03082B3AD1636896
:10366C00DB0337D42368236823F0F80343F080038B
:10367C002360636803F00C03082B46D00022664BD2
:10368C001A66664AD2F8301423689B0131D40121A2
:10369C00636823F4741343F4601363605E4B196620
:1036AC00D2F830142368980129D55A4A136813F0BC
:1036BC00060F33D0636843F4E0636360636843F4DC
:1036CC0060536360636823F0F003636023689801C0
:1036DC0030D4FEE70122504B1A60504AD2F8301415
:1036EC0023689807BFD4D2F830345B1A022BF7D971
:1036FC00FEE7D2F830345B1A022BC5D9F8E7D2F8C2
:10370C0030345B1A022BCDD9F2E76368DA03EFD4BD
:10371C0003F47013B3F5601FC7D0E9E7136823F007
:10372C00070343F002031360136803F00703022B33
:10373C00CFD1BFE741F288306368384A23F00303E6
:10374C0043F002036360D2F83014636803F00C0397
:10375C00082B2ED12F4A136803F00703022B2ED807
:10376C0063682F4A23F4E06343F480636360636807
:10377C0023F460536360616801F00C03082B2BD0B9
:10378C00284B6168284CC1F303110A4492F81225A6
:10379C00606CD3402364FFF7D9FE94F8613003F0DA
:1037AC00FF020BB984F86020012384F8613004B067
:1037BC0010BDD2F830345B1A8342C6D989E713683E
:1037CC0023F0070343F002031360136803F00703AD
:1037DC00022B7FF47EAFC3E7C1F383431344C903C9
:1037EC0093F800350AD561680E48C1F34041434354
:1037FC00114491F81015B3FBF1F3C2E70B494B439D
:10380C00BFE700BF00ED00E00003FA050010024026
:10381C00001000E000200240000042424001002065
:10382C002057000800127A000000002000093D001B
:10383C002DE98048ADB0AFF300804FF0E022E34CAF
:10384C00DFF88CB3D4F830049369E24E0993D4F8C2
:10385C003054916985424FF47A700A91516914BFC2
:10386C000A9A099A01318A1A4243B2FBF1F200FB1F
:10387C000525FCF777FC85EA000384F84A37FCF74A
:10388C0071FC0221C4F8CC051220FEF751FF022175
:10389C000720FEF74DFF0220FDF742F91220FDF73D
:1038AC0003F901460720FDF7FFF80C23CBE9193388
:1038BC000A23CBE9123344F6206380F0010081F037
:1038CC00010141EA400184F8D11508200121CBF80F
:1038DC005030FEF72DFF01211E20FEF729FF01219C
:1038EC001F20FEF725FF02211520FEF721FF0020E7
:1038FC00FFF776FA01210920FEF71AFF01211320A8
:10390C00FEF716FF01211420FEF712FF02211C20E6
:10391C00FEF70EFF0120FFF763FA2B25A6F1300707
:10392C00FCF772FC16F8013B013D07F8013BF7D19F
:10393C002268A94BA94D9A4220AF00F0D6811222E1
:10394C000021A74801F027FD432222704622627015
:10395C004722A2703122E270022222710122E2710E
:10396C0062710722A2710322A274A27522752276BB
:10397C006FF0230284F82120052284F822206FF0B6
:10398C00050284F823206FF0370284F825206FF0AD
:10399C00500200236FF017014FF0400C1F266420DB
:1039AC0084F826203A462372A373237484F82430B7
:1039BC0084F8273084F809C0A6726073617461754D
:1039CC0084F80BC02673E073E174E17584F8283039
:1039DC007E4B164618685968083303C6AB4232460C
:1039EC00F7D119889B7838463180B3702B21FCF7BE
:1039FC0087FBA4F8290094F8D155002D40F03D82A6
:103A0C0002211D20FEF794FE0121D4F8D405FEF707
:103A1C008FFE0121DFF8CC81D4F8D405FDF70EF828
:103A2C000E460A462B464046A4F8B014294684F8A4
:103A3C009154C4F8AC8484F8B254FEF7E1F96A48A6
:103A4C00FEF78AFB84F8D005FEF732FF3146D4F836
:103A5C00D80594F806A0FEF76BFE3146D4F8D805CD
:103A6C00FCF7ECFFD4F8DC05FEF762FED4F8DC952D
:103A7C0031464846FCF7E2FF0220FDF751F8294693
:103A8C004846FCF7DBFF1420FDF74AF832462B467C
:103A9C002946404684F89154C4F8AC84A4F8B06428
:103AAC0084F8B254FEF7ACF9504B8DF88650209345
:103ABC0040F20133ADF8843097E80300FEF724FBA5
:103ACC002946D4F8D805FCF7B9FF7A20FDF796F80B
:103ADC007A20FDF793F83146D4F8D805FCF7AEFF01
:103AEC00FD20FEF7BBFB50280CBF3346002384F8A7
:103AFC00E03503D15046FEF7EBFB3546227AE379ED
:103B0C0084F8405743EA0223ADF8803094F8222021
:103B1C0094F8213000254FF01A0E43EA0223ADF839
:103B2C00923094F8242094F82330DFF8C4C043EA90
:103B3C000223ADF89430D4F82530A27ACDF8963023
:103B4C00637A0DF1980843EA0223ADF88230A27B28
:103B5C00637B43EA0223ADF88630A27C637C43EAA4
:103B6C000223ADF88A30A27D637D43EA0223ADF8CF
:103B7C008E30227BE37A43EA0223ADF88430227C38
:103B8C00E37B43EA0223ADF88830227DE37C43EAF1
:103B9C000223ADF88C30E37D227E43EA0223ADF89C
:103BAC0090303E460EFB05C3324603CA42451860B0
:103BBC005960164603F10803F6D112880135032D1E
:103BCC001A80EED10B48FEF7BDFC15E04001002039
:103BDC00000000207001002043464731680100209E
:103BEC005901002000093D00B006002040420F00A2
:103BFC00BE0600202C060020A448FEF7A3FCA44817
:103C0C00FEF7A0FCA34B9A6942F005029A61DA69AF
:103C1C0042F00072DA61A3F584335A6822F47F22F1
:103C2C005A605A6842F438225A60DA6842F40062E8
:103C3C00DA60994A536823F4C04353604522974B8A
:103C4C001A60D4F83014964AD2F80434DB076ED5D7
:103C5C00FCF796FB9349B0FBF1F2531EB3F5806F62
:103C6C006AD24A43904267D143F470128B4BDA61AB
:103C7C00D3F8002242F00102C3F80022D3F81C2230
:103C8C0022F00102C3F81C22D3F8042222F0010214
:103C9C00C3F80422D3F80C2242F00102C3F80C2220
:103CAC00D3F8142222F00102C3F814220022C3F824
:103CBC004022C3F84422D3F81C2242F00102C3F87C
:103CCC001C22D3F8002222F00102C3F800221A6849
:103CDC0022F001021A60D4F83014714AD2F804347C
:103CEC00DF0700F1B780012327E02379022B7FF453
:103CFC0026AE3B46B4F82980A5F128021E46106872
:103D0C005168083203C6AA423346F7D100232988EA
:103D1C00AA7838463180B2702B218DF8A9308DF8F5
:103D2C00AA30FCF7EDF980457FF409AE63E6D4F8D0
:103D3C0030345B1A132B87D9002384F84B37FFF7E9
:103D4C0097F894F8D015002940F08B800120FFF7EC
:103D5C0073F8504A536A43F0010353624D4B5B6A4C
:103D6C009E07FBD54CF6CC424F4B1A60012284F8CF
:103D7C004C2745F255521A6003225A6040F6A56250
:103D8C009A60DA6812F003020392FAD14AF6AA2278
:103D9C001A60DFF81891D4F83034029394F84C3749
:103DAC001BB14AF6AA22404B1A6094F8D135002B6D
:103DBC0040F03182CDF84B30CDF84F30374AD368D4
:103DCC009D070AD03A4BD3F8B03013F0040700F03B
:103DDC008A81D36843F02003D3600026354F07F562
:103DEC001D7A94F87735F5B2AB4200F2B881D4F86D
:103DFC009837029AD31A092B40F221842E4BDFF804
:103E0C00BCA005930023C4F898270493059B53F892
:103E1C00042BD1B20929059300F2BC82284D05EB85
:103E2C008100D0F89C0002F4E0630343C0B2242864
:103E3C0040F2BE8203F0C005C02D02D1C92840F269
:103E4C00E082CA2A00F0FD82CB2A40F0278641F29C
:103E5C000206B6E2D4F830345B1A132B7FF63EAF71
:103E6C006AE794F8401700297FF473AF94F876351D
:103E7C00002B3FF46EAF0D2069E70E48FEF762FB96
:103E8C00012384F8D035FEF7F3FF62E758060020D3
:103E9C008406002000100240000001400064004035
:103EAC000060004040548900003000404001002078
:103EBC00006500402C060020445C00080000002037
:103ECC0020570008B3F5F86F40F0E180BCF1080F03
:103EDC0040F0DD80C6F3074A360E8DF84E108DF893
:103EEC004B208DF84C508DF84D008DF851A08DF86D
:103EFC005260DDF84B00DDF84F1010AB03C394F8A3
:103F0C00D135002B7FF45AAFD4F8CC3598427FF4DE
:103F1C0055AFB8F13F0F3FF651AFBAF1030F3FF673
:103F2C004DAF15AD0E223946284601F034FA8DF806
:103F3C005BA04FF0010A049B06F007068DF8598030
:103F4C00ADF85CA0ADF85E608DF85A3019AE95E80E
:103F5C000F0007C63380C84B0E2119A819938DF892
:103F6C0068A0FCF7CDF8C54BADF884A020938DF874
:103F7C00867020AEADF8700096E80300FEF7C4F82A
:103F8C00D4F8D48539464046FCF758FD0620FCF79A
:103F9C0035FE51464046FCF751FDB84BADF884A0B8
:103FAC0020938DF8867096E80300FEF7ADF839463D
:103FBC004046FCF743FD0220FCF720FE3846FCF798
:103FCC001DFE3846FCF71AFE0DF1640A1AF8010BB7
:103FDC000137FCF713FE0E2FF8D101218A4640461B
:103FEC00FCF72CFDD4F83024A44B20934FF00003A5
:103FFC00ADF884A08DF8863096E803000492FEF7A5
:10400C0083F800214046FCF719FD0520FCF7F6FD6E
:10401C00FF20FCF7F3FD012107464046FCF70EFD9F
:10402C003940964B049A2CD10E22304601F0B3F94C
:10403C003046FEF791F800283FF4C0AE0E22314610
:10404C0019A801F047FB00287FF4B8AE8C4B17AED3
:10405C002A4603CAB24218605960154603F1080398
:10406C00F6D11068874D1860928805F5AE609A807D
:10407C00FEF772F885F8D005FEF71AFCFEF7F8FE8D
:10408C006AE0D4F83014891A1429AED996E694F85B
:10409C00D065002E3FF492AE94F8756506F58076E7
:1040AC00B3427FF48BAEBCF1080F7FF487AE012ACC
:1040BC007FF484AED4F83034BDF84F20C4F83C37CC
:1040CC00714B93F86C60AE4202D1061F012E05D8DD
:1040DC0083F86C500023FEF7EDFE6FE641F0010112
:1040EC00FDF783FB6AE6694EDFF8A4A1D6F8B4208D
:1040FC00D6F8B810D6F8BC605B0DC6F3072E5FFA85
:10410C0086F88DF84F808DF850E0CDF810E0DAF895
:10411C000CE0B3F5E06F4EF0200E02F00F0CC1F383
:10412C000725CAB2C1F30740CAF80CE04FEA116187
:10413C007FF4C8AED4F85037D4F83024D21AD4F85F
:10414C00CC3503F03F033233B2EB430F7FF636AE80
:10415C00D4F83034C4F85037FDF7DEFC2EE62022BC
:10416C00002120A801F017F9039B8DF848308DF839
:10417C0054302C2303FB0573059312AB0093059865
:10418C0020AB15AA19A9FDF799FB08B9013628E649
:10419C009DF86430032BF0D19DF84830122BECD1F4
:1041AC0004EB850203FB05A3D2F854274FEA850ED6
:1041BC0004920DF1800C0DF19008624603CA424541
:1041CC0018605960944603F10803F6D11288A6448E
:1041DC001A80D4F83034CEF85437049B33B994F8A1
:1041EC007735AB4202D92846FDF74CFB122303FB73
:1041FC00054393F863070028BFD0234A92F8542054
:10420C00002ABAD193F864176A1C01EB4201C9B2B7
:10421C00FEF712FEB1E700252E462F462022002184
:10422C0020A801F0B8F8039B8DF821308DF84830A8
:10423C000DF121030093174820AB12AA15A98DF894
:10424C0080708DF88160ADF88250FDF737FB9DF8DA
:10425C0080709DF88160BDF8825000283FF4C7AD96
:10426C009DF85430062B17D100220123114604204F
:10427C00FEF720FEDCE700BF57494E3140420F00ED
:10428C00B006002040010020000000200065004026
:10429C00006400402C060020022B08D19DF8213030
:1042AC00062BC5D101232A4631463846E0E7042BBC
:1042BC00BED19DF821301A2BBAD10DF1640C0DF141
:1042CC00800EBEE80F00ACE80F009EE80700ACE8DB
:1042DC000300DDF89630ACF80020C4F82530DDF88A
:1042EC006630BDF89210C4F80930DDF86A30BDF8BC
:1042FC009420C4F80D30BDF86E30BDF88000B3F5D5
:10430C007A7F28BF4FF47A73B3F5167F38BF4FF41A
:10431C001673A4F81130BDF87230A4F80700B3F589
:10432C007A7F28BF4FF47A73B3F5167F38BF4FF4FA
:10433C001673A4F81530BDF87030A4F82110B3F53D
:10434C007A7F28BF4FF47A73B3F5167F38BF4FF4DA
:10435C001673A4F82320A4F81330BDF87430B3F509
:10436C007A7F28BF4FF47A73B3F5167F38BF4FF4BA
:10437C001673A4F81730FCF7A3FC022300937D4BB3
:10438C0005219DF8482003F2E540FDF7F7F94FE7CA
:10439C0010233AE502F0C003C02B7FF452ADC929BB
:1043AC003FF64FAD744D02F03F0005EB800038E551
:1043BC0005EB80018E6803F4E0631E43701C3FF430
:1043CC0040ADDBF868303022002120A8069300F0C5
:1043DC00E2FF039A16F48053CDE919221B92ADF833
:1043EC002220079330D041F202039E422CD8634A1C
:1043FC00209241F20102964234D09E4200F0A680F7
:10440C00FEE75D4803F03F0300EB8303D3F89C30D9
:10441C00092900EB83039E6805D800EB8101D1F8D4
:10442C009C301343C7E702F0C003C02B06D102F047
:10443C003F0300EB8300D0F89C30F2E74FF4E063CD
:10444C00BBE741F20106BCE74D493046FCF76EF97B
:10445C004B4920903046FCF775F9C0F3C437112F47
:10446C0076D9FEE710274FF00708209D002D00F0AD
:10447C009D80012324934FF46023279300232A93D8
:10448C00404B1E672A9B9BB92B933C4B9D4262D1A0
:10449C003D4A936943F400739361936903F4007389
:1044AC000C930C9B079B1BB930463549FDF79CFCC4
:1044BC0020A8FBF7EFFE2A9B13F0100F2A9B40F06D
:1044CC00BB81002840F0B88123F4885323F0020309
:1044DC0043F002032A936B6823F469436B60AA6868
:1044EC002A4B134043F46023AB60EB6A23F4700354
:1044FC00EB62AA68264B1340B3F5602F4CD12B907E
:10450C002A9B092F23F0030343F001032A934FF056
:10451C0001030D908DF8A430CDE91A386B6B4FF078
:10452C00070223F01F0343EA07036B63154E199729
:10453C0007EB470300F2AF8029699A4021EA020297
:10454C0008FA03F842EA08022A61B3E011278AE765
:10455C004FF0020889E70F4B9D42A3D10A4A936999
:10456C0043F480639361936903F480630B930B9B17
:10457C0098E700BF470100202057000800240140A5
:10458C004C5C00080000002000100240FDF7E1FF29
:10459C00FE0E1FFF002801402A9B23F0120343F05C
:1045AC0010032A932B9B43F001032B930020AF4B5A
:1045BC0006995A6EFCF72FFA142380B258434FF623
:1045CC00FF73984228BF1846BAF8043082B2AAF892
:1045DC00022023B1C3EBC3030344C3F3CF02049BF8
:1045EC00AAF804200AF1200A002B3FF4D1AE94F86B
:1045FC00D15525BB2E4629464FF0010ADFF87082B3
:10460C0058F8040BB4F87A75FCF74EFAF74007F03B
:10461C000107B84204BF0AFA06F30B4306F1010680
:10462C0008BFD9B2032EEBD101F00303032B84F89E
:10463C009C1740F0358200210820FEF7FDFBD4F8D2
:10464C00A037029AD31A042B40F27083874E0027AE
:10465C003546C4F8A027337F002B00F0A682854B8B
:10466C005FFA87F853F82700FCF71EFA0128337A13
:10467C0008F1010A40F03E8243F00402381D327208
:10468C0004EB4002B6F804C0B2F801206245C0F059
:10469C005182002253E2E968A3F11E00824021EA14
:1046AC00020108FA00F30B43EB60A7F11003012B96
:1046BC0040F2958000230E93012320A88DF8A4309E
:1046CC00FBF7E8FD20A8FBF7ABFD00287FF46EAFED
:1046DC002A9B366C23F4885323F0020343F0020325
:1046EC002A93FBF75DFE644B5B68C3F381330133A4
:1046FC005B00B0FBF3F0B6FBF0F040000E900E9BAD
:10470C00002B40F08880AB6843F00803AB60D4F812
:10471C003024AB681F0700F18280AB6843F00403C0
:10472C00AB60D4F83024AB68590700F189802A9B20
:10473C0020A823F0030343F001032A9301238DF8EF
:10474C00A430FBF76DFD00287FF430AF2A9B23F4D7
:10475C00407323F0010343F480732A93474B9D422B
:10476C0004D1474A536813F4702F74D12A9B23F455
:10477C0080132A936B685A0541BF2A9B23F440533C
:10478C0043F480532A932A9B13F480531CBF2B9B16
:10479C0023F006032B9300238DF8A4306FF0020353
:1047AC002B60AB6803F46023B3F5602F59D1334B06
:1047BC009D4205D1A3F580635B6813F4702F50D133
:1047CC00AB6843F4A003AB6000230F93D9F830140B
:1047DC00AB68DB0558D52A9B43F020032EE0284B11
:1047EC009D42F8D1AB681A023FF564AFAB68102F4D
:1047FC0043F40003AB607FF45DAF224A336CB3FB30
:10480C00F2F30A2253430D930D9B002B3FF452AF4E
:10481C000D9B013BF7E70E9B013B0E936FE7D4F822
:10482C0030349B1A0A2B7FF674AFAB681B077FF5ED
:10483C0070AF2A9B23F0120343F010032A93B5E6C2
:10484C00D9F830349B1A0A2B7FF66DAFAB6858073A
:10485C007FF569AFEDE72A9B43F480132A935368E5
:10486C0089E7AB6843F48013ADE700BF000000207C
:10487C00EC5B0008485D0008001002400028014075
:10488C000024014040420F006B68DF0503D4EB6A43
:10489C0013F4700F3DD0FBF783FD9A4B5B682A69CC
:1048AC00C3F3813301335B00B0FBF3F0964BB6FBE3
:1048BC00F0F01A42954B40F0C580EE68944A1642CF
:1048CC0040F0C0802A691A4240F0CD80EA6803F1BA
:1048DC006E431A420CBF1423292358430F9B984252
:1048EC001AD9D9F830345B1A0A2B02D90F9B98428B
:1048FC000BD80F9B01330F93F0E7D9F830345B1AC8
:10490C000A2B06D92B689E0703D42A9B43F0040379
:10491C0094E72B689807F0D56FF012032B602A9B55
:10492C0043F400732A93AB6803F46023B3F5602F50
:10493C000AD12A9B23F480732A932A9BDA045EBF44
:10494C002A9B43F001032A932A9B20A89B0542BF74
:10495C00EB6C9BB2ADF8223001238DF8A430FBF741
:10496C0099FC00287FF422AE2A9B8DF8A40023F436
:10497C00885323F0010343F001032A932A9B20A8B8
:10498C0043F002032A93FBF785FC00287FF40EAE5C
:10499C006FF01F032B606A685E4B13406B60AA6854
:1049AC005D4B1340AB60EB6803F07F43EB602B690E
:1049BC0003F040432B616A69584B1A406A61AA693B
:1049CC001A40AA61EA691A40EA612A6A1A402A6204
:1049DC006A6A1A406A62AA6A1340AB62EB6A504A6E
:1049EC0003F07F43EB62EB6A03F07F43EB622B6BCC
:1049FC0003F040432B636B6B03F040436B63AB6B77
:104A0C001340AB63AB6B1340AB63464B9D4230D151
:104A1C0003F56C43DA6842F40072DA60DA6822F467
:104A2C000072DA609A6922F400729A6100233D4A9E
:104A3C002B932A93936823F400039360BDF8220010
:104A4C0080B2B4E52A691A4203D1EA68364B1A429D
:104A5C000BD02A69354B1A4209D1EA681A420CBFAD
:104A6C005423FC2339E7292337E7542335E7FC2368
:104A7C0033E72F4B9D42D9D103F56843DA6842F4F2
:104A8C008062DA60DA6822F48062DA609A6922F471
:104A9C0080629A619A6922F48062C6E700208BE5F5
:104AAC0011F0010304D111F0020F14BF02230323F0
:104ABC0084F89D3794F8403763B194F8E0352BB106
:104ACC000320FDF7CBFB0546FDF7F8FBA3791D4052
:104ADC0084F8415794F841374BB194F83A07FBF7F7
:104AEC005FFB022803D100210720FEF7A5F9002166
:104AFC000920A2E55146062023F004033372FEF789
:104B0C009BF952E00010024024499224922449124D
:104B1C002449920000003FFFF00601FF00F0FFFF68
:104B2C000000C0FF00240140922449004992240057
:104B3C00002801403269002A40F09A80029A3261C2
:104B4C0004EB4000B0F805E0F2680299F445A1EBE3
:104B5C00020200F29880706900B97161B4F821000A
:104B6C008242C0F0C6827069002800F097800299DA
:104B7C00B4F823C0081A6045C0F090804FF6FF715E
:104B8C008A4228BF0A46317892B201297FD104EBC0
:104B9C004701A1F8192043F00C033372FBF70FFB0C
:104BAC00012340467377FEF71BF97B1C022B4FF059
:104BBC00010706F120067FF44EAD2B7F002B40F051
:104BCC00848095F83C70002F7FD16B7F002B7CD0BC
:104BDC0095F83D30002B78D094F8D13543B919466F
:104BEC00C44A94F877C5A2F10C06C8B260455CD3F0
:104BFC0094F849E7BEF1000F00F08280002B7FD1C2
:104C0C0094F83A27ADF88030072A15BFB4F81D3058
:104C1C00B4F81930B849B94903B920A9072A08884A
:104C2C0015BFB4F81F60B4F81B60B549B54986428E
:104C3C00ADF8800098BF20A90988002608464FF0DF
:104C4C00120894F877C5ADF880105FFA86FAD4454F
:104C5C004CD908FB069ABAF87077BAF86EA70136E9
:104C6C00574538BF5746B84238BF38467746ECE709
:104C7C0002998A1A3B2A7FF663AF43F0140351461C
:104C8C00032033723BE70020C6E9050066E70229E2
:104C9C0004BF04EB4701A1F81D207CE7D4F82530B4
:104CAC009A4282D35146052029E7D4F8300456F8AD
:104CBC0004EBA0EB0E00B0F5C87F06D8507801319C
:104CCC000338012802F112028FD894F83937033BCC
:104CDC00012B2BD8D4F83C37029AD31AB3F5967F14
:104CEC0024D900210220FEF7A7F81FE017B10146D6
:104CFC00ADF88000002940F00B810B20FEF79CF8EA
:104D0C00039B84F8493795F85430002BDDD194F887
:104D1C003A07FBF745FA039B012818BF022084F8D9
:104D2C003A37022384F89D0784F8393794F8390709
:104D3C00D4F8A437C11EC9B201298CBF4FF47A72C2
:104D4C006422029DEB1A9342FFF425A8C4F8A457E1
:104D5C0094F8D155002D40F07A8194F8D035002B81
:104D6C003FF417A894F84B37002B3FF412A82A46AF
:104D7C002E464FF0010A644B94F8779593F854C083
:104D8C0094F83837DFF8848102935FFA82FECE45BF
:104D9C00C0F04581012794F84A278DF84A008DF818
:104DAC00492094F83A2794F87505029B8DF84B200E
:104DBC0094F89D2712A900F5C0708DF84E308DF82F
:104DCC0048708DF84C208DF84DC08DF84F60FCF775
:104DDC007BFE0023ADF8583094F89C378DF8547056
:104DEC008DF8553094F841378DF8563094F840379B
:104DFC006BB194F8E0351BB10A20FDF72FFA05468C
:104E0C00A3792B40003B18BF01239D0001232B43AA
:104E1C008DF85730D4F8303494F87555B3F17A7F57
:104E2C0036BF4FF47A724FF6FF73B3FBF2F305F50E
:104E3C00007015A9ADF85A30FCF746FEBBF80430EB
:104E4C00A035ADF86430BBF80630AD009B088DF88A
:104E5C0068309BF8083028468DF86A30BBF824304F
:104E6C0019A9ADF86630BBF8263000269B088DF8E2
:104E7C0069309BF8283012278DF86B30FCF724FE34
:104E8C00013594F87735F0B283427EF682AF04EBAD
:104E9C008002D4F83034D2F854279B1AB3F5C87F6B
:104EAC0025D807FB004393F8671793F86627284427
:104EBC0042EA0122ADF8802093F86A278DF884200D
:104ECC0093F86C278DF8862093F8691793F8682768
:104EDC0042EA0122ADF8822093F86B2793F86D37E4
:104EEC0020A98DF885208DF88730FCF7EDFD013673
:104EFC00C7E700BFA00800205D0100205901002079
:104F0C005F0100205B0100200000002094080020BD
:104F1C004FF47A704343B3FBF1F39BB2834228BF47
:104F2C000346B3F5167F38BF4FF416734FF47A70FF
:104F3C00072A15BFA9F81530A9F81130B9F81F3098
:104F4C00B9F81B3012274343B3FBF1F39BB28342F6
:104F5C0028BF0346B3F5167F38BF4FF416730020F5
:104F6C004FF47A7E1A26072A0CBFA9F81330A9F839
:104F7C001730C3B29C453ED907FB0093B3F86E378C
:104F8C0006FB00980EFB03F3B3FBF1F39BB2B3F5F6
:104F9C007A7F28BF4FF47A73B3F5167F38BF4FF47E
:104FAC001673072A14BFA8F88C35A8F8883507FBA8
:104FBC000093B3F8703706FB00980EFB03F3B3FBBA
:104FCC00F1F39BB2B3F57A7F28BF4FF47A73B3F544
:104FDC00167F38BF4FF41673072A14BFA8F88E3506
:104FEC00A8F88A3506FB0098B8F87E3501300133F5
:104FFC00A8F87E35BDE7B9F8073000260133A9F8CB
:10500C000730FBF75DFEFBF7DAF899F87735F0B26D
:10501C0083427FF675AEFCF735FC0136F5E7D4F824
:10502C00307458F8043BFF1AB7F5C87F05D80AFA54
:10503C0002F73743FEB20132A7E60129FBD84FEA4B
:10504C004E030333DBB24FF00A0C0293F3E794F8F0
:10505C003A378DF881008DF882309BF8543094F8F3
:10506C0048078DF8833094F838378DF880508DF8D8
:10507C00843094F84A3703218DF88530FBF790F88B
:10508C00BBF804300228ADF88630BBF806304FEA86
:10509C0093038DF88A309BF808308DF88C3014BF50
:1050AC00B4F81930B4F81D300228ADF88E301D4B11
:1050BC001D489A8CADF88820DA8C93F828304FEA8A
:1050CC0092028DF88D300CBFB4F81F30B4F81B3041
:1050DC008DF88B20ADF89030122394F8A82700930C
:1050EC000132D2B220AB84F8A827FCF747FBFEF7BD
:1050FC0050BEB2F52F7FFFF4D1ADF4453FF6CEADE7
:10510C00B06910B902990846B1610299B4F823C08C
:10511C00081A6045FFF4C2AD43F024035146042045
:10512C003372ECE4000000202C060020F8B50627B2
:10513C0007257C4C172604F5BD6084F8E475FEF752
:10514C00FFF904F2FC5084F8F855FEF7F9F908233E
:10515C0004F5C26084F80C36FEF7F2F9092304F268
:10516C00246084F82036FEF7EBF90A23282204F594
:10517C00C76084F83436FEF7E3F904F24C6084F827
:10518C004866FEF7DDF904F5CC6084F85C66FEF742
:10519C00D7F904F2746084F87066FEF7D1F904F55F
:1051AC00D16084F88466FEF7CBF904F29C6084F835
:1051BC009866FEF7C5F904F5D66084F8AC26FEF7C0
:1051CC00BFF904F2C46084F8C026FEF7B9F904F5FF
:1051DC00DB6084F8D426FEF7B3F904F2EC6084F8B3
:1051EC00E826FEF7ADF904F5E06084F8FC26FEF73E
:1051FC00A7F904F2147084F81027FEF7A1F94A4BB2
:10520C005C22C4F8AC340123002104F58860C4F896
:10521C00B03400F0C0F81620C4F8940804F5F86017
:10522C00C4F8A80804F50060404AC4F8AC08032090
:10523C000523C4F8AC27C4F8C428C4F8DC291B2205
:10524C00C4F8B00902204FF47A71C4F8A054C4F821
:10525C00A43400254FF0FF33C4F8C82A1A22C4F82E
:10526C00AC0904F6D800C4F8C00904F61810A4F868
:10527C00B458C4F8A834A4F8B658C4F8B417C4F891
:10528C009C38C4F8A038C4F8CC18C4F8B439C4F8A5
:10529C00B839A4F8CC59C4F8C409C4F8E419C4F852
:1052AC009C74C4F8B057C4F89868C4F8B058C4F8E3
:1052BC00C858C4F8C859A4F8CE59C4F8E059C4F871
:1052CC00C42AC4F8CC3AC4F8D03A04F51F63C4F825
:1052DC00D83A04F2AC7104F5236304F2EC40C4F840
:1052EC00DC3AA4F8E45AC4F8E05AA4F8E65AFEF7FB
:1052FC0053F904F6C40104F5A360FEF74DF904F666
:10530C00DC1104F24450FEF747F90423C4F8D835F5
:10531C001923C4F8DC350F2384F8E055C4F8D435D0
:10532C00F8BD00BF4001002000093D00585D000899
:10533C0038B5054CA4F5A075143C201DFBF7D4FE24
:10534C00AC42F9D138BD00BF64080020FDF797FFCF
:10535C000B480C490C4A002302E0D458C4500433C7
:10536C00C4188C42F9D3094A094C002301E013609C
:10537C000432A242FBD300F017F8FEF759FA70473B
:10538C000000002040010020905D0008400100203A
:10539C00980D0020FEE703460244934200D170476B
:1053AC0003F8011BF9E7000070B500260C4D0D4BFE
:1053BC005B1B9C10A64209D1002600F09FF90A4DF8
:1053CC000A4B5B1B9C10A64205D170BD55F8043BE3
:1053DC0098470136EEE755F8043B98470136F2E75B
:1053EC007C5D00087C5D00087C5D0008885D000821
:1053FC00704770470A44914200F1FF3300D1704767
:10540C0010B511F8014B914203F8014FF9D110BDC1
:10541C0038B50546002940D051F8043C0C1F002B30
:10542C00B8BFE41800F0DEF81C4A136833B96360A7
:10543C0014602846BDE8384000F0DAB8A34208D919
:10544C00206821188B4201BF19685B68091821601C
:10545C00EDE71A465B680BB1A342FAD911685018F4
:10546C00A0420BD120680144501883421160E0D156
:10547C0018685B68084410605360DAE702D90C23A3
:10548C002B60D6E7206821188B4201BF19685B6836
:10549C000918216063605460CBE738BD940D00207F
:1054AC0070B50F4E0C463168054611B900F0A6F8E0
:1054BC0030602146284600F0A1F8431C03D14FF080
:1054CC00FF34204670BDC41C24F00304A042F8D065
:1054DC00211A284600F092F80130F2D1EFE700BF14
:1054EC00900D00202DE9F843CD1C25F0030508355F
:1054FC000C2D38BF0C25002D064601DBA94204D922
:10550C000C2333600020BDE8F883DFF8D48000F072
:10551C0069F8D8F800301C4644BB29463046FFF7E2
:10552C00BFFF431C044658D1D8F800402746002F33
:10553C0043D1002C4BD023683946304604EB030989
:10554C0000F05CF8814542D1216830466D1A29463D
:10555C00FFF7A6FF01303AD023682B442360D8F81C
:10556C0000305A6862BBC8F800700FE02268521B0A
:10557C0020D40B2A17D96119A342256018BF596092
:10558C00636808BFC8F8001062514B60304600F0E9
:10559C002FF804F10B00231D20F00700C21A1CBFCA
:1055AC001B1AA350AFE76268A3420CBFC8F80020D7
:1055BC005A60EBE723466468AEE73C467F68B6E783
:1055CC001A465B68A342FBD100235360DEE70C2331
:1055DC003046336000F00CF894E70560D6E700BF66
:1055EC00940D00200148FFF703BF00BF8C0D002075
:1055FC000148FFF7FEBE00BF8C0D002038B500231C
:10560C00054D044608462B60FDF78CFE431C02D169
:10561C002B6803B1236038BD880D0020024B014676
:10562C001868FFF75FBF00BFF0000020024B014677
:10563C001868FFF7EDBE00BFF0000020062008B58B
:10564C0000F02CF80120FDF799FE1F2938B505460E
:10565C000C4604D9162303604FF0FF3038BDC26BE3
:10566C0012B152F821304BB9284600F031F82246DD
:10567C0001462846BDE8384000F018B8012B0AD086
:10568C00591C03D1162303600120E7E700212046B3
:10569C0042F8241098470020E0E70000024B014636
:1056AC001868FFF7D2BF00BFF000002038B5002308
:1056BC00064D0446084611462B60FDF760FE431C60
:1056CC0002D12B6803B1236038BD00BF880D0020C8
:1056DC00FDF75EBE10B501390244904201D10020A5
:1056EC0005E0037811F8014FA34201D0181B10BD3F
:1056FC000130F2E708B5FFF7A1FF0000F8B500BFD5
:10570C00F8BC08BC9E467047F8B500BFF8BC08BC96
:04571C009E467047EE
:10572000000000000102030400000000010000006E
:10573000020000000300000004000000050000005B
:10574000060000000700000008000000090000003B
:105750000A0000000B0000000C0000000D0000001B
:105760000E0000000F0000001000000011000000FB
:1057700012000000130000001400000015000000DB
:1057800016000000170000001800000019000000BB
:105790001A0000001B0000001C0000001D0000009B
:1057A0001E0000001F0000002D0000002E00000061
:1057B0002F00000030000000310000000000000059
:1057C00001000000020000000300000004000000CF
:1057D00005000000060000000700000010000000A7
:1057E0001100000000080140000C014000100140C1
:1057F00000140140001801400101000002020000F5
:105800000404000008080000101000002020000020
:1058100040400000808000000100010402000204FA
:1058200004000404080008041000100420002004F0
:105830004000400480008004070000000030014068
:1058400012020000150000000030014012010000AB
:105850001F0000000038004012000000FFFFFFFFA3
:1058600000000000000000000600000000300140C1
:10587000120200001400000000300140120100007C
:105880001E0000000038004012000000FFFFFFFF74
:105890000000000000000000050000000030014092
:1058A000120200001300000000300140120100004D
:1058B0001D0000000038004012000000FFFFFFFF45
:1058C0000000000000000000040000000030014063
:1058D000120200000F000000003001401201000021
:1058E0001C0000000038004012000000FFFFFFFF16
:1058F0000000000000000000020000000044004022
:1059000012080000090000000038014012060000E3
:105910001600000000380140120500001A000000C7
:105920000048004012000000FFFFFFFF00000000E1
:1059300000000000030000000044004010080000C8
:105940000A000000003801401006000017000000A7
:1059500000380140100500001B0000000048004016
:1059600010000000FFFFFFFF00000000000000002B
:105970000100000000440040120800000C0000007C
:1059800000380140120000001E00000000480040E6
:10599000120000001E01000000480040120A000032
:1059A000FFFFFFFF000000000000000000000000FB
:1059B00000440040120000000B00000000380140CD
:1059C000120000001D00000000480040120B000003
:1059D0001D01000000480040120A0000FFFFFFFF09
:1059E0000000000000000000000000000000004077
:1059F0001280000000010000000000401290000032
:105A0000010000000000004012120100010100002E
:105A100000000040121001000200000000000040E1
:105A200012920100020100000000004012910100EA
:105A300003000000000000401212020003010000F9
:105A400000000040121102000600000000040040A7
:105A50001295000007000000002C0140128D10007C
:105A600007010000000400401215010008000000BA
:105A7000002C0140128E000008010000002C0140A3
:105A8000128D000009000000002C0140120E0100E0
:105A900009010000002C0140120D01000A00000065
:105AA000002C0140128E01000A010000002C014070
:105AB000128D01000B000000002C0140120E0200AC
:105AC0000B010000002C0140120D02000F0000002D
